{
	"data": {
		"bytecode": {
			"linkReferences": {},
			"object": "608060405260036001556007805460ff1916905534801561001e575f80fd5b506040516200606a3803806200606a83398101604081905261003f916100c8565b61004833610079565b600280546001600160a01b0319166001600160a01b0394909416939093179092556004556005556064600655610107565b5f80546001600160a01b038381166001600160a01b0319831681178455604051919092169283917f8be0079c531659141344cd1fd0a4f28419497f9722a3daafe3b4186f6b6457e09190a35050565b5f805f606084860312156100da575f80fd5b83516001600160a01b03811681146100f0575f80fd5b602085015160409095015190969495509392505050565b615f5580620001155f395ff3fe608060405234801562000010575f80fd5b506004361062000140575f3560e01c80636b39268011620000b75780638dc1299111620000775780638dc12991146200028b57806390d49b9d14620002a257806392402aa214620002b9578063f25f4b5614620002d0578063f2fde38b14620002e4575f80fd5b80636b39268014620002235780636e42366b146200023a5780637104c9fd1462000259578063715018a614620002705780638da5cb5b146200027a575f80fd5b8063542ce0bc1162000103578063542ce0bc14620001b257806354fd4d5014620001c9578063647846a514620001d357806369e1540414620002005780636a1860e2146200020a575f80fd5b806303807ee51462000144578063103a9981146200016157806315cce224146200017a57806337491a911462000191578063378efa3714620001a8575b5f80fd5b6200014e60055481565b6040519081526020015b60405180910390f35b6200017862000172366004620010bd565b620002fb565b005b620001786200018b36600462001109565b62000318565b62000178620001a2366004620012cf565b620003d1565b6200014e60065481565b62000178620001c3366004620013bf565b62000632565b6200014e60015481565b600254620001e7906001600160a01b031681565b6040516001600160a01b03909116815260200162000158565b6200014e60045481565b6200021462000655565b60405162000158919062001479565b6200017862000234366004620014c7565b620006b7565b600754620002489060ff1681565b604051901515815260200162000158565b620001e76200026a366004620014c7565b620006f7565b6200017862000720565b5f546001600160a01b0316620001e7565b620001786200029c366004620014df565b62000737565b62000178620002b336600462001109565b620007e9565b62000178620002ca36600462001500565b62000842565b600354620001e7906001600160a01b031681565b62000178620002f536600462001109565b62000a77565b6200030562000af6565b6007805460ff1916911515919091179055565b6200032262000af6565b803b63ffffffff166200037c5760405162461bcd60e51b815260206004820152601a60248201527f4e65772061646472657373206973206e6f74206120746f6b656e00000000000060448201526064015b60405180910390fd5b600280546001600160a01b0319166001600160a01b0383169081179091556040519081527f9e892f555b0a5cac6c8cc33c82ebb9308207bd16dfdca9d0289b96d7e4186c8a906020015b60405180910390a150565b60075460ff1615620004a257306001600160a01b0316638da5cb5b6040518163ffffffff1660e01b8152600401602060405180830381865afa1580156200041a573d5f803e3d5ffd5b505050506040513d601f19601f82011682018060405250810190620004409190620015b0565b6001600160a01b0316336001600160a01b031614620004a25760405162461bcd60e51b815260206004820152601d60248201527f4f6e6c79206f776e65722063616e206372656174652049444f506f6f6c000000604482015260640162000373565b5f868686868686604051620004b79062001015565b620004c89695949392919062001663565b604051809103905ff080158015620004e2573d5f803e3d5ffd5b5060405163f2fde38b60e01b81523360048201529091506001600160a01b0382169063f2fde38b906024015f604051808303815f87803b15801562000525575f80fd5b505af115801562000538573d5f803e3d5ffd5b505050505f876001600160a01b031663313ce5676040518163ffffffff1660e01b8152600401602060405180830381865afa1580156200057a573d5f803e3d5ffd5b505050506040513d601f19601f82011682018060405250810190620005a09190620016f2565b90505f620005b78860400151895f01518462000b51565b90505f8860c00151118015620005d057505f8860a00151115b1562000619576200060a60648960c001518a60400151620005f2919062001728565b620005fe919062001742565b8960a001518462000b51565b62000616908262001762565b90505b62000627818a858762000b7f565b505050505050505050565b6200063c62000af6565b80516200065190600890602084019062001023565b5050565b60606008805480602002602001604051908101604052809291908181526020018280548015620006ad57602002820191905f5260205f20905b81546001600160a01b031681526001909101906020018083116200068e575b5050505050905090565b620006c162000af6565b60048190556040518181527fbb128cd9921d003aff00ed910fe24b1655b2bf1f4a2090cc3523f61bdc17231690602001620003c6565b6008818154811062000707575f80fd5b5f918252602090912001546001600160a01b0316905081565b6200072a62000af6565b620007355f62000d30565b565b6200074162000af6565b80821115620007a25760405162461bcd60e51b815260206004820152602660248201527f4275726e2070657263656e74206d757374206265206c657373207468616e206460448201526534bb34b232b960d11b606482015260840162000373565b6005829055600681905560408051838152602081018390527fb62d69c6ddf4f4bd443dca17ea7405d8018efb872e82e77bb8ef13b5be2f2e9c910160405180910390a15050565b620007f362000af6565b600380546001600160a01b0319166001600160a01b0383169081179091556040519081527f29acee77dafcfa0143d74a7ea236018f3a6e1fa71e27fc59bbfbc6b8ca8edccd90602001620003c6565b60075460ff16156200091357306001600160a01b0316638da5cb5b6040518163ffffffff1660e01b8152600401602060405180830381865afa1580156200088b573d5f803e3d5ffd5b505050506040513d601f19601f82011682018060405250810190620008b19190620015b0565b6001600160a01b0316336001600160a01b031614620009135760405162461bcd60e51b815260206004820152601d60248201527f4f6e6c79206f776e65722063616e206372656174652049444f506f6f6c000000604482015260640162000373565b5f868686868660405162000927906200108b565b6200093795949392919062001778565b604051809103905ff08015801562000951573d5f803e3d5ffd5b509050811562000a0957604051631c238edd60e11b81525f60048201526001600160a01b038216906338471dba906024015f604051808303815f87803b1580156200099a575f80fd5b505af1158015620009ad573d5f803e3d5ffd5b5050604051632a897a6b60e11b8152600160048201526001600160a01b0384169250635512f4d691506024015f604051808303815f87803b158015620009f1575f80fd5b505af115801562000a04573d5f803e3d5ffd5b505050505b60405163f2fde38b60e01b81523360048201526001600160a01b0382169063f2fde38b906024015f604051808303815f87803b15801562000a48575f80fd5b505af115801562000a5b573d5f803e3d5ffd5b5050505062000a6d8888838662000b7f565b5050505050505050565b62000a8162000af6565b6001600160a01b03811662000ae85760405162461bcd60e51b815260206004820152602660248201527f4f776e61626c653a206e6577206f776e657220697320746865207a65726f206160448201526564647265737360d01b606482015260840162000373565b62000af38162000d30565b50565b5f546001600160a01b03163314620007355760405162461bcd60e51b815260206004820181905260248201527f4f776e61626c653a2063616c6c6572206973206e6f7420746865206f776e6572604482015260640162000373565b5f62000b5f82600a620018cb565b62000b6b848662001742565b62000b77919062001728565b949350505050565b62000b966001600160a01b03841633848762000d7f565b600880546001810182555f919091527ff3f7a9fe364faab93b216da50a3214154f22a0a2b415b23a84c8169e8b636ee30180546001600160a01b0319166001600160a01b03848116919091179091556040519084169033907ff71c11ab5bd622b01d634c5c9e59846d77ee252871f11645b7b8376ddd4dd3e29062000c1f9086908690620018db565b60405180910390a36004541562000d2a576005541562000d04575f62000c6160065462000c5a60055460045462000ddb90919063ffffffff16565b9062000df1565b60035460045491925062000c9c9133916001600160a01b03169062000c87908562000dfe565b6002546001600160a01b031692919062000d7f565b60025460405163079cc67960e41b8152336004820152602481018390526001600160a01b03909116906379cc6790906044015f604051808303815f87803b15801562000ce6575f80fd5b505af115801562000cf9573d5f803e3d5ffd5b505050505062000d2a565b60035460045460025462000d2a926001600160a01b039182169233929091169062000d7f565b50505050565b5f80546001600160a01b038381166001600160a01b0319831681178455604051919092169283917f8be0079c531659141344cd1fd0a4f28419497f9722a3daafe3b4186f6b6457e09190a35050565b604080516001600160a01b0385811660248301528416604482015260648082018490528251808303909101815260849091019091526020810180516001600160e01b03166323b872dd60e01b17905262000d2a90859062000e0b565b5f62000de8828462001728565b90505b92915050565b5f62000de8828462001742565b5f62000de8828462001900565b5f62000e61826040518060400160405280602081526020017f5361666545524332303a206c6f772d6c6576656c2063616c6c206661696c6564815250856001600160a01b031662000ee89092919063ffffffff16565b80519091501562000ee3578080602001905181019062000e82919062001916565b62000ee35760405162461bcd60e51b815260206004820152602a60248201527f5361666545524332303a204552433230206f7065726174696f6e20646964206e6044820152691bdd081cdd58d8d9595960b21b606482015260840162000373565b505050565b606062000b7784845f85855f80866001600160a01b0316858760405162000f10919062001934565b5f6040518083038185875af1925050503d805f811462000f4c576040519150601f19603f3d011682016040523d82523d5f602084013e62000f51565b606091505b509150915062000f648783838762000f6f565b979650505050505050565b6060831562000fe25782515f0362000fda576001600160a01b0385163b62000fda5760405162461bcd60e51b815260206004820152601d60248201527f416464726573733a2063616c6c20746f206e6f6e2d636f6e7472616374000000604482015260640162000373565b508162000b77565b62000b77838381511562000ff95781518083602001fd5b8060405162461bcd60e51b815260040162000373919062001951565b6125b2806200196683390190565b828054828255905f5260205f2090810192821562001079579160200282015b828111156200107957825182546001600160a01b0319166001600160a01b0390911617825560209092019160019091019062001042565b506200108792915062001099565b5090565b6120088062003f1883390190565b5b8082111562001087575f81556001016200109a565b801515811462000af3575f80fd5b5f60208284031215620010ce575f80fd5b8135620010db81620010af565b9392505050565b6001600160a01b038116811462000af3575f80fd5b80356200110481620010e2565b919050565b5f602082840312156200111a575f80fd5b8135620010db81620010e2565b634e487b7160e01b5f52604160045260245ffd5b6040516060810167ffffffffffffffff8111828210171562001161576200116162001127565b60405290565b604051601f8201601f1916810167ffffffffffffffff8111828210171562001193576200119362001127565b604052919050565b5f60e08284031215620011ac575f80fd5b60405160e0810181811067ffffffffffffffff82111715620011d257620011d262001127565b8060405250809150823581526020830135602082015260408301356040820152606083013560608201526080830135608082015260a083013560a082015260c083013560c08201525092915050565b5f6060828403121562001232575f80fd5b6200123c6200113b565b905081358152602082013560208201526040820135604082015292915050565b5f82601f8301126200126c575f80fd5b813567ffffffffffffffff81111562001289576200128962001127565b6200129e601f8201601f191660200162001167565b818152846020838601011115620012b3575f80fd5b816020850160208301375f918101602001919091529392505050565b5f805f805f80868803610200811215620012e7575f80fd5b8735620012f481620010e2565b9650620013058960208a016200119b565b955062001317896101008a0162001221565b9450606061015f19820112156200132c575f80fd5b50620013376200113b565b6101608801356200134881620010e2565b81526101808801356200135b81620010e2565b60208201526101a08801356200137181620010e2565b60408201529250620013876101c08801620010f7565b91506101e087013567ffffffffffffffff811115620013a4575f80fd5b620013b289828a016200125c565b9150509295509295509295565b5f6020808385031215620013d1575f80fd5b823567ffffffffffffffff80821115620013e9575f80fd5b818501915085601f830112620013fd575f80fd5b81358181111562001412576200141262001127565b8060051b91506200142584830162001167565b81815291830184019184810190888411156200143f575f80fd5b938501935b838510156200146d57843592506200145c83620010e2565b828252938501939085019062001444565b98975050505050505050565b602080825282518282018190525f9190848201906040850190845b81811015620014bb5783516001600160a01b03168352928401929184019160010162001494565b50909695505050505050565b5f60208284031215620014d8575f80fd5b5035919050565b5f8060408385031215620014f1575f80fd5b50508035926020909101359150565b5f805f805f805f6101e0888a03121562001518575f80fd5b8735965060208801356200152c81620010e2565b955060408801356200153e81620010e2565b94506200154f8960608a016200119b565b935062001561896101408a0162001221565b92506101a088013567ffffffffffffffff8111156200157e575f80fd5b6200158c8a828b016200125c565b9250506101c0880135620015a081620010af565b8091505092959891949750929550565b5f60208284031215620015c1575f80fd5b8151620010db81620010e2565b805182526020810151602083015260408101516040830152606081015160608301526080810151608083015260a081015160a083015260c081015160c08301525050565b5f5b838110156200162e57818101518382015260200162001614565b50505f910152565b5f81518084526200164f81602086016020860162001612565b601f01601f19169290920160200192915050565b6001600160a01b0387811682525f906102009062001685602085018a620015ce565b8751610100850152602088015161012085015260408801516101408501528651811661016085015260208701518116610180850152604087015181166101a085015285166101c08401526101e08301819052620016e58184018562001636565b9998505050505050505050565b5f6020828403121562001703575f80fd5b815160ff81168114620010db575f80fd5b634e487b7160e01b5f52601160045260245ffd5b808202811582820484141762000deb5762000deb62001714565b5f826200175d57634e487b7160e01b5f52601260045260245ffd5b500490565b8082018082111562000deb5762000deb62001714565b6001600160a01b038681168252851660208201525f6101a06200179f6040840187620015ce565b845161012084015260208501516101408401526040850151610160840152806101808401526200146d8184018562001636565b600181815b808511156200181257815f1904821115620017f657620017f662001714565b808516156200180457918102915b93841c9390800290620017d7565b509250929050565b5f826200182a5750600162000deb565b816200183857505f62000deb565b81600181146200185157600281146200185c576200187c565b600191505062000deb565b60ff84111562001870576200187062001714565b50506001821b62000deb565b5060208310610133831016604e8410600b8410161715620018a1575081810a62000deb565b620018ad8383620017d2565b805f1904821115620018c357620018c362001714565b029392505050565b5f62000de860ff8416836200181a565b6001600160a01b03831681526040602082018190525f9062000b779083018462001636565b8181038181111562000deb5762000deb62001714565b5f6020828403121562001927575f80fd5b8151620010db81620010af565b5f82516200194781846020870162001612565b9190910192915050565b602081525f62000de860208301846200163656fe60806040526016805460ff1916905560016018553480156200001f575f80fd5b50604051620025b2380380620025b28339810160408190526200004291620004d4565b6200004d336200019a565b60018055601980546001600160a01b03199081163317909155600280546001600160a01b0389169216821790556040805163313ce56760e01b8152905163313ce567916004808201926020929091908290030181865afa158015620000b4573d5f803e3d5ffd5b505050506040513d601f19601f82011682018060405250810190620000da9190620005ca565b60ff16600355601280546001600160a01b0319166001600160a01b0384161790558451600555602085015160065560408501516007556060850151600855608085015160095560a0850151600a5560c0850151600b556200013b84620001e9565b8251600f80546001600160a01b039283166001600160a01b0319918216179091556020850151601080549184169183169190911790556040850151601180549190931691161790556200018e81620002e2565b50505050505062000747565b5f80546001600160a01b038381166001600160a01b0319831681178455604051919092169283917f8be0079c531659141344cd1fd0a4f28419497f9722a3daafe3b4186f6b6457e09190a35050565b60208101518151106200025e5760405162461bcd60e51b815260206004820152603260248201527f53746172742074696d657374616d70206d757374206265206c6573732074686160448201527106e2066696e6973682074696d657374616d760741b60648201526084015b60405180910390fd5b42816020015111620002cc5760405162461bcd60e51b815260206004820152603060248201527f46696e6973682074696d657374616d70206d757374206265206d6f726520746860448201526f616e2063757272656e7420626c6f636b60801b606482015260840162000255565b8051600c556020810151600d5560400151600e55565b6004620002f082826200067f565b5050565b6001600160a01b038116811462000309575f80fd5b50565b634e487b7160e01b5f52604160045260245ffd5b604051606081016001600160401b03811182821017156200034557620003456200030c565b60405290565b60405160e081016001600160401b03811182821017156200034557620003456200030c565b604051601f8201601f191681016001600160401b03811182821017156200039b576200039b6200030c565b604052919050565b5f60608284031215620003b4575f80fd5b620003be62000320565b905081518152602082015160208201526040820151604082015292915050565b8051620003eb81620002f4565b919050565b5f6060828403121562000401575f80fd5b6200040b62000320565b905081516200041a81620002f4565b815260208201516200042c81620002f4565b602082015260408201516200044181620002f4565b604082015292915050565b5f82601f8301126200045c575f80fd5b81516001600160401b038111156200047857620004786200030c565b60206200048e601f8301601f1916820162000370565b8281528582848701011115620004a2575f80fd5b5f5b83811015620004c1578581018301518282018401528201620004a4565b505f928101909101919091529392505050565b5f805f805f80868803610200811215620004ec575f80fd5b8751620004f981620002f4565b965060e0601f19820112156200050d575f80fd5b50620005186200034b565b6020880151815260408801516020820152606088015160408201526080880151606082015260a0880151608082015260c088015160a082015260e088015160c0820152809550506200056f886101008901620003a3565b935062000581886101608901620003f0565b9250620005926101c08801620003de565b6101e08801519092506001600160401b03811115620005af575f80fd5b620005bd89828a016200044c565b9150509295509295509295565b5f60208284031215620005db575f80fd5b815160ff81168114620005ec575f80fd5b9392505050565b600181811c908216806200060857607f821691505b6020821081036200062757634e487b7160e01b5f52602260045260245ffd5b50919050565b601f8211156200067a575f81815260208120601f850160051c81016020861015620006555750805b601f850160051c820191505b81811015620006765782815560010162000661565b5050505b505050565b81516001600160401b038111156200069b576200069b6200030c565b620006b381620006ac8454620005f3565b846200062d565b602080601f831160018114620006e9575f8415620006d15750858301515b5f19600386901b1c1916600185901b17855562000676565b5f85815260208120601f198616915b828110156200071957888601518255948401946001909101908401620006f8565b50858210156200073757878501515f19600388901b60f8161c191681555b5050505050600190811b01905550565b611e5d80620007555f395ff3fe608060405260043610610195575f3560e01c806371007509116100e7578063d8d2a56d11610087578063f2fde38b11610062578063f2fde38b146104a6578063f7c618c1146104c5578063f84b903e146104e4578063fd46a1711461050d575f80fd5b8063d8d2a56d14610429578063ddeae0331461047f578063e086e5ec1461049e575f80fd5b80638da5cb5b116100c25780638da5cb5b146103c5578063c45a0155146103e1578063c6a0e27d14610400578063cb2ef6f714610414575f80fd5b8063710075091461037e578063715018a614610392578063747daec5146103a6575f80fd5b80633f138d4b116101525780634e71d92d1161012d5780634e71d92d1461032d578063586360ce14610341578063590e1ae31461035657806362bea93f1461036a575f80fd5b80633f138d4b146102db578063491447a8146102fa5780634b1a4c0c14610318575f80fd5b806312d3675e146101995780631959a002146102015780631b9265b8146102565780632a123b16146102605780632dcc8c6614610297578063313ce567146102b8575b5f80fd5b3480156101a4575f80fd5b50600554600654600754600854600954600a54600b546101c79695949392919087565b604080519788526020880196909652948601939093526060850191909152608084015260a083015260c082015260e0015b60405180910390f35b34801561020c575f80fd5b5061023b61021b3660046117de565b60176020525f908152604090208054600182015460029092015490919083565b604080519384526020840192909252908201526060016101f8565b61025e610522565b005b34801561026b575f80fd5b5060125461027f906001600160a01b031681565b6040516001600160a01b0390911681526020016101f8565b3480156102a2575f80fd5b506102ab610789565b6040516101f8919061184d565b3480156102c3575f80fd5b506102cd60035481565b6040519081526020016101f8565b3480156102e6575f80fd5b5061025e6102f536600461185f565b610815565b348015610305575f80fd5b50600c54600d54600e5461023b92919083565b348015610323575f80fd5b506102cd60145481565b348015610338575f80fd5b5061025e61084f565b34801561034c575f80fd5b506102cd60155481565b348015610361575f80fd5b5061025e61085a565b348015610375575f80fd5b506102cd6109a8565b348015610389575f80fd5b5061025e610a3f565b34801561039d575f80fd5b5061025e610b9c565b3480156103b1575f80fd5b5061025e6103c03660046118f5565b610bad565b3480156103d0575f80fd5b505f546001600160a01b031661027f565b3480156103ec575f80fd5b5060195461027f906001600160a01b031681565b34801561040b575f80fd5b5061025e610bb9565b34801561041f575f80fd5b506102cd60185481565b348015610434575f80fd5b50600f54601054601154610455926001600160a01b03908116928116911683565b604080516001600160a01b03948516815292841660208401529216918101919091526060016101f8565b34801561048a575f80fd5b5061025e6104993660046117de565b610c85565b61025e610c8e565b3480156104b1575f80fd5b5061025e6104c03660046117de565b611238565b3480156104d0575f80fd5b5060025461027f906001600160a01b031681565b3480156104ef575f80fd5b506016546104fd9060ff1681565b60405190151581526020016101f8565b348015610518575f80fd5b506102cd60135481565b600c544210156105675760405162461bcd60e51b815260206004820152600b60248201526a139bdd081cdd185c9d195960aa1b60448201526064015b60405180910390fd5b600d5442106105a05760405162461bcd60e51b8152602060048201526005602482015264115b99195960da1b604482015260640161055e565b6008543410156105e95760405162461bcd60e51b815260206004820152601460248201527313195cdcc81d1a195b881b5a5b88185b5bdd5b9d60621b604482015260640161055e565b6009543411156106325760405162461bcd60e51b8152602060048201526014602482015273135bdc99481d1a195b881b585e08185b5bdd5b9d60621b604482015260640161055e565b60075460135461064290346112ae565b111561067d5760405162461bcd60e51b815260206004820152600a60248201526913dd995c999a5b1b195960b21b604482015260640161055e565b335f908152601760205260409020600954600282015461069d90346112ae565b11156106e25760405162461bcd60e51b8152602060048201526014602482015273135bdc99481d1a195b881b585e08185b5bdd5b9d60621b604482015260640161055e565b5f6106f13460055f01546112c2565b60135490915061070190346112ae565b60135560145461071190826112ae565b601455600282015461072390346112ae565b6002830155600182015461073790826112ae565b6001830155815461074890826112ae565b8255604080513481526020810183905233917fb55d4ca2fc644ca3f8cdc9c907826e24acd68d2b2d4d73f48b8f2378dbaedf5d910160405180910390a25050565b600480546107969061196f565b80601f01602080910402602001604051908101604052809291908181526020018280546107c29061196f565b801561080d5780601f106107e45761010080835404028352916020019161080d565b820191905f5260205f20905b8154815290600101906020018083116107f057829003601f168201915b505050505081565b61081d6112e6565b6002546001600160a01b0390811690831603610837575f80fd5b61084b6001600160a01b038316338361133f565b5050565b61085833611391565b565b600d54421161087b5760405162461bcd60e51b815260040161055e906119a7565b600654601354106108ce5760405162461bcd60e51b815260206004820181905260248201527f5468652049444f20706f6f6c2068617320726561636820736f6674206361702e604482015260640161055e565b335f90815260176020526040902060028101548061092e5760405162461bcd60e51b815260206004820152601760248201527f596f752068617665206e6f20696e766573746d656e742e000000000000000000604482015260640161055e565b5f8083556002830181905560018301819055604051339083908381818185875af1925050503d805f811461097d576040519150601f19603f3d011682016040523d82523d5f602084013e610982565b606091505b50509050806109a35760405162461bcd60e51b815260040161055e906119de565b505050565b6002546040516370a0823160e01b81523060048201525f9182916001600160a01b03909116906370a0823190602401602060405180830381865afa1580156109f2573d5f803e3d5ffd5b505050506040513d601f19601f82011682018060405250810190610a169190611a08565b9050610a39601454610a33601554846112ae90919063ffffffff16565b906114bc565b91505090565b610a476112e6565b600d544211610a685760405162461bcd60e51b815260040161055e906119a7565b60065460135410610abb5760405162461bcd60e51b815260206004820181905260248201527f5468652049444f20706f6f6c2068617320726561636820736f6674206361702e604482015260640161055e565b6002546040516370a0823160e01b81523060048201525f916001600160a01b0316906370a0823190602401602060405180830381865afa158015610b01573d5f803e3d5ffd5b505050506040513d601f19601f82011682018060405250810190610b259190611a08565b90505f8111610b825760405162461bcd60e51b815260206004820152602360248201527f5468652049444f20706f6f6c20686173206e6f7420726566756e6420746f6b6560448201526237399760e91b606482015260840161055e565b600254610b99906001600160a01b0316338361133f565b50565b610ba46112e6565b6108585f6114c7565b600461084b8282611a6c565b610bc16112e6565b60165460ff16610c1f5760405162461bcd60e51b815260206004820152602360248201527f576974686472617720616c6c6f7765642061667465722064697374726962757460448201526232b21760e91b606482015260840161055e565b5f610c286109a8565b90505f8111610b825760405162461bcd60e51b815260206004820152602360248201527f5468652049444f20706f6f6c20686173206e6f7420756e736f6c6420746f6b6560448201526237399760e91b606482015260840161055e565b610b9981611391565b610c966112e6565b600d544211610cb75760405162461bcd60e51b815260040161055e906119a7565b6006546013541015610cdb5760405162461bcd60e51b815260040161055e90611b28565b60165460ff1615610d255760405162461bcd60e51b815260206004820152601460248201527320b63932b0b23c903234b9ba3934b13aba32b21760611b604482015260640161055e565b600b54479015801590610d395750600a5415155b156111c157610d483482611b80565b90505f606460056006015483610d5e9190611b93565b610d689190611baa565b90505f610d758284611b80565b90505f610d868360058001546112c2565b600f5460025460405163095ea7b360e01b81526001600160a01b03928316600482018190526024820185905293945091169063095ea7b3906044016020604051808303815f875af1158015610ddd573d5f803e3d5ffd5b505050506040513d601f19601f82011682018060405250810190610e019190611bc9565b506002545f906001600160a01b038084169163f305d7199188911686858030610e2c42610168611be8565b60405160e089901b6001600160e01b03191681526001600160a01b039687166004820152602481019590955260448501939093526064840191909152909216608482015260a481019190915260c40160606040518083038185885af1158015610e97573d5f803e3d5ffd5b50505050506040513d601f19601f82011682018060405250810190610ebc9190611bfb565b60105460025460115460405163e6a4390560e01b81526001600160a01b03928316600482015290821660248201529295505f945016915063e6a4390590604401602060405180830381865afa158015610f17573d5f803e3d5ffd5b505050506040513d601f19601f82011682018060405250810190610f3b9190611c26565b600e5490915081904210156110d35760125460405163095ea7b360e01b81526001600160a01b039182166004820152602481018590529082169063095ea7b3906044016020604051808303815f875af1158015610f9a573d5f803e3d5ffd5b505050506040513d601f19601f82011682018060405250810190610fbe9190611bc9565b5060125f9054906101000a90046001600160a01b03166001600160a01b03166303f3dbac3483846001600160a01b03166395d89b416040518163ffffffff1660e01b81526004015f60405180830381865afa15801561101f573d5f803e3d5ffd5b505050506040513d5f823e601f3d908101601f191682016040526110469190810190611c41565b6040516020016110569190611cb3565b60408051601f1981840301815290829052600e546001600160e01b031960e087901b16835261108c93928a913391600401611ce4565b60206040518083038185885af11580156110a8573d5f803e3d5ffd5b50505050506040513d601f19601f820116820180604052508101906110cd9190611c26565b5061114f565b60405163a9059cbb60e01b8152336004820152602481018490526001600160a01b0382169063a9059cbb906044016020604051808303815f875af115801561111d573d5f803e3d5ffd5b505050506040513d601f19601f820116820180604052508101906111419190611bc9565b5061114c3487611be8565b95505b6040515f90339088908381818185875af1925050503d805f811461118e576040519150601f19603f3d011682016040523d82523d5f602084013e611193565b606091505b50509050806111b45760405162461bcd60e51b815260040161055e906119de565b5050505050505050611228565b6040515f90339083908381818185875af1925050503d805f8114611200576040519150601f19603f3d011682016040523d82523d5f602084013e611205565b606091505b50509050806112265760405162461bcd60e51b815260040161055e906119de565b505b506016805460ff19166001179055565b6112406112e6565b6001600160a01b0381166112a55760405162461bcd60e51b815260206004820152602660248201527f4f776e61626c653a206e6577206f776e657220697320746865207a65726f206160448201526564647265737360d01b606482015260840161055e565b610b99816114c7565b5f6112b98284611be8565b90505b92915050565b5f600354600a6112d29190611e01565b6112dc8385611baa565b6112b99190611b93565b5f546001600160a01b031633146108585760405162461bcd60e51b815260206004820181905260248201527f4f776e61626c653a2063616c6c6572206973206e6f7420746865206f776e6572604482015260640161055e565b604080516001600160a01b038416602482015260448082018490528251808303909101815260649091019091526020810180516001600160e01b031663a9059cbb60e01b1790526109a3908490611516565b6113996115e7565b600d5442116113ba5760405162461bcd60e51b815260040161055e906119a7565b60065460135410156113de5760405162461bcd60e51b815260040161055e90611b28565b6001600160a01b0381165f9081526017602052604090208054806114445760405162461bcd60e51b815260206004820152601c60248201527f596f7520646f206e6f742068617665206465627420746f6b656e732e00000000604482015260640161055e565b5f825560155461145490826112ae565b60155560025461146e906001600160a01b0316848361133f565b826001600160a01b03167f6352c5382c4a4578e712449ca65e83cdb392d045dfcf1cad9615189db2da244b826040516114a991815260200190565b60405180910390a25050610b9960018055565b5f6112b98284611b80565b5f80546001600160a01b038381166001600160a01b0319831681178455604051919092169283917f8be0079c531659141344cd1fd0a4f28419497f9722a3daafe3b4186f6b6457e09190a35050565b5f61156a826040518060400160405280602081526020017f5361666545524332303a206c6f772d6c6576656c2063616c6c206661696c6564815250856001600160a01b03166116409092919063ffffffff16565b8051909150156109a357808060200190518101906115889190611bc9565b6109a35760405162461bcd60e51b815260206004820152602a60248201527f5361666545524332303a204552433230206f7065726174696f6e20646964206e6044820152691bdd081cdd58d8d9595960b21b606482015260840161055e565b6002600154036116395760405162461bcd60e51b815260206004820152601f60248201527f5265656e7472616e637947756172643a207265656e7472616e742063616c6c00604482015260640161055e565b6002600155565b606061164e84845f85611656565b949350505050565b6060824710156116b75760405162461bcd60e51b815260206004820152602660248201527f416464726573733a20696e73756666696369656e742062616c616e636520666f6044820152651c8818d85b1b60d21b606482015260840161055e565b5f80866001600160a01b031685876040516116d29190611e0c565b5f6040518083038185875af1925050503d805f811461170c576040519150601f19603f3d011682016040523d82523d5f602084013e611711565b606091505b50915091506117228783838761172d565b979650505050505050565b6060831561179b5782515f03611794576001600160a01b0385163b6117945760405162461bcd60e51b815260206004820152601d60248201527f416464726573733a2063616c6c20746f206e6f6e2d636f6e7472616374000000604482015260640161055e565b508161164e565b61164e83838151156117b05781518083602001fd5b8060405162461bcd60e51b815260040161055e919061184d565b6001600160a01b0381168114610b99575f80fd5b5f602082840312156117ee575f80fd5b81356117f9816117ca565b9392505050565b5f5b8381101561181a578181015183820152602001611802565b50505f910152565b5f8151808452611839816020860160208601611800565b601f01601f19169290920160200192915050565b602081525f6112b96020830184611822565b5f8060408385031215611870575f80fd5b823561187b816117ca565b946020939093013593505050565b634e487b7160e01b5f52604160045260245ffd5b604051601f8201601f1916810167ffffffffffffffff811182821017156118c6576118c6611889565b604052919050565b5f67ffffffffffffffff8211156118e7576118e7611889565b50601f01601f191660200190565b5f60208284031215611905575f80fd5b813567ffffffffffffffff81111561191b575f80fd5b8201601f8101841361192b575f80fd5b803561193e611939826118ce565b61189d565b818152856020838501011115611952575f80fd5b816020840160208301375f91810160200191909152949350505050565b600181811c9082168061198357607f821691505b6020821081036119a157634e487b7160e01b5f52602260045260245ffd5b50919050565b6020808252601b908201527f5468652049444f20706f6f6c20686173206e6f7420656e6465642e0000000000604082015260600190565b60208082526010908201526f2a3930b739b332b9103330b4b632b21760811b604082015260600190565b5f60208284031215611a18575f80fd5b5051919050565b601f8211156109a3575f81815260208120601f850160051c81016020861015611a455750805b601f850160051c820191505b81811015611a6457828155600101611a51565b505050505050565b815167ffffffffffffffff811115611a8657611a86611889565b611a9a81611a94845461196f565b84611a1f565b602080601f831160018114611acd575f8415611ab65750858301515b5f19600386901b1c1916600185901b178555611a64565b5f85815260208120601f198616915b82811015611afb57888601518255948401946001909101908401611adc565b5085821015611b1857878501515f19600388901b60f8161c191681555b5050505050600190811b01905550565b60208082526024908201527f5468652049444f20706f6f6c20646964206e6f7420726561636820736f66742060408201526331b0b81760e11b606082015260800190565b634e487b7160e01b5f52601160045260245ffd5b818103818111156112bc576112bc611b6c565b80820281158282048414176112bc576112bc611b6c565b5f82611bc457634e487b7160e01b5f52601260045260245ffd5b500490565b5f60208284031215611bd9575f80fd5b815180151581146117f9575f80fd5b808201808211156112bc576112bc611b6c565b5f805f60608486031215611c0d575f80fd5b8351925060208401519150604084015190509250925092565b5f60208284031215611c36575f80fd5b81516117f9816117ca565b5f60208284031215611c51575f80fd5b815167ffffffffffffffff811115611c67575f80fd5b8201601f81018413611c77575f80fd5b8051611c85611939826118ce565b818152856020838501011115611c99575f80fd5b611caa826020830160208601611800565b95945050505050565b5f8251611cc4818460208701611800565b6d103a37b5b2b739903637b1b5b2b960911b920191825250600e01919050565b5f60018060a01b03808816835260a06020840152611d0560a0840188611822565b6040840196909652939093166060820152608001525092915050565b600181815b80851115611d5b57815f1904821115611d4157611d41611b6c565b80851615611d4e57918102915b93841c9390800290611d26565b509250929050565b5f82611d71575060016112bc565b81611d7d57505f6112bc565b8160018114611d935760028114611d9d57611db9565b60019150506112bc565b60ff841115611dae57611dae611b6c565b50506001821b6112bc565b5060208310610133831016604e8410600b8410161715611ddc575081810a6112bc565b611de68383611d21565b805f1904821115611df957611df9611b6c565b029392505050565b5f6112b98383611d63565b5f8251611e1d818460208701611800565b919091019291505056fea264697066735822122033239df68c5cc609318fd27d1974742f40c227beb2f13a31acce71e6a64edfce64736f6c6343000814003360806040526014805462ffffff1916610100179055600260165534801562000025575f80fd5b50604051620020083803806200200883398101604081905262000048916200048a565b6200005333620001bd565b60018055601780546001600160a01b03199081163317909155600280546001600160a01b0388169216821790556040805163313ce56760e01b8152905163313ce567916004808201926020929091908290030181865afa158015620000ba573d5f803e3d5ffd5b505050506040513d601f19601f82011682018060405250810190620000e091906200056b565b60ff16600355600480546001600160a01b0319166001600160a01b03861690811782556040805163313ce56760e01b81529051919263313ce5679282820192602092908290030181865afa1580156200013b573d5f803e3d5ffd5b505050506040513d601f19601f820116820180604052508101906200016191906200056b565b60ff166005558251600755602083015160085560408301516009556060830151600a556080830151600b5560a0830151600c5560c0830151600d55620001a7826200020c565b620001b28162000305565b5050505050620006e8565b5f80546001600160a01b038381166001600160a01b0319831681178455604051919092169283917f8be0079c531659141344cd1fd0a4f28419497f9722a3daafe3b4186f6b6457e09190a35050565b6020810151815110620002815760405162461bcd60e51b815260206004820152603260248201527f53746172742074696d657374616d70206d757374206265206c6573732074686160448201527106e2066696e6973682074696d657374616d760741b60648201526084015b60405180910390fd5b42816020015111620002ef5760405162461bcd60e51b815260206004820152603060248201527f46696e6973682074696d657374616d70206d757374206265206d6f726520746860448201526f616e2063757272656e7420626c6f636b60801b606482015260840162000278565b8051600e556020810151600f5560400151601055565b600662000313828262000620565b5050565b80516001600160a01b03811681146200032e575f80fd5b919050565b634e487b7160e01b5f52604160045260245ffd5b60405160e081016001600160401b03811182821017156200036c576200036c62000333565b60405290565b604051601f8201601f191681016001600160401b03811182821017156200039d576200039d62000333565b604052919050565b5f60608284031215620003b6575f80fd5b604051606081016001600160401b0381118282101715620003db57620003db62000333565b80604052508091508251815260208301516020820152604083015160408201525092915050565b5f82601f83011262000412575f80fd5b81516001600160401b038111156200042e576200042e62000333565b602062000444601f8301601f1916820162000372565b828152858284870101111562000458575f80fd5b5f5b83811015620004775785810183015182820184015282016200045a565b505f928101909101919091529392505050565b5f805f805f8587036101a0811215620004a1575f80fd5b620004ac8762000317565b9550620004bc6020880162000317565b945060e0603f1982011215620004d0575f80fd5b50620004db62000347565b60408701518152606087015160208201526080870151604082015260a0870151606082015260c0870151608082015260e087015160a082015261010087015160c08201528093505062000533876101208801620003a5565b6101808701519092506001600160401b0381111562000550575f80fd5b6200055e8882890162000402565b9150509295509295909350565b5f602082840312156200057c575f80fd5b815160ff811681146200058d575f80fd5b9392505050565b600181811c90821680620005a957607f821691505b602082108103620005c857634e487b7160e01b5f52602260045260245ffd5b50919050565b601f8211156200061b575f81815260208120601f850160051c81016020861015620005f65750805b601f850160051c820191505b81811015620006175782815560010162000602565b5050505b505050565b81516001600160401b038111156200063c576200063c62000333565b62000654816200064d845462000594565b84620005ce565b602080601f8311600181146200068a575f8415620006725750858301515b5f19600386901b1c1916600185901b17855562000617565b5f85815260208120601f198616915b82811015620006ba5788860151825594840194600190910190840162000699565b5085821015620006d857878501515f19600388901b60f8161c191681555b5050505050600190811b01905550565b61191280620006f65f395ff3fe608060405234801561000f575f80fd5b50600436106101dc575f3560e01c80636444e37b11610109578063c6a0e27d1161009e578063f2fde38b1161006e578063f2fde38b14610409578063f7c618c11461041c578063f84b903e1461042f578063ffb2d35d1461043c575f80fd5b8063c6a0e27d146103c2578063cb2ef6f7146103ca578063ddeae033146103d3578063eb9db27e146103e6575f80fd5b80638da5cb5b116100d95780638da5cb5b1461036557806396336b3014610389578063c290d6911461039c578063c45a0155146103af575f80fd5b80636444e37b146103395780637100750914610342578063715018a61461034a578063747daec514610352575f80fd5b8063491447a81161017f5780635512f4d61161014f5780635512f4d61461030d578063586360ce14610320578063590e1ae31461032957806362bea93f14610331575f80fd5b8063491447a8146102e15780634b1a4c0c146102f35780634e71d92d146102fc5780635216aeec14610304575f80fd5b8063313ce567116101ba578063313ce5671461029a57806338471dba146102b15780633ccfd60b146102c65780633f138d4b146102ce575f80fd5b806312d3675e146101e05780631959a0021461023c5780632dcc8c6614610285575b5f80fd5b600754600854600954600a54600b54600c54600d546102029695949392919087565b604080519788526020880196909652948601939093526060850191909152608084015260a083015260c082015260e0015b60405180910390f35b61026a61024a3660046113de565b60156020525f908152604090208054600182015460029092015490919083565b60408051938452602084019290925290820152606001610233565b61028d61044e565b6040516102339190611419565b6102a360035481565b604051908152602001610233565b6102c46102bf366004611458565b6104da565b005b6102c46104fc565b6102c46102dc36600461147a565b610656565b600e54600f5460105461026a92919083565b6102a360125481565b6102c4610690565b6102a360115481565b6102c461031b366004611458565b61069b565b6102a360135481565b6102c46106bf565b6102a3610806565b6102a360055481565b6102c461089d565b6102c46109f7565b6102c46103603660046114b6565b610a08565b5f546001600160a01b03165b6040516001600160a01b039091168152602001610233565b600454610371906001600160a01b031681565b6102c46103aa366004611561565b610a14565b601754610371906001600160a01b031681565b6102c4610c8f565b6102a360165481565b6102c46103e13660046113de565b610d8c565b6014546103f99062010000900460ff1681565b6040519015158152602001610233565b6102c46104173660046113de565b610d95565b600254610371906001600160a01b031681565b6014546103f99060ff1681565b6014546103f990610100900460ff1681565b6006805461045b90611578565b80601f016020809104026020016040519081016040528092919081815260200182805461048790611578565b80156104d25780601f106104a9576101008083540402835291602001916104d2565b820191905f5260205f20905b8154815290600101906020018083116104b557829003601f168201915b505050505081565b6104e2610e0b565b601480549115156101000261ff0019909216919091179055565b610504610e0b565b60145462010000900460ff166105ac57600f54421161053e5760405162461bcd60e51b8152600401610535906115b0565b60405180910390fd5b60085460115410156105625760405162461bcd60e51b8152600401610535906115e7565b60145460ff16156105ac5760405162461bcd60e51b815260206004820152601460248201527320b63932b0b23c903234b9ba3934b13aba32b21760611b6044820152606401610535565b600480546040516370a0823160e01b815230928101929092525f916001600160a01b03909116906370a0823190602401602060405180830381865afa1580156105f7573d5f803e3d5ffd5b505050506040513d601f19601f8201168201806040525081019061061b919061162b565b600454909150610635906001600160a01b03163383610e64565b60145462010000900460ff16610653576014805460ff191660011790555b50565b61065e610e0b565b6002546001600160a01b0390811690831603610678575f80fd5b61068c6001600160a01b0383163383610e64565b5050565b61069933610ecc565b565b6106a3610e0b565b60148054911515620100000262ff000019909216919091179055565b601454610100900460ff1661070b5760405162461bcd60e51b81526020600482015260126024820152711499599d5b99081b9bdd08195b98589b195960721b6044820152606401610535565b600f54421161072c5760405162461bcd60e51b8152600401610535906115b0565b6008546011541061077f5760405162461bcd60e51b815260206004820181905260248201527f5468652049444f20706f6f6c2068617320726561636820736f6674206361702e6044820152606401610535565b335f9081526015602052604090206002810154806107df5760405162461bcd60e51b815260206004820152601760248201527f596f752068617665206e6f20696e766573746d656e742e0000000000000000006044820152606401610535565b5f80835560028301819055600183015560045461068c906001600160a01b03163383610e64565b6002546040516370a0823160e01b81523060048201525f9182916001600160a01b03909116906370a0823190602401602060405180830381865afa158015610850573d5f803e3d5ffd5b505050506040513d601f19601f82011682018060405250810190610874919061162b565b90506108976012546108916013548461100790919063ffffffff16565b9061101b565b91505090565b6108a5610e0b565b600f5442116108c65760405162461bcd60e51b8152600401610535906115b0565b600854601154106109195760405162461bcd60e51b815260206004820181905260248201527f5468652049444f20706f6f6c2068617320726561636820736f6674206361702e6044820152606401610535565b6002546040516370a0823160e01b81523060048201525f916001600160a01b0316906370a0823190602401602060405180830381865afa15801561095f573d5f803e3d5ffd5b505050506040513d601f19601f82011682018060405250810190610983919061162b565b90505f81116109e05760405162461bcd60e51b815260206004820152602360248201527f5468652049444f20706f6f6c20686173206e6f7420726566756e6420746f6b6560448201526237399760e91b6064820152608401610535565b600254610653906001600160a01b03163383610e64565b6109ff610e0b565b6106995f611026565b600661068c828261168f565b600e54421015610a545760405162461bcd60e51b815260206004820152600b60248201526a139bdd081cdd185c9d195960aa1b6044820152606401610535565b600f544210610a8d5760405162461bcd60e51b8152602060048201526005602482015264115b99195960da1b6044820152606401610535565b600a54811015610ad65760405162461bcd60e51b815260206004820152601460248201527313195cdcc81d1a195b881b5a5b88185b5bdd5b9d60621b6044820152606401610535565b600b54811115610b1f5760405162461bcd60e51b8152602060048201526014602482015273135bdc99481d1a195b881b585e08185b5bdd5b9d60621b6044820152606401610535565b600954601154610b2f9083611007565b1115610b6a5760405162461bcd60e51b815260206004820152600a60248201526913dd995c999a5b1b195960b21b6044820152606401610535565b335f908152601560205260409020600b546002820154610b8a9084611007565b1115610bcf5760405162461bcd60e51b8152602060048201526014602482015273135bdc99481d1a195b881b585e08185b5bdd5b9d60621b6044820152606401610535565b5f610bde8360075f0154611075565b600454909150610bf9906001600160a01b03163330866110d1565b601154610c069084611007565b601155601254610c169082611007565b6012556002820154610c289084611007565b60028301556001820154610c3c9082611007565b60018301558154610c4d9082611007565b8255604080518481526020810183905233917fb55d4ca2fc644ca3f8cdc9c907826e24acd68d2b2d4d73f48b8f2378dbaedf5d910160405180910390a2505050565b610c97610e0b565b600f544211610cb85760405162461bcd60e51b8152600401610535906115b0565b60145462010000900460ff16610d265760145460ff16610d265760405162461bcd60e51b815260206004820152602360248201527f576974686472617720616c6c6f7765642061667465722064697374726962757460448201526232b21760e91b6064820152608401610535565b5f610d2f610806565b90505f81116109e05760405162461bcd60e51b815260206004820152602360248201527f5468652049444f20706f6f6c20686173206e6f7420756e736f6c6420746f6b6560448201526237399760e91b6064820152608401610535565b61065381610ecc565b610d9d610e0b565b6001600160a01b038116610e025760405162461bcd60e51b815260206004820152602660248201527f4f776e61626c653a206e6577206f776e657220697320746865207a65726f206160448201526564647265737360d01b6064820152608401610535565b61065381611026565b5f546001600160a01b031633146106995760405162461bcd60e51b815260206004820181905260248201527f4f776e61626c653a2063616c6c6572206973206e6f7420746865206f776e65726044820152606401610535565b6040516001600160a01b038316602482015260448101829052610ec790849063a9059cbb60e01b906064015b60408051601f198184030181529190526020810180516001600160e01b03166001600160e01b03199093169290921790915261110f565b505050565b610ed46111e0565b600f544211610ef55760405162461bcd60e51b8152600401610535906115b0565b60145462010000900460ff16610f29576008546011541015610f295760405162461bcd60e51b8152600401610535906115e7565b6001600160a01b0381165f908152601560205260409020805480610f8f5760405162461bcd60e51b815260206004820152601c60248201527f596f7520646f206e6f742068617665206465627420746f6b656e732e000000006044820152606401610535565b5f8255601354610f9f9082611007565b601355600254610fb9906001600160a01b03168483610e64565b826001600160a01b03167f6352c5382c4a4578e712449ca65e83cdb392d045dfcf1cad9615189db2da244b82604051610ff491815260200190565b60405180910390a2505061065360018055565b5f611012828461175f565b90505b92915050565b5f6110128284611772565b5f80546001600160a01b038381166001600160a01b0319831681178455604051919092169283917f8be0079c531659141344cd1fd0a4f28419497f9722a3daafe3b4186f6b6457e09190a35050565b5f8060055411611086576001611094565b60055461109490600a611865565b835f600354116110a55760016110b3565b6003546110b390600a611865565b6110bd9085611870565b6110c79190611870565b6110129190611887565b6040516001600160a01b03808516602483015283166044820152606481018290526111099085906323b872dd60e01b90608401610e90565b50505050565b5f611163826040518060400160405280602081526020017f5361666545524332303a206c6f772d6c6576656c2063616c6c206661696c6564815250856001600160a01b03166112399092919063ffffffff16565b805190915015610ec7578080602001905181019061118191906118a6565b610ec75760405162461bcd60e51b815260206004820152602a60248201527f5361666545524332303a204552433230206f7065726174696f6e20646964206e6044820152691bdd081cdd58d8d9595960b21b6064820152608401610535565b6002600154036112325760405162461bcd60e51b815260206004820152601f60248201527f5265656e7472616e637947756172643a207265656e7472616e742063616c6c006044820152606401610535565b6002600155565b606061124784845f8561124f565b949350505050565b6060824710156112b05760405162461bcd60e51b815260206004820152602660248201527f416464726573733a20696e73756666696369656e742062616c616e636520666f6044820152651c8818d85b1b60d21b6064820152608401610535565b5f80866001600160a01b031685876040516112cb91906118c1565b5f6040518083038185875af1925050503d805f8114611305576040519150601f19603f3d011682016040523d82523d5f602084013e61130a565b606091505b509150915061131b87838387611326565b979650505050505050565b606083156113945782515f0361138d576001600160a01b0385163b61138d5760405162461bcd60e51b815260206004820152601d60248201527f416464726573733a2063616c6c20746f206e6f6e2d636f6e74726163740000006044820152606401610535565b5081611247565b61124783838151156113a95781518083602001fd5b8060405162461bcd60e51b81526004016105359190611419565b80356001600160a01b03811681146113d9575f80fd5b919050565b5f602082840312156113ee575f80fd5b611012826113c3565b5f5b838110156114115781810151838201526020016113f9565b50505f910152565b602081525f82518060208401526114378160408501602087016113f7565b601f01601f19169190910160400192915050565b8015158114610653575f80fd5b5f60208284031215611468575f80fd5b81356114738161144b565b9392505050565b5f806040838503121561148b575f80fd5b611494836113c3565b946020939093013593505050565b634e487b7160e01b5f52604160045260245ffd5b5f602082840312156114c6575f80fd5b813567ffffffffffffffff808211156114dd575f80fd5b818401915084601f8301126114f0575f80fd5b813581811115611502576115026114a2565b604051601f8201601f19908116603f0116810190838211818310171561152a5761152a6114a2565b81604052828152876020848701011115611542575f80fd5b826020860160208301375f928101602001929092525095945050505050565b5f60208284031215611571575f80fd5b5035919050565b600181811c9082168061158c57607f821691505b6020821081036115aa57634e487b7160e01b5f52602260045260245ffd5b50919050565b6020808252601b908201527f5468652049444f20706f6f6c20686173206e6f7420656e6465642e0000000000604082015260600190565b60208082526024908201527f5468652049444f20706f6f6c20646964206e6f7420726561636820736f66742060408201526331b0b81760e11b606082015260800190565b5f6020828403121561163b575f80fd5b5051919050565b601f821115610ec7575f81815260208120601f850160051c810160208610156116685750805b601f850160051c820191505b8181101561168757828155600101611674565b505050505050565b815167ffffffffffffffff8111156116a9576116a96114a2565b6116bd816116b78454611578565b84611642565b602080601f8311600181146116f0575f84156116d95750858301515b5f19600386901b1c1916600185901b178555611687565b5f85815260208120601f198616915b8281101561171e578886015182559484019460019091019084016116ff565b508582101561173b57878501515f19600388901b60f8161c191681555b5050505050600190811b01905550565b634e487b7160e01b5f52601160045260245ffd5b808201808211156110155761101561174b565b818103818111156110155761101561174b565b600181815b808511156117bf57815f19048211156117a5576117a561174b565b808516156117b257918102915b93841c939080029061178a565b509250929050565b5f826117d557506001611015565b816117e157505f611015565b81600181146117f757600281146118015761181d565b6001915050611015565b60ff8411156118125761181261174b565b50506001821b611015565b5060208310610133831016604e8410600b8410161715611840575081810a611015565b61184a8383611785565b805f190482111561185d5761185d61174b565b029392505050565b5f61101283836117c7565b80820281158282048414176110155761101561174b565b5f826118a157634e487b7160e01b5f52601260045260245ffd5b500490565b5f602082840312156118b6575f80fd5b81516114738161144b565b5f82516118d28184602087016113f7565b919091019291505056fea26469706673582212206922f8379ed8e22a8e274012c1bad8ea7588f76d75255aa387fbb3391da138ff64736f6c63430008140033a264697066735822122072a976dbf45129272939564f7d3cc6c8d8f4108bcb1befd16e2c980380ceb12a64736f6c63430008140033",
			"opcodes": "PUSH1 0x80 PUSH1 0x40 MSTORE PUSH1 0x3 PUSH1 0x1 SSTORE PUSH1 0x7 DUP1 SLOAD PUSH1 0xFF NOT AND SWAP1 SSTORE CALLVALUE DUP1 ISZERO PUSH2 0x1E JUMPI PUSH0 DUP1 REVERT JUMPDEST POP PUSH1 0x40 MLOAD PUSH3 0x606A CODESIZE SUB DUP1 PUSH3 0x606A DUP4 CODECOPY DUP2 ADD PUSH1 0x40 DUP2 SWAP1 MSTORE PUSH2 0x3F SWAP2 PUSH2 0xC8 JUMP JUMPDEST PUSH2 0x48 CALLER PUSH2 0x79 JUMP JUMPDEST PUSH1 0x2 DUP1 SLOAD PUSH1 0x1 PUSH1 0x1 PUSH1 0xA0 SHL SUB NOT AND PUSH1 0x1 PUSH1 0x1 PUSH1 0xA0 SHL SUB SWAP5 SWAP1 SWAP5 AND SWAP4 SWAP1 SWAP4 OR SWAP1 SWAP3 SSTORE PUSH1 0x4 SSTORE PUSH1 0x5 SSTORE PUSH1 0x64 PUSH1 0x6 SSTORE PUSH2 0x107 JUMP JUMPDEST PUSH0 DUP1 SLOAD PUSH1 0x1 PUSH1 0x1 PUSH1 0xA0 SHL SUB DUP4 DUP2 AND PUSH1 0x1 PUSH1 0x1 PUSH1 0xA0 SHL SUB NOT DUP4 AND DUP2 OR DUP5 SSTORE PUSH1 0x40 MLOAD SWAP2 SWAP1 SWAP3 AND SWAP3 DUP4 SWAP2 PUSH32 0x8BE0079C531659141344CD1FD0A4F28419497F9722A3DAAFE3B4186F6B6457E0 SWAP2 SWAP1 LOG3 POP POP JUMP JUMPDEST PUSH0 DUP1 PUSH0 PUSH1 0x60 DUP5 DUP7 SUB SLT ISZERO PUSH2 0xDA JUMPI PUSH0 DUP1 REVERT JUMPDEST DUP4 MLOAD PUSH1 0x1 PUSH1 0x1 PUSH1 0xA0 SHL SUB DUP2 AND DUP2 EQ PUSH2 0xF0 JUMPI PUSH0 DUP1 REVERT JUMPDEST PUSH1 0x20 DUP6 ADD MLOAD PUSH1 0x40 SWAP1 SWAP6 ADD MLOAD SWAP1 SWAP7 SWAP5 SWAP6 POP SWAP4 SWAP3 POP POP POP JUMP JUMPDEST PUSH2 0x5F55 DUP1 PUSH3 0x115 PUSH0 CODECOPY PUSH0 RETURN INVALID PUSH1 0x80 PUSH1 0x40 MSTORE CALLVALUE DUP1 ISZERO PUSH3 0x10 JUMPI PUSH0 DUP1 REVERT JUMPDEST POP PUSH1 0x4 CALLDATASIZE LT PUSH3 0x140 JUMPI PUSH0 CALLDATALOAD PUSH1 0xE0 SHR DUP1 PUSH4 0x6B392680 GT PUSH3 0xB7 JUMPI DUP1 PUSH4 0x8DC12991 GT PUSH3 0x77 JUMPI DUP1 PUSH4 0x8DC12991 EQ PUSH3 0x28B JUMPI DUP1 PUSH4 0x90D49B9D EQ PUSH3 0x2A2 JUMPI DUP1 PUSH4 0x92402AA2 EQ PUSH3 0x2B9 JUMPI DUP1 PUSH4 0xF25F4B56 EQ PUSH3 0x2D0 JUMPI DUP1 PUSH4 0xF2FDE38B EQ PUSH3 0x2E4 JUMPI PUSH0 DUP1 REVERT JUMPDEST DUP1 PUSH4 0x6B392680 EQ PUSH3 0x223 JUMPI DUP1 PUSH4 0x6E42366B EQ PUSH3 0x23A JUMPI DUP1 PUSH4 0x7104C9FD EQ PUSH3 0x259 JUMPI DUP1 PUSH4 0x715018A6 EQ PUSH3 0x270 JUMPI DUP1 PUSH4 0x8DA5CB5B EQ PUSH3 0x27A JUMPI PUSH0 DUP1 REVERT JUMPDEST DUP1 PUSH4 0x542CE0BC GT PUSH3 0x103 JUMPI DUP1 PUSH4 0x542CE0BC EQ PUSH3 0x1B2 JUMPI DUP1 PUSH4 0x54FD4D50 EQ PUSH3 0x1C9 JUMPI DUP1 PUSH4 0x647846A5 EQ PUSH3 0x1D3 JUMPI DUP1 PUSH4 0x69E15404 EQ PUSH3 0x200 JUMPI DUP1 PUSH4 0x6A1860E2 EQ PUSH3 0x20A JUMPI PUSH0 DUP1 REVERT JUMPDEST DUP1 PUSH4 0x3807EE5 EQ PUSH3 0x144 JUMPI DUP1 PUSH4 0x103A9981 EQ PUSH3 0x161 JUMPI DUP1 PUSH4 0x15CCE224 EQ PUSH3 0x17A JUMPI DUP1 PUSH4 0x37491A91 EQ PUSH3 0x191 JUMPI DUP1 PUSH4 0x378EFA37 EQ PUSH3 0x1A8 JUMPI JUMPDEST PUSH0 DUP1 REVERT JUMPDEST PUSH3 0x14E PUSH1 0x5 SLOAD DUP2 JUMP JUMPDEST PUSH1 0x40 MLOAD SWAP1 DUP2 MSTORE PUSH1 0x20 ADD JUMPDEST PUSH1 0x40 MLOAD DUP1 SWAP2 SUB SWAP1 RETURN JUMPDEST PUSH3 0x178 PUSH3 0x172 CALLDATASIZE PUSH1 0x4 PUSH3 0x10BD JUMP JUMPDEST PUSH3 0x2FB JUMP JUMPDEST STOP JUMPDEST PUSH3 0x178 PUSH3 0x18B CALLDATASIZE PUSH1 0x4 PUSH3 0x1109 JUMP JUMPDEST PUSH3 0x318 JUMP JUMPDEST PUSH3 0x178 PUSH3 0x1A2 CALLDATASIZE PUSH1 0x4 PUSH3 0x12CF JUMP JUMPDEST PUSH3 0x3D1 JUMP JUMPDEST PUSH3 0x14E PUSH1 0x6 SLOAD DUP2 JUMP JUMPDEST PUSH3 0x178 PUSH3 0x1C3 CALLDATASIZE PUSH1 0x4 PUSH3 0x13BF JUMP JUMPDEST PUSH3 0x632 JUMP JUMPDEST PUSH3 0x14E PUSH1 0x1 SLOAD DUP2 JUMP JUMPDEST PUSH1 0x2 SLOAD PUSH3 0x1E7 SWAP1 PUSH1 0x1 PUSH1 0x1 PUSH1 0xA0 SHL SUB AND DUP2 JUMP JUMPDEST PUSH1 0x40 MLOAD PUSH1 0x1 PUSH1 0x1 PUSH1 0xA0 SHL SUB SWAP1 SWAP2 AND DUP2 MSTORE PUSH1 0x20 ADD PUSH3 0x158 JUMP JUMPDEST PUSH3 0x14E PUSH1 0x4 SLOAD DUP2 JUMP JUMPDEST PUSH3 0x214 PUSH3 0x655 JUMP JUMPDEST PUSH1 0x40 MLOAD PUSH3 0x158 SWAP2 SWAP1 PUSH3 0x1479 JUMP JUMPDEST PUSH3 0x178 PUSH3 0x234 CALLDATASIZE PUSH1 0x4 PUSH3 0x14C7 JUMP JUMPDEST PUSH3 0x6B7 JUMP JUMPDEST PUSH1 0x7 SLOAD PUSH3 0x248 SWAP1 PUSH1 0xFF AND DUP2 JUMP JUMPDEST PUSH1 0x40 MLOAD SWAP1 ISZERO ISZERO DUP2 MSTORE PUSH1 0x20 ADD PUSH3 0x158 JUMP JUMPDEST PUSH3 0x1E7 PUSH3 0x26A CALLDATASIZE PUSH1 0x4 PUSH3 0x14C7 JUMP JUMPDEST PUSH3 0x6F7 JUMP JUMPDEST PUSH3 0x178 PUSH3 0x720 JUMP JUMPDEST PUSH0 SLOAD PUSH1 0x1 PUSH1 0x1 PUSH1 0xA0 SHL SUB AND PUSH3 0x1E7 JUMP JUMPDEST PUSH3 0x178 PUSH3 0x29C CALLDATASIZE PUSH1 0x4 PUSH3 0x14DF JUMP JUMPDEST PUSH3 0x737 JUMP JUMPDEST PUSH3 0x178 PUSH3 0x2B3 CALLDATASIZE PUSH1 0x4 PUSH3 0x1109 JUMP JUMPDEST PUSH3 0x7E9 JUMP JUMPDEST PUSH3 0x178 PUSH3 0x2CA CALLDATASIZE PUSH1 0x4 PUSH3 0x1500 JUMP JUMPDEST PUSH3 0x842 JUMP JUMPDEST PUSH1 0x3 SLOAD PUSH3 0x1E7 SWAP1 PUSH1 0x1 PUSH1 0x1 PUSH1 0xA0 SHL SUB AND DUP2 JUMP JUMPDEST PUSH3 0x178 PUSH3 0x2F5 CALLDATASIZE PUSH1 0x4 PUSH3 0x1109 JUMP JUMPDEST PUSH3 0xA77 JUMP JUMPDEST PUSH3 0x305 PUSH3 0xAF6 JUMP JUMPDEST PUSH1 0x7 DUP1 SLOAD PUSH1 0xFF NOT AND SWAP2 ISZERO ISZERO SWAP2 SWAP1 SWAP2 OR SWAP1 SSTORE JUMP JUMPDEST PUSH3 0x322 PUSH3 0xAF6 JUMP JUMPDEST DUP1 EXTCODESIZE PUSH4 0xFFFFFFFF AND PUSH3 0x37C JUMPI PUSH1 0x40 MLOAD PUSH3 0x461BCD PUSH1 0xE5 SHL DUP2 MSTORE PUSH1 0x20 PUSH1 0x4 DUP3 ADD MSTORE PUSH1 0x1A PUSH1 0x24 DUP3 ADD MSTORE PUSH32 0x4E65772061646472657373206973206E6F74206120746F6B656E000000000000 PUSH1 0x44 DUP3 ADD MSTORE PUSH1 0x64 ADD JUMPDEST PUSH1 0x40 MLOAD DUP1 SWAP2 SUB SWAP1 REVERT JUMPDEST PUSH1 0x2 DUP1 SLOAD PUSH1 0x1 PUSH1 0x1 PUSH1 0xA0 SHL SUB NOT AND PUSH1 0x1 PUSH1 0x1 PUSH1 0xA0 SHL SUB DUP4 AND SWAP1 DUP2 OR SWAP1 SWAP2 SSTORE PUSH1 0x40 MLOAD SWAP1 DUP2 MSTORE PUSH32 0x9E892F555B0A5CAC6C8CC33C82EBB9308207BD16DFDCA9D0289B96D7E4186C8A SWAP1 PUSH1 0x20 ADD JUMPDEST PUSH1 0x40 MLOAD DUP1 SWAP2 SUB SWAP1 LOG1 POP JUMP JUMPDEST PUSH1 0x7 SLOAD PUSH1 0xFF AND ISZERO PUSH3 0x4A2 JUMPI ADDRESS PUSH1 0x1 PUSH1 0x1 PUSH1 0xA0 SHL SUB AND PUSH4 0x8DA5CB5B PUSH1 0x40 MLOAD DUP2 PUSH4 0xFFFFFFFF AND PUSH1 0xE0 SHL DUP2 MSTORE PUSH1 0x4 ADD PUSH1 0x20 PUSH1 0x40 MLOAD DUP1 DUP4 SUB DUP2 DUP7 GAS STATICCALL ISZERO DUP1 ISZERO PUSH3 0x41A JUMPI RETURNDATASIZE PUSH0 DUP1 RETURNDATACOPY RETURNDATASIZE PUSH0 REVERT JUMPDEST POP POP POP POP PUSH1 0x40 MLOAD RETURNDATASIZE PUSH1 0x1F NOT PUSH1 0x1F DUP3 ADD AND DUP3 ADD DUP1 PUSH1 0x40 MSTORE POP DUP2 ADD SWAP1 PUSH3 0x440 SWAP2 SWAP1 PUSH3 0x15B0 JUMP JUMPDEST PUSH1 0x1 PUSH1 0x1 PUSH1 0xA0 SHL SUB AND CALLER PUSH1 0x1 PUSH1 0x1 PUSH1 0xA0 SHL SUB AND EQ PUSH3 0x4A2 JUMPI PUSH1 0x40 MLOAD PUSH3 0x461BCD PUSH1 0xE5 SHL DUP2 MSTORE PUSH1 0x20 PUSH1 0x4 DUP3 ADD MSTORE PUSH1 0x1D PUSH1 0x24 DUP3 ADD MSTORE PUSH32 0x4F6E6C79206F776E65722063616E206372656174652049444F506F6F6C000000 PUSH1 0x44 DUP3 ADD MSTORE PUSH1 0x64 ADD PUSH3 0x373 JUMP JUMPDEST PUSH0 DUP7 DUP7 DUP7 DUP7 DUP7 DUP7 PUSH1 0x40 MLOAD PUSH3 0x4B7 SWAP1 PUSH3 0x1015 JUMP JUMPDEST PUSH3 0x4C8 SWAP7 SWAP6 SWAP5 SWAP4 SWAP3 SWAP2 SWAP1 PUSH3 0x1663 JUMP JUMPDEST PUSH1 0x40 MLOAD DUP1 SWAP2 SUB SWAP1 PUSH0 CREATE DUP1 ISZERO DUP1 ISZERO PUSH3 0x4E2 JUMPI RETURNDATASIZE PUSH0 DUP1 RETURNDATACOPY RETURNDATASIZE PUSH0 REVERT JUMPDEST POP PUSH1 0x40 MLOAD PUSH4 0xF2FDE38B PUSH1 0xE0 SHL DUP2 MSTORE CALLER PUSH1 0x4 DUP3 ADD MSTORE SWAP1 SWAP2 POP PUSH1 0x1 PUSH1 0x1 PUSH1 0xA0 SHL SUB DUP3 AND SWAP1 PUSH4 0xF2FDE38B SWAP1 PUSH1 0x24 ADD PUSH0 PUSH1 0x40 MLOAD DUP1 DUP4 SUB DUP2 PUSH0 DUP8 DUP1 EXTCODESIZE ISZERO DUP1 ISZERO PUSH3 0x525 JUMPI PUSH0 DUP1 REVERT JUMPDEST POP GAS CALL ISZERO DUP1 ISZERO PUSH3 0x538 JUMPI RETURNDATASIZE PUSH0 DUP1 RETURNDATACOPY RETURNDATASIZE PUSH0 REVERT JUMPDEST POP POP POP POP PUSH0 DUP8 PUSH1 0x1 PUSH1 0x1 PUSH1 0xA0 SHL SUB AND PUSH4 0x313CE567 PUSH1 0x40 MLOAD DUP2 PUSH4 0xFFFFFFFF AND PUSH1 0xE0 SHL DUP2 MSTORE PUSH1 0x4 ADD PUSH1 0x20 PUSH1 0x40 MLOAD DUP1 DUP4 SUB DUP2 DUP7 GAS STATICCALL ISZERO DUP1 ISZERO PUSH3 0x57A JUMPI RETURNDATASIZE PUSH0 DUP1 RETURNDATACOPY RETURNDATASIZE PUSH0 REVERT JUMPDEST POP POP POP POP PUSH1 0x40 MLOAD RETURNDATASIZE PUSH1 0x1F NOT PUSH1 0x1F DUP3 ADD AND DUP3 ADD DUP1 PUSH1 0x40 MSTORE POP DUP2 ADD SWAP1 PUSH3 0x5A0 SWAP2 SWAP1 PUSH3 0x16F2 JUMP JUMPDEST SWAP1 POP PUSH0 PUSH3 0x5B7 DUP9 PUSH1 0x40 ADD MLOAD DUP10 PUSH0 ADD MLOAD DUP5 PUSH3 0xB51 JUMP JUMPDEST SWAP1 POP PUSH0 DUP9 PUSH1 0xC0 ADD MLOAD GT DUP1 ISZERO PUSH3 0x5D0 JUMPI POP PUSH0 DUP9 PUSH1 0xA0 ADD MLOAD GT JUMPDEST ISZERO PUSH3 0x619 JUMPI PUSH3 0x60A PUSH1 0x64 DUP10 PUSH1 0xC0 ADD MLOAD DUP11 PUSH1 0x40 ADD MLOAD PUSH3 0x5F2 SWAP2 SWAP1 PUSH3 0x1728 JUMP JUMPDEST PUSH3 0x5FE SWAP2 SWAP1 PUSH3 0x1742 JUMP JUMPDEST DUP10 PUSH1 0xA0 ADD MLOAD DUP5 PUSH3 0xB51 JUMP JUMPDEST PUSH3 0x616 SWAP1 DUP3 PUSH3 0x1762 JUMP JUMPDEST SWAP1 POP JUMPDEST PUSH3 0x627 DUP2 DUP11 DUP6 DUP8 PUSH3 0xB7F JUMP JUMPDEST POP POP POP POP POP POP POP POP POP JUMP JUMPDEST PUSH3 0x63C PUSH3 0xAF6 JUMP JUMPDEST DUP1 MLOAD PUSH3 0x651 SWAP1 PUSH1 0x8 SWAP1 PUSH1 0x20 DUP5 ADD SWAP1 PUSH3 0x1023 JUMP JUMPDEST POP POP JUMP JUMPDEST PUSH1 0x60 PUSH1 0x8 DUP1 SLOAD DUP1 PUSH1 0x20 MUL PUSH1 0x20 ADD PUSH1 0x40 MLOAD SWAP1 DUP2 ADD PUSH1 0x40 MSTORE DUP1 SWAP3 SWAP2 SWAP1 DUP2 DUP2 MSTORE PUSH1 0x20 ADD DUP3 DUP1 SLOAD DUP1 ISZERO PUSH3 0x6AD JUMPI PUSH1 0x20 MUL DUP3 ADD SWAP2 SWAP1 PUSH0 MSTORE PUSH1 0x20 PUSH0 KECCAK256 SWAP1 JUMPDEST DUP2 SLOAD PUSH1 0x1 PUSH1 0x1 PUSH1 0xA0 SHL SUB AND DUP2 MSTORE PUSH1 0x1 SWAP1 SWAP2 ADD SWAP1 PUSH1 0x20 ADD DUP1 DUP4 GT PUSH3 0x68E JUMPI JUMPDEST POP POP POP POP POP SWAP1 POP SWAP1 JUMP JUMPDEST PUSH3 0x6C1 PUSH3 0xAF6 JUMP JUMPDEST PUSH1 0x4 DUP2 SWAP1 SSTORE PUSH1 0x40 MLOAD DUP2 DUP2 MSTORE PUSH32 0xBB128CD9921D003AFF00ED910FE24B1655B2BF1F4A2090CC3523F61BDC172316 SWAP1 PUSH1 0x20 ADD PUSH3 0x3C6 JUMP JUMPDEST PUSH1 0x8 DUP2 DUP2 SLOAD DUP2 LT PUSH3 0x707 JUMPI PUSH0 DUP1 REVERT JUMPDEST PUSH0 SWAP2 DUP3 MSTORE PUSH1 0x20 SWAP1 SWAP2 KECCAK256 ADD SLOAD PUSH1 0x1 PUSH1 0x1 PUSH1 0xA0 SHL SUB AND SWAP1 POP DUP2 JUMP JUMPDEST PUSH3 0x72A PUSH3 0xAF6 JUMP JUMPDEST PUSH3 0x735 PUSH0 PUSH3 0xD30 JUMP JUMPDEST JUMP JUMPDEST PUSH3 0x741 PUSH3 0xAF6 JUMP JUMPDEST DUP1 DUP3 GT ISZERO PUSH3 0x7A2 JUMPI PUSH1 0x40 MLOAD PUSH3 0x461BCD PUSH1 0xE5 SHL DUP2 MSTORE PUSH1 0x20 PUSH1 0x4 DUP3 ADD MSTORE PUSH1 0x26 PUSH1 0x24 DUP3 ADD MSTORE PUSH32 0x4275726E2070657263656E74206D757374206265206C657373207468616E2064 PUSH1 0x44 DUP3 ADD MSTORE PUSH6 0x34BB34B232B9 PUSH1 0xD1 SHL PUSH1 0x64 DUP3 ADD MSTORE PUSH1 0x84 ADD PUSH3 0x373 JUMP JUMPDEST PUSH1 0x5 DUP3 SWAP1 SSTORE PUSH1 0x6 DUP2 SWAP1 SSTORE PUSH1 0x40 DUP1 MLOAD DUP4 DUP2 MSTORE PUSH1 0x20 DUP2 ADD DUP4 SWAP1 MSTORE PUSH32 0xB62D69C6DDF4F4BD443DCA17EA7405D8018EFB872E82E77BB8EF13B5BE2F2E9C SWAP2 ADD PUSH1 0x40 MLOAD DUP1 SWAP2 SUB SWAP1 LOG1 POP POP JUMP JUMPDEST PUSH3 0x7F3 PUSH3 0xAF6 JUMP JUMPDEST PUSH1 0x3 DUP1 SLOAD PUSH1 0x1 PUSH1 0x1 PUSH1 0xA0 SHL SUB NOT AND PUSH1 0x1 PUSH1 0x1 PUSH1 0xA0 SHL SUB DUP4 AND SWAP1 DUP2 OR SWAP1 SWAP2 SSTORE PUSH1 0x40 MLOAD SWAP1 DUP2 MSTORE PUSH32 0x29ACEE77DAFCFA0143D74A7EA236018F3A6E1FA71E27FC59BBFBC6B8CA8EDCCD SWAP1 PUSH1 0x20 ADD PUSH3 0x3C6 JUMP JUMPDEST PUSH1 0x7 SLOAD PUSH1 0xFF AND ISZERO PUSH3 0x913 JUMPI ADDRESS PUSH1 0x1 PUSH1 0x1 PUSH1 0xA0 SHL SUB AND PUSH4 0x8DA5CB5B PUSH1 0x40 MLOAD DUP2 PUSH4 0xFFFFFFFF AND PUSH1 0xE0 SHL DUP2 MSTORE PUSH1 0x4 ADD PUSH1 0x20 PUSH1 0x40 MLOAD DUP1 DUP4 SUB DUP2 DUP7 GAS STATICCALL ISZERO DUP1 ISZERO PUSH3 0x88B JUMPI RETURNDATASIZE PUSH0 DUP1 RETURNDATACOPY RETURNDATASIZE PUSH0 REVERT JUMPDEST POP POP POP POP PUSH1 0x40 MLOAD RETURNDATASIZE PUSH1 0x1F NOT PUSH1 0x1F DUP3 ADD AND DUP3 ADD DUP1 PUSH1 0x40 MSTORE POP DUP2 ADD SWAP1 PUSH3 0x8B1 SWAP2 SWAP1 PUSH3 0x15B0 JUMP JUMPDEST PUSH1 0x1 PUSH1 0x1 PUSH1 0xA0 SHL SUB AND CALLER PUSH1 0x1 PUSH1 0x1 PUSH1 0xA0 SHL SUB AND EQ PUSH3 0x913 JUMPI PUSH1 0x40 MLOAD PUSH3 0x461BCD PUSH1 0xE5 SHL DUP2 MSTORE PUSH1 0x20 PUSH1 0x4 DUP3 ADD MSTORE PUSH1 0x1D PUSH1 0x24 DUP3 ADD MSTORE PUSH32 0x4F6E6C79206F776E65722063616E206372656174652049444F506F6F6C000000 PUSH1 0x44 DUP3 ADD MSTORE PUSH1 0x64 ADD PUSH3 0x373 JUMP JUMPDEST PUSH0 DUP7 DUP7 DUP7 DUP7 DUP7 PUSH1 0x40 MLOAD PUSH3 0x927 SWAP1 PUSH3 0x108B JUMP JUMPDEST PUSH3 0x937 SWAP6 SWAP5 SWAP4 SWAP3 SWAP2 SWAP1 PUSH3 0x1778 JUMP JUMPDEST PUSH1 0x40 MLOAD DUP1 SWAP2 SUB SWAP1 PUSH0 CREATE DUP1 ISZERO DUP1 ISZERO PUSH3 0x951 JUMPI RETURNDATASIZE PUSH0 DUP1 RETURNDATACOPY RETURNDATASIZE PUSH0 REVERT JUMPDEST POP SWAP1 POP DUP2 ISZERO PUSH3 0xA09 JUMPI PUSH1 0x40 MLOAD PUSH4 0x1C238EDD PUSH1 0xE1 SHL DUP2 MSTORE PUSH0 PUSH1 0x4 DUP3 ADD MSTORE PUSH1 0x1 PUSH1 0x1 PUSH1 0xA0 SHL SUB DUP3 AND SWAP1 PUSH4 0x38471DBA SWAP1 PUSH1 0x24 ADD PUSH0 PUSH1 0x40 MLOAD DUP1 DUP4 SUB DUP2 PUSH0 DUP8 DUP1 EXTCODESIZE ISZERO DUP1 ISZERO PUSH3 0x99A JUMPI PUSH0 DUP1 REVERT JUMPDEST POP GAS CALL ISZERO DUP1 ISZERO PUSH3 0x9AD JUMPI RETURNDATASIZE PUSH0 DUP1 RETURNDATACOPY RETURNDATASIZE PUSH0 REVERT JUMPDEST POP POP PUSH1 0x40 MLOAD PUSH4 0x2A897A6B PUSH1 0xE1 SHL DUP2 MSTORE PUSH1 0x1 PUSH1 0x4 DUP3 ADD MSTORE PUSH1 0x1 PUSH1 0x1 PUSH1 0xA0 SHL SUB DUP5 AND SWAP3 POP PUSH4 0x5512F4D6 SWAP2 POP PUSH1 0x24 ADD PUSH0 PUSH1 0x40 MLOAD DUP1 DUP4 SUB DUP2 PUSH0 DUP8 DUP1 EXTCODESIZE ISZERO DUP1 ISZERO PUSH3 0x9F1 JUMPI PUSH0 DUP1 REVERT JUMPDEST POP GAS CALL ISZERO DUP1 ISZERO PUSH3 0xA04 JUMPI RETURNDATASIZE PUSH0 DUP1 RETURNDATACOPY RETURNDATASIZE PUSH0 REVERT JUMPDEST POP POP POP POP JUMPDEST PUSH1 0x40 MLOAD PUSH4 0xF2FDE38B PUSH1 0xE0 SHL DUP2 MSTORE CALLER PUSH1 0x4 DUP3 ADD MSTORE PUSH1 0x1 PUSH1 0x1 PUSH1 0xA0 SHL SUB DUP3 AND SWAP1 PUSH4 0xF2FDE38B SWAP1 PUSH1 0x24 ADD PUSH0 PUSH1 0x40 MLOAD DUP1 DUP4 SUB DUP2 PUSH0 DUP8 DUP1 EXTCODESIZE ISZERO DUP1 ISZERO PUSH3 0xA48 JUMPI PUSH0 DUP1 REVERT JUMPDEST POP GAS CALL ISZERO DUP1 ISZERO PUSH3 0xA5B JUMPI RETURNDATASIZE PUSH0 DUP1 RETURNDATACOPY RETURNDATASIZE PUSH0 REVERT JUMPDEST POP POP POP POP PUSH3 0xA6D DUP9 DUP9 DUP4 DUP7 PUSH3 0xB7F JUMP JUMPDEST POP POP POP POP POP POP POP POP JUMP JUMPDEST PUSH3 0xA81 PUSH3 0xAF6 JUMP JUMPDEST PUSH1 0x1 PUSH1 0x1 PUSH1 0xA0 SHL SUB DUP2 AND PUSH3 0xAE8 JUMPI PUSH1 0x40 MLOAD PUSH3 0x461BCD PUSH1 0xE5 SHL DUP2 MSTORE PUSH1 0x20 PUSH1 0x4 DUP3 ADD MSTORE PUSH1 0x26 PUSH1 0x24 DUP3 ADD MSTORE PUSH32 0x4F776E61626C653A206E6577206F776E657220697320746865207A65726F2061 PUSH1 0x44 DUP3 ADD MSTORE PUSH6 0x646472657373 PUSH1 0xD0 SHL PUSH1 0x64 DUP3 ADD MSTORE PUSH1 0x84 ADD PUSH3 0x373 JUMP JUMPDEST PUSH3 0xAF3 DUP2 PUSH3 0xD30 JUMP JUMPDEST POP JUMP JUMPDEST PUSH0 SLOAD PUSH1 0x1 PUSH1 0x1 PUSH1 0xA0 SHL SUB AND CALLER EQ PUSH3 0x735 JUMPI PUSH1 0x40 MLOAD PUSH3 0x461BCD PUSH1 0xE5 SHL DUP2 MSTORE PUSH1 0x20 PUSH1 0x4 DUP3 ADD DUP2 SWAP1 MSTORE PUSH1 0x24 DUP3 ADD MSTORE PUSH32 0x4F776E61626C653A2063616C6C6572206973206E6F7420746865206F776E6572 PUSH1 0x44 DUP3 ADD MSTORE PUSH1 0x64 ADD PUSH3 0x373 JUMP JUMPDEST PUSH0 PUSH3 0xB5F DUP3 PUSH1 0xA PUSH3 0x18CB JUMP JUMPDEST PUSH3 0xB6B DUP5 DUP7 PUSH3 0x1742 JUMP JUMPDEST PUSH3 0xB77 SWAP2 SWAP1 PUSH3 0x1728 JUMP JUMPDEST SWAP5 SWAP4 POP POP POP POP JUMP JUMPDEST PUSH3 0xB96 PUSH1 0x1 PUSH1 0x1 PUSH1 0xA0 SHL SUB DUP5 AND CALLER DUP5 DUP8 PUSH3 0xD7F JUMP JUMPDEST PUSH1 0x8 DUP1 SLOAD PUSH1 0x1 DUP2 ADD DUP3 SSTORE PUSH0 SWAP2 SWAP1 SWAP2 MSTORE PUSH32 0xF3F7A9FE364FAAB93B216DA50A3214154F22A0A2B415B23A84C8169E8B636EE3 ADD DUP1 SLOAD PUSH1 0x1 PUSH1 0x1 PUSH1 0xA0 SHL SUB NOT AND PUSH1 0x1 PUSH1 0x1 PUSH1 0xA0 SHL SUB DUP5 DUP2 AND SWAP2 SWAP1 SWAP2 OR SWAP1 SWAP2 SSTORE PUSH1 0x40 MLOAD SWAP1 DUP5 AND SWAP1 CALLER SWAP1 PUSH32 0xF71C11AB5BD622B01D634C5C9E59846D77EE252871F11645B7B8376DDD4DD3E2 SWAP1 PUSH3 0xC1F SWAP1 DUP7 SWAP1 DUP7 SWAP1 PUSH3 0x18DB JUMP JUMPDEST PUSH1 0x40 MLOAD DUP1 SWAP2 SUB SWAP1 LOG3 PUSH1 0x4 SLOAD ISZERO PUSH3 0xD2A JUMPI PUSH1 0x5 SLOAD ISZERO PUSH3 0xD04 JUMPI PUSH0 PUSH3 0xC61 PUSH1 0x6 SLOAD PUSH3 0xC5A PUSH1 0x5 SLOAD PUSH1 0x4 SLOAD PUSH3 0xDDB SWAP1 SWAP2 SWAP1 PUSH4 0xFFFFFFFF AND JUMP JUMPDEST SWAP1 PUSH3 0xDF1 JUMP JUMPDEST PUSH1 0x3 SLOAD PUSH1 0x4 SLOAD SWAP2 SWAP3 POP PUSH3 0xC9C SWAP2 CALLER SWAP2 PUSH1 0x1 PUSH1 0x1 PUSH1 0xA0 SHL SUB AND SWAP1 PUSH3 0xC87 SWAP1 DUP6 PUSH3 0xDFE JUMP JUMPDEST PUSH1 0x2 SLOAD PUSH1 0x1 PUSH1 0x1 PUSH1 0xA0 SHL SUB AND SWAP3 SWAP2 SWAP1 PUSH3 0xD7F JUMP JUMPDEST PUSH1 0x2 SLOAD PUSH1 0x40 MLOAD PUSH4 0x79CC679 PUSH1 0xE4 SHL DUP2 MSTORE CALLER PUSH1 0x4 DUP3 ADD MSTORE PUSH1 0x24 DUP2 ADD DUP4 SWAP1 MSTORE PUSH1 0x1 PUSH1 0x1 PUSH1 0xA0 SHL SUB SWAP1 SWAP2 AND SWAP1 PUSH4 0x79CC6790 SWAP1 PUSH1 0x44 ADD PUSH0 PUSH1 0x40 MLOAD DUP1 DUP4 SUB DUP2 PUSH0 DUP8 DUP1 EXTCODESIZE ISZERO DUP1 ISZERO PUSH3 0xCE6 JUMPI PUSH0 DUP1 REVERT JUMPDEST POP GAS CALL ISZERO DUP1 ISZERO PUSH3 0xCF9 JUMPI RETURNDATASIZE PUSH0 DUP1 RETURNDATACOPY RETURNDATASIZE PUSH0 REVERT JUMPDEST POP POP POP POP POP PUSH3 0xD2A JUMP JUMPDEST PUSH1 0x3 SLOAD PUSH1 0x4 SLOAD PUSH1 0x2 SLOAD PUSH3 0xD2A SWAP3 PUSH1 0x1 PUSH1 0x1 PUSH1 0xA0 SHL SUB SWAP2 DUP3 AND SWAP3 CALLER SWAP3 SWAP1 SWAP2 AND SWAP1 PUSH3 0xD7F JUMP JUMPDEST POP POP POP POP JUMP JUMPDEST PUSH0 DUP1 SLOAD PUSH1 0x1 PUSH1 0x1 PUSH1 0xA0 SHL SUB DUP4 DUP2 AND PUSH1 0x1 PUSH1 0x1 PUSH1 0xA0 SHL SUB NOT DUP4 AND DUP2 OR DUP5 SSTORE PUSH1 0x40 MLOAD SWAP2 SWAP1 SWAP3 AND SWAP3 DUP4 SWAP2 PUSH32 0x8BE0079C531659141344CD1FD0A4F28419497F9722A3DAAFE3B4186F6B6457E0 SWAP2 SWAP1 LOG3 POP POP JUMP JUMPDEST PUSH1 0x40 DUP1 MLOAD PUSH1 0x1 PUSH1 0x1 PUSH1 0xA0 SHL SUB DUP6 DUP2 AND PUSH1 0x24 DUP4 ADD MSTORE DUP5 AND PUSH1 0x44 DUP3 ADD MSTORE PUSH1 0x64 DUP1 DUP3 ADD DUP5 SWAP1 MSTORE DUP3 MLOAD DUP1 DUP4 SUB SWAP1 SWAP2 ADD DUP2 MSTORE PUSH1 0x84 SWAP1 SWAP2 ADD SWAP1 SWAP2 MSTORE PUSH1 0x20 DUP2 ADD DUP1 MLOAD PUSH1 0x1 PUSH1 0x1 PUSH1 0xE0 SHL SUB AND PUSH4 0x23B872DD PUSH1 0xE0 SHL OR SWAP1 MSTORE PUSH3 0xD2A SWAP1 DUP6 SWAP1 PUSH3 0xE0B JUMP JUMPDEST PUSH0 PUSH3 0xDE8 DUP3 DUP5 PUSH3 0x1728 JUMP JUMPDEST SWAP1 POP JUMPDEST SWAP3 SWAP2 POP POP JUMP JUMPDEST PUSH0 PUSH3 0xDE8 DUP3 DUP5 PUSH3 0x1742 JUMP JUMPDEST PUSH0 PUSH3 0xDE8 DUP3 DUP5 PUSH3 0x1900 JUMP JUMPDEST PUSH0 PUSH3 0xE61 DUP3 PUSH1 0x40 MLOAD DUP1 PUSH1 0x40 ADD PUSH1 0x40 MSTORE DUP1 PUSH1 0x20 DUP2 MSTORE PUSH1 0x20 ADD PUSH32 0x5361666545524332303A206C6F772D6C6576656C2063616C6C206661696C6564 DUP2 MSTORE POP DUP6 PUSH1 0x1 PUSH1 0x1 PUSH1 0xA0 SHL SUB AND PUSH3 0xEE8 SWAP1 SWAP3 SWAP2 SWAP1 PUSH4 0xFFFFFFFF AND JUMP JUMPDEST DUP1 MLOAD SWAP1 SWAP2 POP ISZERO PUSH3 0xEE3 JUMPI DUP1 DUP1 PUSH1 0x20 ADD SWAP1 MLOAD DUP2 ADD SWAP1 PUSH3 0xE82 SWAP2 SWAP1 PUSH3 0x1916 JUMP JUMPDEST PUSH3 0xEE3 JUMPI PUSH1 0x40 MLOAD PUSH3 0x461BCD PUSH1 0xE5 SHL DUP2 MSTORE PUSH1 0x20 PUSH1 0x4 DUP3 ADD MSTORE PUSH1 0x2A PUSH1 0x24 DUP3 ADD MSTORE PUSH32 0x5361666545524332303A204552433230206F7065726174696F6E20646964206E PUSH1 0x44 DUP3 ADD MSTORE PUSH10 0x1BDD081CDD58D8D95959 PUSH1 0xB2 SHL PUSH1 0x64 DUP3 ADD MSTORE PUSH1 0x84 ADD PUSH3 0x373 JUMP JUMPDEST POP POP POP JUMP JUMPDEST PUSH1 0x60 PUSH3 0xB77 DUP5 DUP5 PUSH0 DUP6 DUP6 PUSH0 DUP1 DUP7 PUSH1 0x1 PUSH1 0x1 PUSH1 0xA0 SHL SUB AND DUP6 DUP8 PUSH1 0x40 MLOAD PUSH3 0xF10 SWAP2 SWAP1 PUSH3 0x1934 JUMP JUMPDEST PUSH0 PUSH1 0x40 MLOAD DUP1 DUP4 SUB DUP2 DUP6 DUP8 GAS CALL SWAP3 POP POP POP RETURNDATASIZE DUP1 PUSH0 DUP2 EQ PUSH3 0xF4C JUMPI PUSH1 0x40 MLOAD SWAP2 POP PUSH1 0x1F NOT PUSH1 0x3F RETURNDATASIZE ADD AND DUP3 ADD PUSH1 0x40 MSTORE RETURNDATASIZE DUP3 MSTORE RETURNDATASIZE PUSH0 PUSH1 0x20 DUP5 ADD RETURNDATACOPY PUSH3 0xF51 JUMP JUMPDEST PUSH1 0x60 SWAP2 POP JUMPDEST POP SWAP2 POP SWAP2 POP PUSH3 0xF64 DUP8 DUP4 DUP4 DUP8 PUSH3 0xF6F JUMP JUMPDEST SWAP8 SWAP7 POP POP POP POP POP POP POP JUMP JUMPDEST PUSH1 0x60 DUP4 ISZERO PUSH3 0xFE2 JUMPI DUP3 MLOAD PUSH0 SUB PUSH3 0xFDA JUMPI PUSH1 0x1 PUSH1 0x1 PUSH1 0xA0 SHL SUB DUP6 AND EXTCODESIZE PUSH3 0xFDA JUMPI PUSH1 0x40 MLOAD PUSH3 0x461BCD PUSH1 0xE5 SHL DUP2 MSTORE PUSH1 0x20 PUSH1 0x4 DUP3 ADD MSTORE PUSH1 0x1D PUSH1 0x24 DUP3 ADD MSTORE PUSH32 0x416464726573733A2063616C6C20746F206E6F6E2D636F6E7472616374000000 PUSH1 0x44 DUP3 ADD MSTORE PUSH1 0x64 ADD PUSH3 0x373 JUMP JUMPDEST POP DUP2 PUSH3 0xB77 JUMP JUMPDEST PUSH3 0xB77 DUP4 DUP4 DUP2 MLOAD ISZERO PUSH3 0xFF9 JUMPI DUP2 MLOAD DUP1 DUP4 PUSH1 0x20 ADD REVERT JUMPDEST DUP1 PUSH1 0x40 MLOAD PUSH3 0x461BCD PUSH1 0xE5 SHL DUP2 MSTORE PUSH1 0x4 ADD PUSH3 0x373 SWAP2 SWAP1 PUSH3 0x1951 JUMP JUMPDEST PUSH2 0x25B2 DUP1 PUSH3 0x1966 DUP4 CODECOPY ADD SWAP1 JUMP JUMPDEST DUP3 DUP1 SLOAD DUP3 DUP3 SSTORE SWAP1 PUSH0 MSTORE PUSH1 0x20 PUSH0 KECCAK256 SWAP1 DUP2 ADD SWAP3 DUP3 ISZERO PUSH3 0x1079 JUMPI SWAP2 PUSH1 0x20 MUL DUP3 ADD JUMPDEST DUP3 DUP2 GT ISZERO PUSH3 0x1079 JUMPI DUP3 MLOAD DUP3 SLOAD PUSH1 0x1 PUSH1 0x1 PUSH1 0xA0 SHL SUB NOT AND PUSH1 0x1 PUSH1 0x1 PUSH1 0xA0 SHL SUB SWAP1 SWAP2 AND OR DUP3 SSTORE PUSH1 0x20 SWAP1 SWAP3 ADD SWAP2 PUSH1 0x1 SWAP1 SWAP2 ADD SWAP1 PUSH3 0x1042 JUMP JUMPDEST POP PUSH3 0x1087 SWAP3 SWAP2 POP PUSH3 0x1099 JUMP JUMPDEST POP SWAP1 JUMP JUMPDEST PUSH2 0x2008 DUP1 PUSH3 0x3F18 DUP4 CODECOPY ADD SWAP1 JUMP JUMPDEST JUMPDEST DUP1 DUP3 GT ISZERO PUSH3 0x1087 JUMPI PUSH0 DUP2 SSTORE PUSH1 0x1 ADD PUSH3 0x109A JUMP JUMPDEST DUP1 ISZERO ISZERO DUP2 EQ PUSH3 0xAF3 JUMPI PUSH0 DUP1 REVERT JUMPDEST PUSH0 PUSH1 0x20 DUP3 DUP5 SUB SLT ISZERO PUSH3 0x10CE JUMPI PUSH0 DUP1 REVERT JUMPDEST DUP2 CALLDATALOAD PUSH3 0x10DB DUP2 PUSH3 0x10AF JUMP JUMPDEST SWAP4 SWAP3 POP POP POP JUMP JUMPDEST PUSH1 0x1 PUSH1 0x1 PUSH1 0xA0 SHL SUB DUP2 AND DUP2 EQ PUSH3 0xAF3 JUMPI PUSH0 DUP1 REVERT JUMPDEST DUP1 CALLDATALOAD PUSH3 0x1104 DUP2 PUSH3 0x10E2 JUMP JUMPDEST SWAP2 SWAP1 POP JUMP JUMPDEST PUSH0 PUSH1 0x20 DUP3 DUP5 SUB SLT ISZERO PUSH3 0x111A JUMPI PUSH0 DUP1 REVERT JUMPDEST DUP2 CALLDATALOAD PUSH3 0x10DB DUP2 PUSH3 0x10E2 JUMP JUMPDEST PUSH4 0x4E487B71 PUSH1 0xE0 SHL PUSH0 MSTORE PUSH1 0x41 PUSH1 0x4 MSTORE PUSH1 0x24 PUSH0 REVERT JUMPDEST PUSH1 0x40 MLOAD PUSH1 0x60 DUP2 ADD PUSH8 0xFFFFFFFFFFFFFFFF DUP2 GT DUP3 DUP3 LT OR ISZERO PUSH3 0x1161 JUMPI PUSH3 0x1161 PUSH3 0x1127 JUMP JUMPDEST PUSH1 0x40 MSTORE SWAP1 JUMP JUMPDEST PUSH1 0x40 MLOAD PUSH1 0x1F DUP3 ADD PUSH1 0x1F NOT AND DUP2 ADD PUSH8 0xFFFFFFFFFFFFFFFF DUP2 GT DUP3 DUP3 LT OR ISZERO PUSH3 0x1193 JUMPI PUSH3 0x1193 PUSH3 0x1127 JUMP JUMPDEST PUSH1 0x40 MSTORE SWAP2 SWAP1 POP JUMP JUMPDEST PUSH0 PUSH1 0xE0 DUP3 DUP5 SUB SLT ISZERO PUSH3 0x11AC JUMPI PUSH0 DUP1 REVERT JUMPDEST PUSH1 0x40 MLOAD PUSH1 0xE0 DUP2 ADD DUP2 DUP2 LT PUSH8 0xFFFFFFFFFFFFFFFF DUP3 GT OR ISZERO PUSH3 0x11D2 JUMPI PUSH3 0x11D2 PUSH3 0x1127 JUMP JUMPDEST DUP1 PUSH1 0x40 MSTORE POP DUP1 SWAP2 POP DUP3 CALLDATALOAD DUP2 MSTORE PUSH1 0x20 DUP4 ADD CALLDATALOAD PUSH1 0x20 DUP3 ADD MSTORE PUSH1 0x40 DUP4 ADD CALLDATALOAD PUSH1 0x40 DUP3 ADD MSTORE PUSH1 0x60 DUP4 ADD CALLDATALOAD PUSH1 0x60 DUP3 ADD MSTORE PUSH1 0x80 DUP4 ADD CALLDATALOAD PUSH1 0x80 DUP3 ADD MSTORE PUSH1 0xA0 DUP4 ADD CALLDATALOAD PUSH1 0xA0 DUP3 ADD MSTORE PUSH1 0xC0 DUP4 ADD CALLDATALOAD PUSH1 0xC0 DUP3 ADD MSTORE POP SWAP3 SWAP2 POP POP JUMP JUMPDEST PUSH0 PUSH1 0x60 DUP3 DUP5 SUB SLT ISZERO PUSH3 0x1232 JUMPI PUSH0 DUP1 REVERT JUMPDEST PUSH3 0x123C PUSH3 0x113B JUMP JUMPDEST SWAP1 POP DUP2 CALLDATALOAD DUP2 MSTORE PUSH1 0x20 DUP3 ADD CALLDATALOAD PUSH1 0x20 DUP3 ADD MSTORE PUSH1 0x40 DUP3 ADD CALLDATALOAD PUSH1 0x40 DUP3 ADD MSTORE SWAP3 SWAP2 POP POP JUMP JUMPDEST PUSH0 DUP3 PUSH1 0x1F DUP4 ADD SLT PUSH3 0x126C JUMPI PUSH0 DUP1 REVERT JUMPDEST DUP2 CALLDATALOAD PUSH8 0xFFFFFFFFFFFFFFFF DUP2 GT ISZERO PUSH3 0x1289 JUMPI PUSH3 0x1289 PUSH3 0x1127 JUMP JUMPDEST PUSH3 0x129E PUSH1 0x1F DUP3 ADD PUSH1 0x1F NOT AND PUSH1 0x20 ADD PUSH3 0x1167 JUMP JUMPDEST DUP2 DUP2 MSTORE DUP5 PUSH1 0x20 DUP4 DUP7 ADD ADD GT ISZERO PUSH3 0x12B3 JUMPI PUSH0 DUP1 REVERT JUMPDEST DUP2 PUSH1 0x20 DUP6 ADD PUSH1 0x20 DUP4 ADD CALLDATACOPY PUSH0 SWAP2 DUP2 ADD PUSH1 0x20 ADD SWAP2 SWAP1 SWAP2 MSTORE SWAP4 SWAP3 POP POP POP JUMP JUMPDEST PUSH0 DUP1 PUSH0 DUP1 PUSH0 DUP1 DUP7 DUP9 SUB PUSH2 0x200 DUP2 SLT ISZERO PUSH3 0x12E7 JUMPI PUSH0 DUP1 REVERT JUMPDEST DUP8 CALLDATALOAD PUSH3 0x12F4 DUP2 PUSH3 0x10E2 JUMP JUMPDEST SWAP7 POP PUSH3 0x1305 DUP10 PUSH1 0x20 DUP11 ADD PUSH3 0x119B JUMP JUMPDEST SWAP6 POP PUSH3 0x1317 DUP10 PUSH2 0x100 DUP11 ADD PUSH3 0x1221 JUMP JUMPDEST SWAP5 POP PUSH1 0x60 PUSH2 0x15F NOT DUP3 ADD SLT ISZERO PUSH3 0x132C JUMPI PUSH0 DUP1 REVERT JUMPDEST POP PUSH3 0x1337 PUSH3 0x113B JUMP JUMPDEST PUSH2 0x160 DUP9 ADD CALLDATALOAD PUSH3 0x1348 DUP2 PUSH3 0x10E2 JUMP JUMPDEST DUP2 MSTORE PUSH2 0x180 DUP9 ADD CALLDATALOAD PUSH3 0x135B DUP2 PUSH3 0x10E2 JUMP JUMPDEST PUSH1 0x20 DUP3 ADD MSTORE PUSH2 0x1A0 DUP9 ADD CALLDATALOAD PUSH3 0x1371 DUP2 PUSH3 0x10E2 JUMP JUMPDEST PUSH1 0x40 DUP3 ADD MSTORE SWAP3 POP PUSH3 0x1387 PUSH2 0x1C0 DUP9 ADD PUSH3 0x10F7 JUMP JUMPDEST SWAP2 POP PUSH2 0x1E0 DUP8 ADD CALLDATALOAD PUSH8 0xFFFFFFFFFFFFFFFF DUP2 GT ISZERO PUSH3 0x13A4 JUMPI PUSH0 DUP1 REVERT JUMPDEST PUSH3 0x13B2 DUP10 DUP3 DUP11 ADD PUSH3 0x125C JUMP JUMPDEST SWAP2 POP POP SWAP3 SWAP6 POP SWAP3 SWAP6 POP SWAP3 SWAP6 JUMP JUMPDEST PUSH0 PUSH1 0x20 DUP1 DUP4 DUP6 SUB SLT ISZERO PUSH3 0x13D1 JUMPI PUSH0 DUP1 REVERT JUMPDEST DUP3 CALLDATALOAD PUSH8 0xFFFFFFFFFFFFFFFF DUP1 DUP3 GT ISZERO PUSH3 0x13E9 JUMPI PUSH0 DUP1 REVERT JUMPDEST DUP2 DUP6 ADD SWAP2 POP DUP6 PUSH1 0x1F DUP4 ADD SLT PUSH3 0x13FD JUMPI PUSH0 DUP1 REVERT JUMPDEST DUP2 CALLDATALOAD DUP2 DUP2 GT ISZERO PUSH3 0x1412 JUMPI PUSH3 0x1412 PUSH3 0x1127 JUMP JUMPDEST DUP1 PUSH1 0x5 SHL SWAP2 POP PUSH3 0x1425 DUP5 DUP4 ADD PUSH3 0x1167 JUMP JUMPDEST DUP2 DUP2 MSTORE SWAP2 DUP4 ADD DUP5 ADD SWAP2 DUP5 DUP2 ADD SWAP1 DUP9 DUP5 GT ISZERO PUSH3 0x143F JUMPI PUSH0 DUP1 REVERT JUMPDEST SWAP4 DUP6 ADD SWAP4 JUMPDEST DUP4 DUP6 LT ISZERO PUSH3 0x146D JUMPI DUP5 CALLDATALOAD SWAP3 POP PUSH3 0x145C DUP4 PUSH3 0x10E2 JUMP JUMPDEST DUP3 DUP3 MSTORE SWAP4 DUP6 ADD SWAP4 SWAP1 DUP6 ADD SWAP1 PUSH3 0x1444 JUMP JUMPDEST SWAP9 SWAP8 POP POP POP POP POP POP POP POP JUMP JUMPDEST PUSH1 0x20 DUP1 DUP3 MSTORE DUP3 MLOAD DUP3 DUP3 ADD DUP2 SWAP1 MSTORE PUSH0 SWAP2 SWAP1 DUP5 DUP3 ADD SWAP1 PUSH1 0x40 DUP6 ADD SWAP1 DUP5 JUMPDEST DUP2 DUP2 LT ISZERO PUSH3 0x14BB JUMPI DUP4 MLOAD PUSH1 0x1 PUSH1 0x1 PUSH1 0xA0 SHL SUB AND DUP4 MSTORE SWAP3 DUP5 ADD SWAP3 SWAP2 DUP5 ADD SWAP2 PUSH1 0x1 ADD PUSH3 0x1494 JUMP JUMPDEST POP SWAP1 SWAP7 SWAP6 POP POP POP POP POP POP JUMP JUMPDEST PUSH0 PUSH1 0x20 DUP3 DUP5 SUB SLT ISZERO PUSH3 0x14D8 JUMPI PUSH0 DUP1 REVERT JUMPDEST POP CALLDATALOAD SWAP2 SWAP1 POP JUMP JUMPDEST PUSH0 DUP1 PUSH1 0x40 DUP4 DUP6 SUB SLT ISZERO PUSH3 0x14F1 JUMPI PUSH0 DUP1 REVERT JUMPDEST POP POP DUP1 CALLDATALOAD SWAP3 PUSH1 0x20 SWAP1 SWAP2 ADD CALLDATALOAD SWAP2 POP JUMP JUMPDEST PUSH0 DUP1 PUSH0 DUP1 PUSH0 DUP1 PUSH0 PUSH2 0x1E0 DUP9 DUP11 SUB SLT ISZERO PUSH3 0x1518 JUMPI PUSH0 DUP1 REVERT JUMPDEST DUP8 CALLDATALOAD SWAP7 POP PUSH1 0x20 DUP9 ADD CALLDATALOAD PUSH3 0x152C DUP2 PUSH3 0x10E2 JUMP JUMPDEST SWAP6 POP PUSH1 0x40 DUP9 ADD CALLDATALOAD PUSH3 0x153E DUP2 PUSH3 0x10E2 JUMP JUMPDEST SWAP5 POP PUSH3 0x154F DUP10 PUSH1 0x60 DUP11 ADD PUSH3 0x119B JUMP JUMPDEST SWAP4 POP PUSH3 0x1561 DUP10 PUSH2 0x140 DUP11 ADD PUSH3 0x1221 JUMP JUMPDEST SWAP3 POP PUSH2 0x1A0 DUP9 ADD CALLDATALOAD PUSH8 0xFFFFFFFFFFFFFFFF DUP2 GT ISZERO PUSH3 0x157E JUMPI PUSH0 DUP1 REVERT JUMPDEST PUSH3 0x158C DUP11 DUP3 DUP12 ADD PUSH3 0x125C JUMP JUMPDEST SWAP3 POP POP PUSH2 0x1C0 DUP9 ADD CALLDATALOAD PUSH3 0x15A0 DUP2 PUSH3 0x10AF JUMP JUMPDEST DUP1 SWAP2 POP POP SWAP3 SWAP6 SWAP9 SWAP2 SWAP5 SWAP8 POP SWAP3 SWAP6 POP JUMP JUMPDEST PUSH0 PUSH1 0x20 DUP3 DUP5 SUB SLT ISZERO PUSH3 0x15C1 JUMPI PUSH0 DUP1 REVERT JUMPDEST DUP2 MLOAD PUSH3 0x10DB DUP2 PUSH3 0x10E2 JUMP JUMPDEST DUP1 MLOAD DUP3 MSTORE PUSH1 0x20 DUP2 ADD MLOAD PUSH1 0x20 DUP4 ADD MSTORE PUSH1 0x40 DUP2 ADD MLOAD PUSH1 0x40 DUP4 ADD MSTORE PUSH1 0x60 DUP2 ADD MLOAD PUSH1 0x60 DUP4 ADD MSTORE PUSH1 0x80 DUP2 ADD MLOAD PUSH1 0x80 DUP4 ADD MSTORE PUSH1 0xA0 DUP2 ADD MLOAD PUSH1 0xA0 DUP4 ADD MSTORE PUSH1 0xC0 DUP2 ADD MLOAD PUSH1 0xC0 DUP4 ADD MSTORE POP POP JUMP JUMPDEST PUSH0 JUMPDEST DUP4 DUP2 LT ISZERO PUSH3 0x162E JUMPI DUP2 DUP2 ADD MLOAD DUP4 DUP3 ADD MSTORE PUSH1 0x20 ADD PUSH3 0x1614 JUMP JUMPDEST POP POP PUSH0 SWAP2 ADD MSTORE JUMP JUMPDEST PUSH0 DUP2 MLOAD DUP1 DUP5 MSTORE PUSH3 0x164F DUP2 PUSH1 0x20 DUP7 ADD PUSH1 0x20 DUP7 ADD PUSH3 0x1612 JUMP JUMPDEST PUSH1 0x1F ADD PUSH1 0x1F NOT AND SWAP3 SWAP1 SWAP3 ADD PUSH1 0x20 ADD SWAP3 SWAP2 POP POP JUMP JUMPDEST PUSH1 0x1 PUSH1 0x1 PUSH1 0xA0 SHL SUB DUP8 DUP2 AND DUP3 MSTORE PUSH0 SWAP1 PUSH2 0x200 SWAP1 PUSH3 0x1685 PUSH1 0x20 DUP6 ADD DUP11 PUSH3 0x15CE JUMP JUMPDEST DUP8 MLOAD PUSH2 0x100 DUP6 ADD MSTORE PUSH1 0x20 DUP9 ADD MLOAD PUSH2 0x120 DUP6 ADD MSTORE PUSH1 0x40 DUP9 ADD MLOAD PUSH2 0x140 DUP6 ADD MSTORE DUP7 MLOAD DUP2 AND PUSH2 0x160 DUP6 ADD MSTORE PUSH1 0x20 DUP8 ADD MLOAD DUP2 AND PUSH2 0x180 DUP6 ADD MSTORE PUSH1 0x40 DUP8 ADD MLOAD DUP2 AND PUSH2 0x1A0 DUP6 ADD MSTORE DUP6 AND PUSH2 0x1C0 DUP5 ADD MSTORE PUSH2 0x1E0 DUP4 ADD DUP2 SWAP1 MSTORE PUSH3 0x16E5 DUP2 DUP5 ADD DUP6 PUSH3 0x1636 JUMP JUMPDEST SWAP10 SWAP9 POP POP POP POP POP POP POP POP POP JUMP JUMPDEST PUSH0 PUSH1 0x20 DUP3 DUP5 SUB SLT ISZERO PUSH3 0x1703 JUMPI PUSH0 DUP1 REVERT JUMPDEST DUP2 MLOAD PUSH1 0xFF DUP2 AND DUP2 EQ PUSH3 0x10DB JUMPI PUSH0 DUP1 REVERT JUMPDEST PUSH4 0x4E487B71 PUSH1 0xE0 SHL PUSH0 MSTORE PUSH1 0x11 PUSH1 0x4 MSTORE PUSH1 0x24 PUSH0 REVERT JUMPDEST DUP1 DUP3 MUL DUP2 ISZERO DUP3 DUP3 DIV DUP5 EQ OR PUSH3 0xDEB JUMPI PUSH3 0xDEB PUSH3 0x1714 JUMP JUMPDEST PUSH0 DUP3 PUSH3 0x175D JUMPI PUSH4 0x4E487B71 PUSH1 0xE0 SHL PUSH0 MSTORE PUSH1 0x12 PUSH1 0x4 MSTORE PUSH1 0x24 PUSH0 REVERT JUMPDEST POP DIV SWAP1 JUMP JUMPDEST DUP1 DUP3 ADD DUP1 DUP3 GT ISZERO PUSH3 0xDEB JUMPI PUSH3 0xDEB PUSH3 0x1714 JUMP JUMPDEST PUSH1 0x1 PUSH1 0x1 PUSH1 0xA0 SHL SUB DUP7 DUP2 AND DUP3 MSTORE DUP6 AND PUSH1 0x20 DUP3 ADD MSTORE PUSH0 PUSH2 0x1A0 PUSH3 0x179F PUSH1 0x40 DUP5 ADD DUP8 PUSH3 0x15CE JUMP JUMPDEST DUP5 MLOAD PUSH2 0x120 DUP5 ADD MSTORE PUSH1 0x20 DUP6 ADD MLOAD PUSH2 0x140 DUP5 ADD MSTORE PUSH1 0x40 DUP6 ADD MLOAD PUSH2 0x160 DUP5 ADD MSTORE DUP1 PUSH2 0x180 DUP5 ADD MSTORE PUSH3 0x146D DUP2 DUP5 ADD DUP6 PUSH3 0x1636 JUMP JUMPDEST PUSH1 0x1 DUP2 DUP2 JUMPDEST DUP1 DUP6 GT ISZERO PUSH3 0x1812 JUMPI DUP2 PUSH0 NOT DIV DUP3 GT ISZERO PUSH3 0x17F6 JUMPI PUSH3 0x17F6 PUSH3 0x1714 JUMP JUMPDEST DUP1 DUP6 AND ISZERO PUSH3 0x1804 JUMPI SWAP2 DUP2 MUL SWAP2 JUMPDEST SWAP4 DUP5 SHR SWAP4 SWAP1 DUP1 MUL SWAP1 PUSH3 0x17D7 JUMP JUMPDEST POP SWAP3 POP SWAP3 SWAP1 POP JUMP JUMPDEST PUSH0 DUP3 PUSH3 0x182A JUMPI POP PUSH1 0x1 PUSH3 0xDEB JUMP JUMPDEST DUP2 PUSH3 0x1838 JUMPI POP PUSH0 PUSH3 0xDEB JUMP JUMPDEST DUP2 PUSH1 0x1 DUP2 EQ PUSH3 0x1851 JUMPI PUSH1 0x2 DUP2 EQ PUSH3 0x185C JUMPI PUSH3 0x187C JUMP JUMPDEST PUSH1 0x1 SWAP2 POP POP PUSH3 0xDEB JUMP JUMPDEST PUSH1 0xFF DUP5 GT ISZERO PUSH3 0x1870 JUMPI PUSH3 0x1870 PUSH3 0x1714 JUMP JUMPDEST POP POP PUSH1 0x1 DUP3 SHL PUSH3 0xDEB JUMP JUMPDEST POP PUSH1 0x20 DUP4 LT PUSH2 0x133 DUP4 LT AND PUSH1 0x4E DUP5 LT PUSH1 0xB DUP5 LT AND OR ISZERO PUSH3 0x18A1 JUMPI POP DUP2 DUP2 EXP PUSH3 0xDEB JUMP JUMPDEST PUSH3 0x18AD DUP4 DUP4 PUSH3 0x17D2 JUMP JUMPDEST DUP1 PUSH0 NOT DIV DUP3 GT ISZERO PUSH3 0x18C3 JUMPI PUSH3 0x18C3 PUSH3 0x1714 JUMP JUMPDEST MUL SWAP4 SWAP3 POP POP POP JUMP JUMPDEST PUSH0 PUSH3 0xDE8 PUSH1 0xFF DUP5 AND DUP4 PUSH3 0x181A JUMP JUMPDEST PUSH1 0x1 PUSH1 0x1 PUSH1 0xA0 SHL SUB DUP4 AND DUP2 MSTORE PUSH1 0x40 PUSH1 0x20 DUP3 ADD DUP2 SWAP1 MSTORE PUSH0 SWAP1 PUSH3 0xB77 SWAP1 DUP4 ADD DUP5 PUSH3 0x1636 JUMP JUMPDEST DUP2 DUP2 SUB DUP2 DUP2 GT ISZERO PUSH3 0xDEB JUMPI PUSH3 0xDEB PUSH3 0x1714 JUMP JUMPDEST PUSH0 PUSH1 0x20 DUP3 DUP5 SUB SLT ISZERO PUSH3 0x1927 JUMPI PUSH0 DUP1 REVERT JUMPDEST DUP2 MLOAD PUSH3 0x10DB DUP2 PUSH3 0x10AF JUMP JUMPDEST PUSH0 DUP3 MLOAD PUSH3 0x1947 DUP2 DUP5 PUSH1 0x20 DUP8 ADD PUSH3 0x1612 JUMP JUMPDEST SWAP2 SWAP1 SWAP2 ADD SWAP3 SWAP2 POP POP JUMP JUMPDEST PUSH1 0x20 DUP2 MSTORE PUSH0 PUSH3 0xDE8 PUSH1 0x20 DUP4 ADD DUP5 PUSH3 0x1636 JUMP INVALID PUSH1 0x80 PUSH1 0x40 MSTORE PUSH1 0x16 DUP1 SLOAD PUSH1 0xFF NOT AND SWAP1 SSTORE PUSH1 0x1 PUSH1 0x18 SSTORE CALLVALUE DUP1 ISZERO PUSH3 0x1F JUMPI PUSH0 DUP1 REVERT JUMPDEST POP PUSH1 0x40 MLOAD PUSH3 0x25B2 CODESIZE SUB DUP1 PUSH3 0x25B2 DUP4 CODECOPY DUP2 ADD PUSH1 0x40 DUP2 SWAP1 MSTORE PUSH3 0x42 SWAP2 PUSH3 0x4D4 JUMP JUMPDEST PUSH3 0x4D CALLER PUSH3 0x19A JUMP JUMPDEST PUSH1 0x1 DUP1 SSTORE PUSH1 0x19 DUP1 SLOAD PUSH1 0x1 PUSH1 0x1 PUSH1 0xA0 SHL SUB NOT SWAP1 DUP2 AND CALLER OR SWAP1 SWAP2 SSTORE PUSH1 0x2 DUP1 SLOAD PUSH1 0x1 PUSH1 0x1 PUSH1 0xA0 SHL SUB DUP10 AND SWAP3 AND DUP3 OR SWAP1 SSTORE PUSH1 0x40 DUP1 MLOAD PUSH4 0x313CE567 PUSH1 0xE0 SHL DUP2 MSTORE SWAP1 MLOAD PUSH4 0x313CE567 SWAP2 PUSH1 0x4 DUP1 DUP3 ADD SWAP3 PUSH1 0x20 SWAP3 SWAP1 SWAP2 SWAP1 DUP3 SWAP1 SUB ADD DUP2 DUP7 GAS STATICCALL ISZERO DUP1 ISZERO PUSH3 0xB4 JUMPI RETURNDATASIZE PUSH0 DUP1 RETURNDATACOPY RETURNDATASIZE PUSH0 REVERT JUMPDEST POP POP POP POP PUSH1 0x40 MLOAD RETURNDATASIZE PUSH1 0x1F NOT PUSH1 0x1F DUP3 ADD AND DUP3 ADD DUP1 PUSH1 0x40 MSTORE POP DUP2 ADD SWAP1 PUSH3 0xDA SWAP2 SWAP1 PUSH3 0x5CA JUMP JUMPDEST PUSH1 0xFF AND PUSH1 0x3 SSTORE PUSH1 0x12 DUP1 SLOAD PUSH1 0x1 PUSH1 0x1 PUSH1 0xA0 SHL SUB NOT AND PUSH1 0x1 PUSH1 0x1 PUSH1 0xA0 SHL SUB DUP5 AND OR SWAP1 SSTORE DUP5 MLOAD PUSH1 0x5 SSTORE PUSH1 0x20 DUP6 ADD MLOAD PUSH1 0x6 SSTORE PUSH1 0x40 DUP6 ADD MLOAD PUSH1 0x7 SSTORE PUSH1 0x60 DUP6 ADD MLOAD PUSH1 0x8 SSTORE PUSH1 0x80 DUP6 ADD MLOAD PUSH1 0x9 SSTORE PUSH1 0xA0 DUP6 ADD MLOAD PUSH1 0xA SSTORE PUSH1 0xC0 DUP6 ADD MLOAD PUSH1 0xB SSTORE PUSH3 0x13B DUP5 PUSH3 0x1E9 JUMP JUMPDEST DUP3 MLOAD PUSH1 0xF DUP1 SLOAD PUSH1 0x1 PUSH1 0x1 PUSH1 0xA0 SHL SUB SWAP3 DUP4 AND PUSH1 0x1 PUSH1 0x1 PUSH1 0xA0 SHL SUB NOT SWAP2 DUP3 AND OR SWAP1 SWAP2 SSTORE PUSH1 0x20 DUP6 ADD MLOAD PUSH1 0x10 DUP1 SLOAD SWAP2 DUP5 AND SWAP2 DUP4 AND SWAP2 SWAP1 SWAP2 OR SWAP1 SSTORE PUSH1 0x40 DUP6 ADD MLOAD PUSH1 0x11 DUP1 SLOAD SWAP2 SWAP1 SWAP4 AND SWAP2 AND OR SWAP1 SSTORE PUSH3 0x18E DUP2 PUSH3 0x2E2 JUMP JUMPDEST POP POP POP POP POP POP PUSH3 0x747 JUMP JUMPDEST PUSH0 DUP1 SLOAD PUSH1 0x1 PUSH1 0x1 PUSH1 0xA0 SHL SUB DUP4 DUP2 AND PUSH1 0x1 PUSH1 0x1 PUSH1 0xA0 SHL SUB NOT DUP4 AND DUP2 OR DUP5 SSTORE PUSH1 0x40 MLOAD SWAP2 SWAP1 SWAP3 AND SWAP3 DUP4 SWAP2 PUSH32 0x8BE0079C531659141344CD1FD0A4F28419497F9722A3DAAFE3B4186F6B6457E0 SWAP2 SWAP1 LOG3 POP POP JUMP JUMPDEST PUSH1 0x20 DUP2 ADD MLOAD DUP2 MLOAD LT PUSH3 0x25E JUMPI PUSH1 0x40 MLOAD PUSH3 0x461BCD PUSH1 0xE5 SHL DUP2 MSTORE PUSH1 0x20 PUSH1 0x4 DUP3 ADD MSTORE PUSH1 0x32 PUSH1 0x24 DUP3 ADD MSTORE PUSH32 0x53746172742074696D657374616D70206D757374206265206C65737320746861 PUSH1 0x44 DUP3 ADD MSTORE PUSH18 0x6E2066696E6973682074696D657374616D7 PUSH1 0x74 SHL PUSH1 0x64 DUP3 ADD MSTORE PUSH1 0x84 ADD JUMPDEST PUSH1 0x40 MLOAD DUP1 SWAP2 SUB SWAP1 REVERT JUMPDEST TIMESTAMP DUP2 PUSH1 0x20 ADD MLOAD GT PUSH3 0x2CC JUMPI PUSH1 0x40 MLOAD PUSH3 0x461BCD PUSH1 0xE5 SHL DUP2 MSTORE PUSH1 0x20 PUSH1 0x4 DUP3 ADD MSTORE PUSH1 0x30 PUSH1 0x24 DUP3 ADD MSTORE PUSH32 0x46696E6973682074696D657374616D70206D757374206265206D6F7265207468 PUSH1 0x44 DUP3 ADD MSTORE PUSH16 0x616E2063757272656E7420626C6F636B PUSH1 0x80 SHL PUSH1 0x64 DUP3 ADD MSTORE PUSH1 0x84 ADD PUSH3 0x255 JUMP JUMPDEST DUP1 MLOAD PUSH1 0xC SSTORE PUSH1 0x20 DUP2 ADD MLOAD PUSH1 0xD SSTORE PUSH1 0x40 ADD MLOAD PUSH1 0xE SSTORE JUMP JUMPDEST PUSH1 0x4 PUSH3 0x2F0 DUP3 DUP3 PUSH3 0x67F JUMP JUMPDEST POP POP JUMP JUMPDEST PUSH1 0x1 PUSH1 0x1 PUSH1 0xA0 SHL SUB DUP2 AND DUP2 EQ PUSH3 0x309 JUMPI PUSH0 DUP1 REVERT JUMPDEST POP JUMP JUMPDEST PUSH4 0x4E487B71 PUSH1 0xE0 SHL PUSH0 MSTORE PUSH1 0x41 PUSH1 0x4 MSTORE PUSH1 0x24 PUSH0 REVERT JUMPDEST PUSH1 0x40 MLOAD PUSH1 0x60 DUP2 ADD PUSH1 0x1 PUSH1 0x1 PUSH1 0x40 SHL SUB DUP2 GT DUP3 DUP3 LT OR ISZERO PUSH3 0x345 JUMPI PUSH3 0x345 PUSH3 0x30C JUMP JUMPDEST PUSH1 0x40 MSTORE SWAP1 JUMP JUMPDEST PUSH1 0x40 MLOAD PUSH1 0xE0 DUP2 ADD PUSH1 0x1 PUSH1 0x1 PUSH1 0x40 SHL SUB DUP2 GT DUP3 DUP3 LT OR ISZERO PUSH3 0x345 JUMPI PUSH3 0x345 PUSH3 0x30C JUMP JUMPDEST PUSH1 0x40 MLOAD PUSH1 0x1F DUP3 ADD PUSH1 0x1F NOT AND DUP2 ADD PUSH1 0x1 PUSH1 0x1 PUSH1 0x40 SHL SUB DUP2 GT DUP3 DUP3 LT OR ISZERO PUSH3 0x39B JUMPI PUSH3 0x39B PUSH3 0x30C JUMP JUMPDEST PUSH1 0x40 MSTORE SWAP2 SWAP1 POP JUMP JUMPDEST PUSH0 PUSH1 0x60 DUP3 DUP5 SUB SLT ISZERO PUSH3 0x3B4 JUMPI PUSH0 DUP1 REVERT JUMPDEST PUSH3 0x3BE PUSH3 0x320 JUMP JUMPDEST SWAP1 POP DUP2 MLOAD DUP2 MSTORE PUSH1 0x20 DUP3 ADD MLOAD PUSH1 0x20 DUP3 ADD MSTORE PUSH1 0x40 DUP3 ADD MLOAD PUSH1 0x40 DUP3 ADD MSTORE SWAP3 SWAP2 POP POP JUMP JUMPDEST DUP1 MLOAD PUSH3 0x3EB DUP2 PUSH3 0x2F4 JUMP JUMPDEST SWAP2 SWAP1 POP JUMP JUMPDEST PUSH0 PUSH1 0x60 DUP3 DUP5 SUB SLT ISZERO PUSH3 0x401 JUMPI PUSH0 DUP1 REVERT JUMPDEST PUSH3 0x40B PUSH3 0x320 JUMP JUMPDEST SWAP1 POP DUP2 MLOAD PUSH3 0x41A DUP2 PUSH3 0x2F4 JUMP JUMPDEST DUP2 MSTORE PUSH1 0x20 DUP3 ADD MLOAD PUSH3 0x42C DUP2 PUSH3 0x2F4 JUMP JUMPDEST PUSH1 0x20 DUP3 ADD MSTORE PUSH1 0x40 DUP3 ADD MLOAD PUSH3 0x441 DUP2 PUSH3 0x2F4 JUMP JUMPDEST PUSH1 0x40 DUP3 ADD MSTORE SWAP3 SWAP2 POP POP JUMP JUMPDEST PUSH0 DUP3 PUSH1 0x1F DUP4 ADD SLT PUSH3 0x45C JUMPI PUSH0 DUP1 REVERT JUMPDEST DUP2 MLOAD PUSH1 0x1 PUSH1 0x1 PUSH1 0x40 SHL SUB DUP2 GT ISZERO PUSH3 0x478 JUMPI PUSH3 0x478 PUSH3 0x30C JUMP JUMPDEST PUSH1 0x20 PUSH3 0x48E PUSH1 0x1F DUP4 ADD PUSH1 0x1F NOT AND DUP3 ADD PUSH3 0x370 JUMP JUMPDEST DUP3 DUP2 MSTORE DUP6 DUP3 DUP5 DUP8 ADD ADD GT ISZERO PUSH3 0x4A2 JUMPI PUSH0 DUP1 REVERT JUMPDEST PUSH0 JUMPDEST DUP4 DUP2 LT ISZERO PUSH3 0x4C1 JUMPI DUP6 DUP2 ADD DUP4 ADD MLOAD DUP3 DUP3 ADD DUP5 ADD MSTORE DUP3 ADD PUSH3 0x4A4 JUMP JUMPDEST POP PUSH0 SWAP3 DUP2 ADD SWAP1 SWAP2 ADD SWAP2 SWAP1 SWAP2 MSTORE SWAP4 SWAP3 POP POP POP JUMP JUMPDEST PUSH0 DUP1 PUSH0 DUP1 PUSH0 DUP1 DUP7 DUP9 SUB PUSH2 0x200 DUP2 SLT ISZERO PUSH3 0x4EC JUMPI PUSH0 DUP1 REVERT JUMPDEST DUP8 MLOAD PUSH3 0x4F9 DUP2 PUSH3 0x2F4 JUMP JUMPDEST SWAP7 POP PUSH1 0xE0 PUSH1 0x1F NOT DUP3 ADD SLT ISZERO PUSH3 0x50D JUMPI PUSH0 DUP1 REVERT JUMPDEST POP PUSH3 0x518 PUSH3 0x34B JUMP JUMPDEST PUSH1 0x20 DUP9 ADD MLOAD DUP2 MSTORE PUSH1 0x40 DUP9 ADD MLOAD PUSH1 0x20 DUP3 ADD MSTORE PUSH1 0x60 DUP9 ADD MLOAD PUSH1 0x40 DUP3 ADD MSTORE PUSH1 0x80 DUP9 ADD MLOAD PUSH1 0x60 DUP3 ADD MSTORE PUSH1 0xA0 DUP9 ADD MLOAD PUSH1 0x80 DUP3 ADD MSTORE PUSH1 0xC0 DUP9 ADD MLOAD PUSH1 0xA0 DUP3 ADD MSTORE PUSH1 0xE0 DUP9 ADD MLOAD PUSH1 0xC0 DUP3 ADD MSTORE DUP1 SWAP6 POP POP PUSH3 0x56F DUP9 PUSH2 0x100 DUP10 ADD PUSH3 0x3A3 JUMP JUMPDEST SWAP4 POP PUSH3 0x581 DUP9 PUSH2 0x160 DUP10 ADD PUSH3 0x3F0 JUMP JUMPDEST SWAP3 POP PUSH3 0x592 PUSH2 0x1C0 DUP9 ADD PUSH3 0x3DE JUMP JUMPDEST PUSH2 0x1E0 DUP9 ADD MLOAD SWAP1 SWAP3 POP PUSH1 0x1 PUSH1 0x1 PUSH1 0x40 SHL SUB DUP2 GT ISZERO PUSH3 0x5AF JUMPI PUSH0 DUP1 REVERT JUMPDEST PUSH3 0x5BD DUP10 DUP3 DUP11 ADD PUSH3 0x44C JUMP JUMPDEST SWAP2 POP POP SWAP3 SWAP6 POP SWAP3 SWAP6 POP SWAP3 SWAP6 JUMP JUMPDEST PUSH0 PUSH1 0x20 DUP3 DUP5 SUB SLT ISZERO PUSH3 0x5DB JUMPI PUSH0 DUP1 REVERT JUMPDEST DUP2 MLOAD PUSH1 0xFF DUP2 AND DUP2 EQ PUSH3 0x5EC JUMPI PUSH0 DUP1 REVERT JUMPDEST SWAP4 SWAP3 POP POP POP JUMP JUMPDEST PUSH1 0x1 DUP2 DUP2 SHR SWAP1 DUP3 AND DUP1 PUSH3 0x608 JUMPI PUSH1 0x7F DUP3 AND SWAP2 POP JUMPDEST PUSH1 0x20 DUP3 LT DUP2 SUB PUSH3 0x627 JUMPI PUSH4 0x4E487B71 PUSH1 0xE0 SHL PUSH0 MSTORE PUSH1 0x22 PUSH1 0x4 MSTORE PUSH1 0x24 PUSH0 REVERT JUMPDEST POP SWAP2 SWAP1 POP JUMP JUMPDEST PUSH1 0x1F DUP3 GT ISZERO PUSH3 0x67A JUMPI PUSH0 DUP2 DUP2 MSTORE PUSH1 0x20 DUP2 KECCAK256 PUSH1 0x1F DUP6 ADD PUSH1 0x5 SHR DUP2 ADD PUSH1 0x20 DUP7 LT ISZERO PUSH3 0x655 JUMPI POP DUP1 JUMPDEST PUSH1 0x1F DUP6 ADD PUSH1 0x5 SHR DUP3 ADD SWAP2 POP JUMPDEST DUP2 DUP2 LT ISZERO PUSH3 0x676 JUMPI DUP3 DUP2 SSTORE PUSH1 0x1 ADD PUSH3 0x661 JUMP JUMPDEST POP POP POP JUMPDEST POP POP POP JUMP JUMPDEST DUP2 MLOAD PUSH1 0x1 PUSH1 0x1 PUSH1 0x40 SHL SUB DUP2 GT ISZERO PUSH3 0x69B JUMPI PUSH3 0x69B PUSH3 0x30C JUMP JUMPDEST PUSH3 0x6B3 DUP2 PUSH3 0x6AC DUP5 SLOAD PUSH3 0x5F3 JUMP JUMPDEST DUP5 PUSH3 0x62D JUMP JUMPDEST PUSH1 0x20 DUP1 PUSH1 0x1F DUP4 GT PUSH1 0x1 DUP2 EQ PUSH3 0x6E9 JUMPI PUSH0 DUP5 ISZERO PUSH3 0x6D1 JUMPI POP DUP6 DUP4 ADD MLOAD JUMPDEST PUSH0 NOT PUSH1 0x3 DUP7 SWAP1 SHL SHR NOT AND PUSH1 0x1 DUP6 SWAP1 SHL OR DUP6 SSTORE PUSH3 0x676 JUMP JUMPDEST PUSH0 DUP6 DUP2 MSTORE PUSH1 0x20 DUP2 KECCAK256 PUSH1 0x1F NOT DUP7 AND SWAP2 JUMPDEST DUP3 DUP2 LT ISZERO PUSH3 0x719 JUMPI DUP9 DUP7 ADD MLOAD DUP3 SSTORE SWAP5 DUP5 ADD SWAP5 PUSH1 0x1 SWAP1 SWAP2 ADD SWAP1 DUP5 ADD PUSH3 0x6F8 JUMP JUMPDEST POP DUP6 DUP3 LT ISZERO PUSH3 0x737 JUMPI DUP8 DUP6 ADD MLOAD PUSH0 NOT PUSH1 0x3 DUP9 SWAP1 SHL PUSH1 0xF8 AND SHR NOT AND DUP2 SSTORE JUMPDEST POP POP POP POP POP PUSH1 0x1 SWAP1 DUP2 SHL ADD SWAP1 SSTORE POP JUMP JUMPDEST PUSH2 0x1E5D DUP1 PUSH3 0x755 PUSH0 CODECOPY PUSH0 RETURN INVALID PUSH1 0x80 PUSH1 0x40 MSTORE PUSH1 0x4 CALLDATASIZE LT PUSH2 0x195 JUMPI PUSH0 CALLDATALOAD PUSH1 0xE0 SHR DUP1 PUSH4 0x71007509 GT PUSH2 0xE7 JUMPI DUP1 PUSH4 0xD8D2A56D GT PUSH2 0x87 JUMPI DUP1 PUSH4 0xF2FDE38B GT PUSH2 0x62 JUMPI DUP1 PUSH4 0xF2FDE38B EQ PUSH2 0x4A6 JUMPI DUP1 PUSH4 0xF7C618C1 EQ PUSH2 0x4C5 JUMPI DUP1 PUSH4 0xF84B903E EQ PUSH2 0x4E4 JUMPI DUP1 PUSH4 0xFD46A171 EQ PUSH2 0x50D JUMPI PUSH0 DUP1 REVERT JUMPDEST DUP1 PUSH4 0xD8D2A56D EQ PUSH2 0x429 JUMPI DUP1 PUSH4 0xDDEAE033 EQ PUSH2 0x47F JUMPI DUP1 PUSH4 0xE086E5EC EQ PUSH2 0x49E JUMPI PUSH0 DUP1 REVERT JUMPDEST DUP1 PUSH4 0x8DA5CB5B GT PUSH2 0xC2 JUMPI DUP1 PUSH4 0x8DA5CB5B EQ PUSH2 0x3C5 JUMPI DUP1 PUSH4 0xC45A0155 EQ PUSH2 0x3E1 JUMPI DUP1 PUSH4 0xC6A0E27D EQ PUSH2 0x400 JUMPI DUP1 PUSH4 0xCB2EF6F7 EQ PUSH2 0x414 JUMPI PUSH0 DUP1 REVERT JUMPDEST DUP1 PUSH4 0x71007509 EQ PUSH2 0x37E JUMPI DUP1 PUSH4 0x715018A6 EQ PUSH2 0x392 JUMPI DUP1 PUSH4 0x747DAEC5 EQ PUSH2 0x3A6 JUMPI PUSH0 DUP1 REVERT JUMPDEST DUP1 PUSH4 0x3F138D4B GT PUSH2 0x152 JUMPI DUP1 PUSH4 0x4E71D92D GT PUSH2 0x12D JUMPI DUP1 PUSH4 0x4E71D92D EQ PUSH2 0x32D JUMPI DUP1 PUSH4 0x586360CE EQ PUSH2 0x341 JUMPI DUP1 PUSH4 0x590E1AE3 EQ PUSH2 0x356 JUMPI DUP1 PUSH4 0x62BEA93F EQ PUSH2 0x36A JUMPI PUSH0 DUP1 REVERT JUMPDEST DUP1 PUSH4 0x3F138D4B EQ PUSH2 0x2DB JUMPI DUP1 PUSH4 0x491447A8 EQ PUSH2 0x2FA JUMPI DUP1 PUSH4 0x4B1A4C0C EQ PUSH2 0x318 JUMPI PUSH0 DUP1 REVERT JUMPDEST DUP1 PUSH4 0x12D3675E EQ PUSH2 0x199 JUMPI DUP1 PUSH4 0x1959A002 EQ PUSH2 0x201 JUMPI DUP1 PUSH4 0x1B9265B8 EQ PUSH2 0x256 JUMPI DUP1 PUSH4 0x2A123B16 EQ PUSH2 0x260 JUMPI DUP1 PUSH4 0x2DCC8C66 EQ PUSH2 0x297 JUMPI DUP1 PUSH4 0x313CE567 EQ PUSH2 0x2B8 JUMPI JUMPDEST PUSH0 DUP1 REVERT JUMPDEST CALLVALUE DUP1 ISZERO PUSH2 0x1A4 JUMPI PUSH0 DUP1 REVERT JUMPDEST POP PUSH1 0x5 SLOAD PUSH1 0x6 SLOAD PUSH1 0x7 SLOAD PUSH1 0x8 SLOAD PUSH1 0x9 SLOAD PUSH1 0xA SLOAD PUSH1 0xB SLOAD PUSH2 0x1C7 SWAP7 SWAP6 SWAP5 SWAP4 SWAP3 SWAP2 SWAP1 DUP8 JUMP JUMPDEST PUSH1 0x40 DUP1 MLOAD SWAP8 DUP9 MSTORE PUSH1 0x20 DUP9 ADD SWAP7 SWAP1 SWAP7 MSTORE SWAP5 DUP7 ADD SWAP4 SWAP1 SWAP4 MSTORE PUSH1 0x60 DUP6 ADD SWAP2 SWAP1 SWAP2 MSTORE PUSH1 0x80 DUP5 ADD MSTORE PUSH1 0xA0 DUP4 ADD MSTORE PUSH1 0xC0 DUP3 ADD MSTORE PUSH1 0xE0 ADD JUMPDEST PUSH1 0x40 MLOAD DUP1 SWAP2 SUB SWAP1 RETURN JUMPDEST CALLVALUE DUP1 ISZERO PUSH2 0x20C JUMPI PUSH0 DUP1 REVERT JUMPDEST POP PUSH2 0x23B PUSH2 0x21B CALLDATASIZE PUSH1 0x4 PUSH2 0x17DE JUMP JUMPDEST PUSH1 0x17 PUSH1 0x20 MSTORE PUSH0 SWAP1 DUP2 MSTORE PUSH1 0x40 SWAP1 KECCAK256 DUP1 SLOAD PUSH1 0x1 DUP3 ADD SLOAD PUSH1 0x2 SWAP1 SWAP3 ADD SLOAD SWAP1 SWAP2 SWAP1 DUP4 JUMP JUMPDEST PUSH1 0x40 DUP1 MLOAD SWAP4 DUP5 MSTORE PUSH1 0x20 DUP5 ADD SWAP3 SWAP1 SWAP3 MSTORE SWAP1 DUP3 ADD MSTORE PUSH1 0x60 ADD PUSH2 0x1F8 JUMP JUMPDEST PUSH2 0x25E PUSH2 0x522 JUMP JUMPDEST STOP JUMPDEST CALLVALUE DUP1 ISZERO PUSH2 0x26B JUMPI PUSH0 DUP1 REVERT JUMPDEST POP PUSH1 0x12 SLOAD PUSH2 0x27F SWAP1 PUSH1 0x1 PUSH1 0x1 PUSH1 0xA0 SHL SUB AND DUP2 JUMP JUMPDEST PUSH1 0x40 MLOAD PUSH1 0x1 PUSH1 0x1 PUSH1 0xA0 SHL SUB SWAP1 SWAP2 AND DUP2 MSTORE PUSH1 0x20 ADD PUSH2 0x1F8 JUMP JUMPDEST CALLVALUE DUP1 ISZERO PUSH2 0x2A2 JUMPI PUSH0 DUP1 REVERT JUMPDEST POP PUSH2 0x2AB PUSH2 0x789 JUMP JUMPDEST PUSH1 0x40 MLOAD PUSH2 0x1F8 SWAP2 SWAP1 PUSH2 0x184D JUMP JUMPDEST CALLVALUE DUP1 ISZERO PUSH2 0x2C3 JUMPI PUSH0 DUP1 REVERT JUMPDEST POP PUSH2 0x2CD PUSH1 0x3 SLOAD DUP2 JUMP JUMPDEST PUSH1 0x40 MLOAD SWAP1 DUP2 MSTORE PUSH1 0x20 ADD PUSH2 0x1F8 JUMP JUMPDEST CALLVALUE DUP1 ISZERO PUSH2 0x2E6 JUMPI PUSH0 DUP1 REVERT JUMPDEST POP PUSH2 0x25E PUSH2 0x2F5 CALLDATASIZE PUSH1 0x4 PUSH2 0x185F JUMP JUMPDEST PUSH2 0x815 JUMP JUMPDEST CALLVALUE DUP1 ISZERO PUSH2 0x305 JUMPI PUSH0 DUP1 REVERT JUMPDEST POP PUSH1 0xC SLOAD PUSH1 0xD SLOAD PUSH1 0xE SLOAD PUSH2 0x23B SWAP3 SWAP2 SWAP1 DUP4 JUMP JUMPDEST CALLVALUE DUP1 ISZERO PUSH2 0x323 JUMPI PUSH0 DUP1 REVERT JUMPDEST POP PUSH2 0x2CD PUSH1 0x14 SLOAD DUP2 JUMP JUMPDEST CALLVALUE DUP1 ISZERO PUSH2 0x338 JUMPI PUSH0 DUP1 REVERT JUMPDEST POP PUSH2 0x25E PUSH2 0x84F JUMP JUMPDEST CALLVALUE DUP1 ISZERO PUSH2 0x34C JUMPI PUSH0 DUP1 REVERT JUMPDEST POP PUSH2 0x2CD PUSH1 0x15 SLOAD DUP2 JUMP JUMPDEST CALLVALUE DUP1 ISZERO PUSH2 0x361 JUMPI PUSH0 DUP1 REVERT JUMPDEST POP PUSH2 0x25E PUSH2 0x85A JUMP JUMPDEST CALLVALUE DUP1 ISZERO PUSH2 0x375 JUMPI PUSH0 DUP1 REVERT JUMPDEST POP PUSH2 0x2CD PUSH2 0x9A8 JUMP JUMPDEST CALLVALUE DUP1 ISZERO PUSH2 0x389 JUMPI PUSH0 DUP1 REVERT JUMPDEST POP PUSH2 0x25E PUSH2 0xA3F JUMP JUMPDEST CALLVALUE DUP1 ISZERO PUSH2 0x39D JUMPI PUSH0 DUP1 REVERT JUMPDEST POP PUSH2 0x25E PUSH2 0xB9C JUMP JUMPDEST CALLVALUE DUP1 ISZERO PUSH2 0x3B1 JUMPI PUSH0 DUP1 REVERT JUMPDEST POP PUSH2 0x25E PUSH2 0x3C0 CALLDATASIZE PUSH1 0x4 PUSH2 0x18F5 JUMP JUMPDEST PUSH2 0xBAD JUMP JUMPDEST CALLVALUE DUP1 ISZERO PUSH2 0x3D0 JUMPI PUSH0 DUP1 REVERT JUMPDEST POP PUSH0 SLOAD PUSH1 0x1 PUSH1 0x1 PUSH1 0xA0 SHL SUB AND PUSH2 0x27F JUMP JUMPDEST CALLVALUE DUP1 ISZERO PUSH2 0x3EC JUMPI PUSH0 DUP1 REVERT JUMPDEST POP PUSH1 0x19 SLOAD PUSH2 0x27F SWAP1 PUSH1 0x1 PUSH1 0x1 PUSH1 0xA0 SHL SUB AND DUP2 JUMP JUMPDEST CALLVALUE DUP1 ISZERO PUSH2 0x40B JUMPI PUSH0 DUP1 REVERT JUMPDEST POP PUSH2 0x25E PUSH2 0xBB9 JUMP JUMPDEST CALLVALUE DUP1 ISZERO PUSH2 0x41F JUMPI PUSH0 DUP1 REVERT JUMPDEST POP PUSH2 0x2CD PUSH1 0x18 SLOAD DUP2 JUMP JUMPDEST CALLVALUE DUP1 ISZERO PUSH2 0x434 JUMPI PUSH0 DUP1 REVERT JUMPDEST POP PUSH1 0xF SLOAD PUSH1 0x10 SLOAD PUSH1 0x11 SLOAD PUSH2 0x455 SWAP3 PUSH1 0x1 PUSH1 0x1 PUSH1 0xA0 SHL SUB SWAP1 DUP2 AND SWAP3 DUP2 AND SWAP2 AND DUP4 JUMP JUMPDEST PUSH1 0x40 DUP1 MLOAD PUSH1 0x1 PUSH1 0x1 PUSH1 0xA0 SHL SUB SWAP5 DUP6 AND DUP2 MSTORE SWAP3 DUP5 AND PUSH1 0x20 DUP5 ADD MSTORE SWAP3 AND SWAP2 DUP2 ADD SWAP2 SWAP1 SWAP2 MSTORE PUSH1 0x60 ADD PUSH2 0x1F8 JUMP JUMPDEST CALLVALUE DUP1 ISZERO PUSH2 0x48A JUMPI PUSH0 DUP1 REVERT JUMPDEST POP PUSH2 0x25E PUSH2 0x499 CALLDATASIZE PUSH1 0x4 PUSH2 0x17DE JUMP JUMPDEST PUSH2 0xC85 JUMP JUMPDEST PUSH2 0x25E PUSH2 0xC8E JUMP JUMPDEST CALLVALUE DUP1 ISZERO PUSH2 0x4B1 JUMPI PUSH0 DUP1 REVERT JUMPDEST POP PUSH2 0x25E PUSH2 0x4C0 CALLDATASIZE PUSH1 0x4 PUSH2 0x17DE JUMP JUMPDEST PUSH2 0x1238 JUMP JUMPDEST CALLVALUE DUP1 ISZERO PUSH2 0x4D0 JUMPI PUSH0 DUP1 REVERT JUMPDEST POP PUSH1 0x2 SLOAD PUSH2 0x27F SWAP1 PUSH1 0x1 PUSH1 0x1 PUSH1 0xA0 SHL SUB AND DUP2 JUMP JUMPDEST CALLVALUE DUP1 ISZERO PUSH2 0x4EF JUMPI PUSH0 DUP1 REVERT JUMPDEST POP PUSH1 0x16 SLOAD PUSH2 0x4FD SWAP1 PUSH1 0xFF AND DUP2 JUMP JUMPDEST PUSH1 0x40 MLOAD SWAP1 ISZERO ISZERO DUP2 MSTORE PUSH1 0x20 ADD PUSH2 0x1F8 JUMP JUMPDEST CALLVALUE DUP1 ISZERO PUSH2 0x518 JUMPI PUSH0 DUP1 REVERT JUMPDEST POP PUSH2 0x2CD PUSH1 0x13 SLOAD DUP2 JUMP JUMPDEST PUSH1 0xC SLOAD TIMESTAMP LT ISZERO PUSH2 0x567 JUMPI PUSH1 0x40 MLOAD PUSH3 0x461BCD PUSH1 0xE5 SHL DUP2 MSTORE PUSH1 0x20 PUSH1 0x4 DUP3 ADD MSTORE PUSH1 0xB PUSH1 0x24 DUP3 ADD MSTORE PUSH11 0x139BDD081CDD185C9D1959 PUSH1 0xAA SHL PUSH1 0x44 DUP3 ADD MSTORE PUSH1 0x64 ADD JUMPDEST PUSH1 0x40 MLOAD DUP1 SWAP2 SUB SWAP1 REVERT JUMPDEST PUSH1 0xD SLOAD TIMESTAMP LT PUSH2 0x5A0 JUMPI PUSH1 0x40 MLOAD PUSH3 0x461BCD PUSH1 0xE5 SHL DUP2 MSTORE PUSH1 0x20 PUSH1 0x4 DUP3 ADD MSTORE PUSH1 0x5 PUSH1 0x24 DUP3 ADD MSTORE PUSH5 0x115B991959 PUSH1 0xDA SHL PUSH1 0x44 DUP3 ADD MSTORE PUSH1 0x64 ADD PUSH2 0x55E JUMP JUMPDEST PUSH1 0x8 SLOAD CALLVALUE LT ISZERO PUSH2 0x5E9 JUMPI PUSH1 0x40 MLOAD PUSH3 0x461BCD PUSH1 0xE5 SHL DUP2 MSTORE PUSH1 0x20 PUSH1 0x4 DUP3 ADD MSTORE PUSH1 0x14 PUSH1 0x24 DUP3 ADD MSTORE PUSH20 0x13195CDCC81D1A195B881B5A5B88185B5BDD5B9D PUSH1 0x62 SHL PUSH1 0x44 DUP3 ADD MSTORE PUSH1 0x64 ADD PUSH2 0x55E JUMP JUMPDEST PUSH1 0x9 SLOAD CALLVALUE GT ISZERO PUSH2 0x632 JUMPI PUSH1 0x40 MLOAD PUSH3 0x461BCD PUSH1 0xE5 SHL DUP2 MSTORE PUSH1 0x20 PUSH1 0x4 DUP3 ADD MSTORE PUSH1 0x14 PUSH1 0x24 DUP3 ADD MSTORE PUSH20 0x135BDC99481D1A195B881B585E08185B5BDD5B9D PUSH1 0x62 SHL PUSH1 0x44 DUP3 ADD MSTORE PUSH1 0x64 ADD PUSH2 0x55E JUMP JUMPDEST PUSH1 0x7 SLOAD PUSH1 0x13 SLOAD PUSH2 0x642 SWAP1 CALLVALUE PUSH2 0x12AE JUMP JUMPDEST GT ISZERO PUSH2 0x67D JUMPI PUSH1 0x40 MLOAD PUSH3 0x461BCD PUSH1 0xE5 SHL DUP2 MSTORE PUSH1 0x20 PUSH1 0x4 DUP3 ADD MSTORE PUSH1 0xA PUSH1 0x24 DUP3 ADD MSTORE PUSH10 0x13DD995C999A5B1B1959 PUSH1 0xB2 SHL PUSH1 0x44 DUP3 ADD MSTORE PUSH1 0x64 ADD PUSH2 0x55E JUMP JUMPDEST CALLER PUSH0 SWAP1 DUP2 MSTORE PUSH1 0x17 PUSH1 0x20 MSTORE PUSH1 0x40 SWAP1 KECCAK256 PUSH1 0x9 SLOAD PUSH1 0x2 DUP3 ADD SLOAD PUSH2 0x69D SWAP1 CALLVALUE PUSH2 0x12AE JUMP JUMPDEST GT ISZERO PUSH2 0x6E2 JUMPI PUSH1 0x40 MLOAD PUSH3 0x461BCD PUSH1 0xE5 SHL DUP2 MSTORE PUSH1 0x20 PUSH1 0x4 DUP3 ADD MSTORE PUSH1 0x14 PUSH1 0x24 DUP3 ADD MSTORE PUSH20 0x135BDC99481D1A195B881B585E08185B5BDD5B9D PUSH1 0x62 SHL PUSH1 0x44 DUP3 ADD MSTORE PUSH1 0x64 ADD PUSH2 0x55E JUMP JUMPDEST PUSH0 PUSH2 0x6F1 CALLVALUE PUSH1 0x5 PUSH0 ADD SLOAD PUSH2 0x12C2 JUMP JUMPDEST PUSH1 0x13 SLOAD SWAP1 SWAP2 POP PUSH2 0x701 SWAP1 CALLVALUE PUSH2 0x12AE JUMP JUMPDEST PUSH1 0x13 SSTORE PUSH1 0x14 SLOAD PUSH2 0x711 SWAP1 DUP3 PUSH2 0x12AE JUMP JUMPDEST PUSH1 0x14 SSTORE PUSH1 0x2 DUP3 ADD SLOAD PUSH2 0x723 SWAP1 CALLVALUE PUSH2 0x12AE JUMP JUMPDEST PUSH1 0x2 DUP4 ADD SSTORE PUSH1 0x1 DUP3 ADD SLOAD PUSH2 0x737 SWAP1 DUP3 PUSH2 0x12AE JUMP JUMPDEST PUSH1 0x1 DUP4 ADD SSTORE DUP2 SLOAD PUSH2 0x748 SWAP1 DUP3 PUSH2 0x12AE JUMP JUMPDEST DUP3 SSTORE PUSH1 0x40 DUP1 MLOAD CALLVALUE DUP2 MSTORE PUSH1 0x20 DUP2 ADD DUP4 SWAP1 MSTORE CALLER SWAP2 PUSH32 0xB55D4CA2FC644CA3F8CDC9C907826E24ACD68D2B2D4D73F48B8F2378DBAEDF5D SWAP2 ADD PUSH1 0x40 MLOAD DUP1 SWAP2 SUB SWAP1 LOG2 POP POP JUMP JUMPDEST PUSH1 0x4 DUP1 SLOAD PUSH2 0x796 SWAP1 PUSH2 0x196F JUMP JUMPDEST DUP1 PUSH1 0x1F ADD PUSH1 0x20 DUP1 SWAP2 DIV MUL PUSH1 0x20 ADD PUSH1 0x40 MLOAD SWAP1 DUP2 ADD PUSH1 0x40 MSTORE DUP1 SWAP3 SWAP2 SWAP1 DUP2 DUP2 MSTORE PUSH1 0x20 ADD DUP3 DUP1 SLOAD PUSH2 0x7C2 SWAP1 PUSH2 0x196F JUMP JUMPDEST DUP1 ISZERO PUSH2 0x80D JUMPI DUP1 PUSH1 0x1F LT PUSH2 0x7E4 JUMPI PUSH2 0x100 DUP1 DUP4 SLOAD DIV MUL DUP4 MSTORE SWAP2 PUSH1 0x20 ADD SWAP2 PUSH2 0x80D JUMP JUMPDEST DUP3 ADD SWAP2 SWAP1 PUSH0 MSTORE PUSH1 0x20 PUSH0 KECCAK256 SWAP1 JUMPDEST DUP2 SLOAD DUP2 MSTORE SWAP1 PUSH1 0x1 ADD SWAP1 PUSH1 0x20 ADD DUP1 DUP4 GT PUSH2 0x7F0 JUMPI DUP3 SWAP1 SUB PUSH1 0x1F AND DUP3 ADD SWAP2 JUMPDEST POP POP POP POP POP DUP2 JUMP JUMPDEST PUSH2 0x81D PUSH2 0x12E6 JUMP JUMPDEST PUSH1 0x2 SLOAD PUSH1 0x1 PUSH1 0x1 PUSH1 0xA0 SHL SUB SWAP1 DUP2 AND SWAP1 DUP4 AND SUB PUSH2 0x837 JUMPI PUSH0 DUP1 REVERT JUMPDEST PUSH2 0x84B PUSH1 0x1 PUSH1 0x1 PUSH1 0xA0 SHL SUB DUP4 AND CALLER DUP4 PUSH2 0x133F JUMP JUMPDEST POP POP JUMP JUMPDEST PUSH2 0x858 CALLER PUSH2 0x1391 JUMP JUMPDEST JUMP JUMPDEST PUSH1 0xD SLOAD TIMESTAMP GT PUSH2 0x87B JUMPI PUSH1 0x40 MLOAD PUSH3 0x461BCD PUSH1 0xE5 SHL DUP2 MSTORE PUSH1 0x4 ADD PUSH2 0x55E SWAP1 PUSH2 0x19A7 JUMP JUMPDEST PUSH1 0x6 SLOAD PUSH1 0x13 SLOAD LT PUSH2 0x8CE JUMPI PUSH1 0x40 MLOAD PUSH3 0x461BCD PUSH1 0xE5 SHL DUP2 MSTORE PUSH1 0x20 PUSH1 0x4 DUP3 ADD DUP2 SWAP1 MSTORE PUSH1 0x24 DUP3 ADD MSTORE PUSH32 0x5468652049444F20706F6F6C2068617320726561636820736F6674206361702E PUSH1 0x44 DUP3 ADD MSTORE PUSH1 0x64 ADD PUSH2 0x55E JUMP JUMPDEST CALLER PUSH0 SWAP1 DUP2 MSTORE PUSH1 0x17 PUSH1 0x20 MSTORE PUSH1 0x40 SWAP1 KECCAK256 PUSH1 0x2 DUP2 ADD SLOAD DUP1 PUSH2 0x92E JUMPI PUSH1 0x40 MLOAD PUSH3 0x461BCD PUSH1 0xE5 SHL DUP2 MSTORE PUSH1 0x20 PUSH1 0x4 DUP3 ADD MSTORE PUSH1 0x17 PUSH1 0x24 DUP3 ADD MSTORE PUSH32 0x596F752068617665206E6F20696E766573746D656E742E000000000000000000 PUSH1 0x44 DUP3 ADD MSTORE PUSH1 0x64 ADD PUSH2 0x55E JUMP JUMPDEST PUSH0 DUP1 DUP4 SSTORE PUSH1 0x2 DUP4 ADD DUP2 SWAP1 SSTORE PUSH1 0x1 DUP4 ADD DUP2 SWAP1 SSTORE PUSH1 0x40 MLOAD CALLER SWAP1 DUP4 SWAP1 DUP4 DUP2 DUP2 DUP2 DUP6 DUP8 GAS CALL SWAP3 POP POP POP RETURNDATASIZE DUP1 PUSH0 DUP2 EQ PUSH2 0x97D JUMPI PUSH1 0x40 MLOAD SWAP2 POP PUSH1 0x1F NOT PUSH1 0x3F RETURNDATASIZE ADD AND DUP3 ADD PUSH1 0x40 MSTORE RETURNDATASIZE DUP3 MSTORE RETURNDATASIZE PUSH0 PUSH1 0x20 DUP5 ADD RETURNDATACOPY PUSH2 0x982 JUMP JUMPDEST PUSH1 0x60 SWAP2 POP JUMPDEST POP POP SWAP1 POP DUP1 PUSH2 0x9A3 JUMPI PUSH1 0x40 MLOAD PUSH3 0x461BCD PUSH1 0xE5 SHL DUP2 MSTORE PUSH1 0x4 ADD PUSH2 0x55E SWAP1 PUSH2 0x19DE JUMP JUMPDEST POP POP POP JUMP JUMPDEST PUSH1 0x2 SLOAD PUSH1 0x40 MLOAD PUSH4 0x70A08231 PUSH1 0xE0 SHL DUP2 MSTORE ADDRESS PUSH1 0x4 DUP3 ADD MSTORE PUSH0 SWAP2 DUP3 SWAP2 PUSH1 0x1 PUSH1 0x1 PUSH1 0xA0 SHL SUB SWAP1 SWAP2 AND SWAP1 PUSH4 0x70A08231 SWAP1 PUSH1 0x24 ADD PUSH1 0x20 PUSH1 0x40 MLOAD DUP1 DUP4 SUB DUP2 DUP7 GAS STATICCALL ISZERO DUP1 ISZERO PUSH2 0x9F2 JUMPI RETURNDATASIZE PUSH0 DUP1 RETURNDATACOPY RETURNDATASIZE PUSH0 REVERT JUMPDEST POP POP POP POP PUSH1 0x40 MLOAD RETURNDATASIZE PUSH1 0x1F NOT PUSH1 0x1F DUP3 ADD AND DUP3 ADD DUP1 PUSH1 0x40 MSTORE POP DUP2 ADD SWAP1 PUSH2 0xA16 SWAP2 SWAP1 PUSH2 0x1A08 JUMP JUMPDEST SWAP1 POP PUSH2 0xA39 PUSH1 0x14 SLOAD PUSH2 0xA33 PUSH1 0x15 SLOAD DUP5 PUSH2 0x12AE SWAP1 SWAP2 SWAP1 PUSH4 0xFFFFFFFF AND JUMP JUMPDEST SWAP1 PUSH2 0x14BC JUMP JUMPDEST SWAP2 POP POP SWAP1 JUMP JUMPDEST PUSH2 0xA47 PUSH2 0x12E6 JUMP JUMPDEST PUSH1 0xD SLOAD TIMESTAMP GT PUSH2 0xA68 JUMPI PUSH1 0x40 MLOAD PUSH3 0x461BCD PUSH1 0xE5 SHL DUP2 MSTORE PUSH1 0x4 ADD PUSH2 0x55E SWAP1 PUSH2 0x19A7 JUMP JUMPDEST PUSH1 0x6 SLOAD PUSH1 0x13 SLOAD LT PUSH2 0xABB JUMPI PUSH1 0x40 MLOAD PUSH3 0x461BCD PUSH1 0xE5 SHL DUP2 MSTORE PUSH1 0x20 PUSH1 0x4 DUP3 ADD DUP2 SWAP1 MSTORE PUSH1 0x24 DUP3 ADD MSTORE PUSH32 0x5468652049444F20706F6F6C2068617320726561636820736F6674206361702E PUSH1 0x44 DUP3 ADD MSTORE PUSH1 0x64 ADD PUSH2 0x55E JUMP JUMPDEST PUSH1 0x2 SLOAD PUSH1 0x40 MLOAD PUSH4 0x70A08231 PUSH1 0xE0 SHL DUP2 MSTORE ADDRESS PUSH1 0x4 DUP3 ADD MSTORE PUSH0 SWAP2 PUSH1 0x1 PUSH1 0x1 PUSH1 0xA0 SHL SUB AND SWAP1 PUSH4 0x70A08231 SWAP1 PUSH1 0x24 ADD PUSH1 0x20 PUSH1 0x40 MLOAD DUP1 DUP4 SUB DUP2 DUP7 GAS STATICCALL ISZERO DUP1 ISZERO PUSH2 0xB01 JUMPI RETURNDATASIZE PUSH0 DUP1 RETURNDATACOPY RETURNDATASIZE PUSH0 REVERT JUMPDEST POP POP POP POP PUSH1 0x40 MLOAD RETURNDATASIZE PUSH1 0x1F NOT PUSH1 0x1F DUP3 ADD AND DUP3 ADD DUP1 PUSH1 0x40 MSTORE POP DUP2 ADD SWAP1 PUSH2 0xB25 SWAP2 SWAP1 PUSH2 0x1A08 JUMP JUMPDEST SWAP1 POP PUSH0 DUP2 GT PUSH2 0xB82 JUMPI PUSH1 0x40 MLOAD PUSH3 0x461BCD PUSH1 0xE5 SHL DUP2 MSTORE PUSH1 0x20 PUSH1 0x4 DUP3 ADD MSTORE PUSH1 0x23 PUSH1 0x24 DUP3 ADD MSTORE PUSH32 0x5468652049444F20706F6F6C20686173206E6F7420726566756E6420746F6B65 PUSH1 0x44 DUP3 ADD MSTORE PUSH3 0x373997 PUSH1 0xE9 SHL PUSH1 0x64 DUP3 ADD MSTORE PUSH1 0x84 ADD PUSH2 0x55E JUMP JUMPDEST PUSH1 0x2 SLOAD PUSH2 0xB99 SWAP1 PUSH1 0x1 PUSH1 0x1 PUSH1 0xA0 SHL SUB AND CALLER DUP4 PUSH2 0x133F JUMP JUMPDEST POP JUMP JUMPDEST PUSH2 0xBA4 PUSH2 0x12E6 JUMP JUMPDEST PUSH2 0x858 PUSH0 PUSH2 0x14C7 JUMP JUMPDEST PUSH1 0x4 PUSH2 0x84B DUP3 DUP3 PUSH2 0x1A6C JUMP JUMPDEST PUSH2 0xBC1 PUSH2 0x12E6 JUMP JUMPDEST PUSH1 0x16 SLOAD PUSH1 0xFF AND PUSH2 0xC1F JUMPI PUSH1 0x40 MLOAD PUSH3 0x461BCD PUSH1 0xE5 SHL DUP2 MSTORE PUSH1 0x20 PUSH1 0x4 DUP3 ADD MSTORE PUSH1 0x23 PUSH1 0x24 DUP3 ADD MSTORE PUSH32 0x576974686472617720616C6C6F77656420616674657220646973747269627574 PUSH1 0x44 DUP3 ADD MSTORE PUSH3 0x32B217 PUSH1 0xE9 SHL PUSH1 0x64 DUP3 ADD MSTORE PUSH1 0x84 ADD PUSH2 0x55E JUMP JUMPDEST PUSH0 PUSH2 0xC28 PUSH2 0x9A8 JUMP JUMPDEST SWAP1 POP PUSH0 DUP2 GT PUSH2 0xB82 JUMPI PUSH1 0x40 MLOAD PUSH3 0x461BCD PUSH1 0xE5 SHL DUP2 MSTORE PUSH1 0x20 PUSH1 0x4 DUP3 ADD MSTORE PUSH1 0x23 PUSH1 0x24 DUP3 ADD MSTORE PUSH32 0x5468652049444F20706F6F6C20686173206E6F7420756E736F6C6420746F6B65 PUSH1 0x44 DUP3 ADD MSTORE PUSH3 0x373997 PUSH1 0xE9 SHL PUSH1 0x64 DUP3 ADD MSTORE PUSH1 0x84 ADD PUSH2 0x55E JUMP JUMPDEST PUSH2 0xB99 DUP2 PUSH2 0x1391 JUMP JUMPDEST PUSH2 0xC96 PUSH2 0x12E6 JUMP JUMPDEST PUSH1 0xD SLOAD TIMESTAMP GT PUSH2 0xCB7 JUMPI PUSH1 0x40 MLOAD PUSH3 0x461BCD PUSH1 0xE5 SHL DUP2 MSTORE PUSH1 0x4 ADD PUSH2 0x55E SWAP1 PUSH2 0x19A7 JUMP JUMPDEST PUSH1 0x6 SLOAD PUSH1 0x13 SLOAD LT ISZERO PUSH2 0xCDB JUMPI PUSH1 0x40 MLOAD PUSH3 0x461BCD PUSH1 0xE5 SHL DUP2 MSTORE PUSH1 0x4 ADD PUSH2 0x55E SWAP1 PUSH2 0x1B28 JUMP JUMPDEST PUSH1 0x16 SLOAD PUSH1 0xFF AND ISZERO PUSH2 0xD25 JUMPI PUSH1 0x40 MLOAD PUSH3 0x461BCD PUSH1 0xE5 SHL DUP2 MSTORE PUSH1 0x20 PUSH1 0x4 DUP3 ADD MSTORE PUSH1 0x14 PUSH1 0x24 DUP3 ADD MSTORE PUSH20 0x20B63932B0B23C903234B9BA3934B13ABA32B217 PUSH1 0x61 SHL PUSH1 0x44 DUP3 ADD MSTORE PUSH1 0x64 ADD PUSH2 0x55E JUMP JUMPDEST PUSH1 0xB SLOAD SELFBALANCE SWAP1 ISZERO DUP1 ISZERO SWAP1 PUSH2 0xD39 JUMPI POP PUSH1 0xA SLOAD ISZERO ISZERO JUMPDEST ISZERO PUSH2 0x11C1 JUMPI PUSH2 0xD48 CALLVALUE DUP3 PUSH2 0x1B80 JUMP JUMPDEST SWAP1 POP PUSH0 PUSH1 0x64 PUSH1 0x5 PUSH1 0x6 ADD SLOAD DUP4 PUSH2 0xD5E SWAP2 SWAP1 PUSH2 0x1B93 JUMP JUMPDEST PUSH2 0xD68 SWAP2 SWAP1 PUSH2 0x1BAA JUMP JUMPDEST SWAP1 POP PUSH0 PUSH2 0xD75 DUP3 DUP5 PUSH2 0x1B80 JUMP JUMPDEST SWAP1 POP PUSH0 PUSH2 0xD86 DUP4 PUSH1 0x5 DUP1 ADD SLOAD PUSH2 0x12C2 JUMP JUMPDEST PUSH1 0xF SLOAD PUSH1 0x2 SLOAD PUSH1 0x40 MLOAD PUSH4 0x95EA7B3 PUSH1 0xE0 SHL DUP2 MSTORE PUSH1 0x1 PUSH1 0x1 PUSH1 0xA0 SHL SUB SWAP3 DUP4 AND PUSH1 0x4 DUP3 ADD DUP2 SWAP1 MSTORE PUSH1 0x24 DUP3 ADD DUP6 SWAP1 MSTORE SWAP4 SWAP5 POP SWAP2 AND SWAP1 PUSH4 0x95EA7B3 SWAP1 PUSH1 0x44 ADD PUSH1 0x20 PUSH1 0x40 MLOAD DUP1 DUP4 SUB DUP2 PUSH0 DUP8 GAS CALL ISZERO DUP1 ISZERO PUSH2 0xDDD JUMPI RETURNDATASIZE PUSH0 DUP1 RETURNDATACOPY RETURNDATASIZE PUSH0 REVERT JUMPDEST POP POP POP POP PUSH1 0x40 MLOAD RETURNDATASIZE PUSH1 0x1F NOT PUSH1 0x1F DUP3 ADD AND DUP3 ADD DUP1 PUSH1 0x40 MSTORE POP DUP2 ADD SWAP1 PUSH2 0xE01 SWAP2 SWAP1 PUSH2 0x1BC9 JUMP JUMPDEST POP PUSH1 0x2 SLOAD PUSH0 SWAP1 PUSH1 0x1 PUSH1 0x1 PUSH1 0xA0 SHL SUB DUP1 DUP5 AND SWAP2 PUSH4 0xF305D719 SWAP2 DUP9 SWAP2 AND DUP7 DUP6 DUP1 ADDRESS PUSH2 0xE2C TIMESTAMP PUSH2 0x168 PUSH2 0x1BE8 JUMP JUMPDEST PUSH1 0x40 MLOAD PUSH1 0xE0 DUP10 SWAP1 SHL PUSH1 0x1 PUSH1 0x1 PUSH1 0xE0 SHL SUB NOT AND DUP2 MSTORE PUSH1 0x1 PUSH1 0x1 PUSH1 0xA0 SHL SUB SWAP7 DUP8 AND PUSH1 0x4 DUP3 ADD MSTORE PUSH1 0x24 DUP2 ADD SWAP6 SWAP1 SWAP6 MSTORE PUSH1 0x44 DUP6 ADD SWAP4 SWAP1 SWAP4 MSTORE PUSH1 0x64 DUP5 ADD SWAP2 SWAP1 SWAP2 MSTORE SWAP1 SWAP3 AND PUSH1 0x84 DUP3 ADD MSTORE PUSH1 0xA4 DUP2 ADD SWAP2 SWAP1 SWAP2 MSTORE PUSH1 0xC4 ADD PUSH1 0x60 PUSH1 0x40 MLOAD DUP1 DUP4 SUB DUP2 DUP6 DUP9 GAS CALL ISZERO DUP1 ISZERO PUSH2 0xE97 JUMPI RETURNDATASIZE PUSH0 DUP1 RETURNDATACOPY RETURNDATASIZE PUSH0 REVERT JUMPDEST POP POP POP POP POP PUSH1 0x40 MLOAD RETURNDATASIZE PUSH1 0x1F NOT PUSH1 0x1F DUP3 ADD AND DUP3 ADD DUP1 PUSH1 0x40 MSTORE POP DUP2 ADD SWAP1 PUSH2 0xEBC SWAP2 SWAP1 PUSH2 0x1BFB JUMP JUMPDEST PUSH1 0x10 SLOAD PUSH1 0x2 SLOAD PUSH1 0x11 SLOAD PUSH1 0x40 MLOAD PUSH4 0xE6A43905 PUSH1 0xE0 SHL DUP2 MSTORE PUSH1 0x1 PUSH1 0x1 PUSH1 0xA0 SHL SUB SWAP3 DUP4 AND PUSH1 0x4 DUP3 ADD MSTORE SWAP1 DUP3 AND PUSH1 0x24 DUP3 ADD MSTORE SWAP3 SWAP6 POP PUSH0 SWAP5 POP AND SWAP2 POP PUSH4 0xE6A43905 SWAP1 PUSH1 0x44 ADD PUSH1 0x20 PUSH1 0x40 MLOAD DUP1 DUP4 SUB DUP2 DUP7 GAS STATICCALL ISZERO DUP1 ISZERO PUSH2 0xF17 JUMPI RETURNDATASIZE PUSH0 DUP1 RETURNDATACOPY RETURNDATASIZE PUSH0 REVERT JUMPDEST POP POP POP POP PUSH1 0x40 MLOAD RETURNDATASIZE PUSH1 0x1F NOT PUSH1 0x1F DUP3 ADD AND DUP3 ADD DUP1 PUSH1 0x40 MSTORE POP DUP2 ADD SWAP1 PUSH2 0xF3B SWAP2 SWAP1 PUSH2 0x1C26 JUMP JUMPDEST PUSH1 0xE SLOAD SWAP1 SWAP2 POP DUP2 SWAP1 TIMESTAMP LT ISZERO PUSH2 0x10D3 JUMPI PUSH1 0x12 SLOAD PUSH1 0x40 MLOAD PUSH4 0x95EA7B3 PUSH1 0xE0 SHL DUP2 MSTORE PUSH1 0x1 PUSH1 0x1 PUSH1 0xA0 SHL SUB SWAP2 DUP3 AND PUSH1 0x4 DUP3 ADD MSTORE PUSH1 0x24 DUP2 ADD DUP6 SWAP1 MSTORE SWAP1 DUP3 AND SWAP1 PUSH4 0x95EA7B3 SWAP1 PUSH1 0x44 ADD PUSH1 0x20 PUSH1 0x40 MLOAD DUP1 DUP4 SUB DUP2 PUSH0 DUP8 GAS CALL ISZERO DUP1 ISZERO PUSH2 0xF9A JUMPI RETURNDATASIZE PUSH0 DUP1 RETURNDATACOPY RETURNDATASIZE PUSH0 REVERT JUMPDEST POP POP POP POP PUSH1 0x40 MLOAD RETURNDATASIZE PUSH1 0x1F NOT PUSH1 0x1F DUP3 ADD AND DUP3 ADD DUP1 PUSH1 0x40 MSTORE POP DUP2 ADD SWAP1 PUSH2 0xFBE SWAP2 SWAP1 PUSH2 0x1BC9 JUMP JUMPDEST POP PUSH1 0x12 PUSH0 SWAP1 SLOAD SWAP1 PUSH2 0x100 EXP SWAP1 DIV PUSH1 0x1 PUSH1 0x1 PUSH1 0xA0 SHL SUB AND PUSH1 0x1 PUSH1 0x1 PUSH1 0xA0 SHL SUB AND PUSH4 0x3F3DBAC CALLVALUE DUP4 DUP5 PUSH1 0x1 PUSH1 0x1 PUSH1 0xA0 SHL SUB AND PUSH4 0x95D89B41 PUSH1 0x40 MLOAD DUP2 PUSH4 0xFFFFFFFF AND PUSH1 0xE0 SHL DUP2 MSTORE PUSH1 0x4 ADD PUSH0 PUSH1 0x40 MLOAD DUP1 DUP4 SUB DUP2 DUP7 GAS STATICCALL ISZERO DUP1 ISZERO PUSH2 0x101F JUMPI RETURNDATASIZE PUSH0 DUP1 RETURNDATACOPY RETURNDATASIZE PUSH0 REVERT JUMPDEST POP POP POP POP PUSH1 0x40 MLOAD RETURNDATASIZE PUSH0 DUP3 RETURNDATACOPY PUSH1 0x1F RETURNDATASIZE SWAP1 DUP2 ADD PUSH1 0x1F NOT AND DUP3 ADD PUSH1 0x40 MSTORE PUSH2 0x1046 SWAP2 SWAP1 DUP2 ADD SWAP1 PUSH2 0x1C41 JUMP JUMPDEST PUSH1 0x40 MLOAD PUSH1 0x20 ADD PUSH2 0x1056 SWAP2 SWAP1 PUSH2 0x1CB3 JUMP JUMPDEST PUSH1 0x40 DUP1 MLOAD PUSH1 0x1F NOT DUP2 DUP5 SUB ADD DUP2 MSTORE SWAP1 DUP3 SWAP1 MSTORE PUSH1 0xE SLOAD PUSH1 0x1 PUSH1 0x1 PUSH1 0xE0 SHL SUB NOT PUSH1 0xE0 DUP8 SWAP1 SHL AND DUP4 MSTORE PUSH2 0x108C SWAP4 SWAP3 DUP11 SWAP2 CALLER SWAP2 PUSH1 0x4 ADD PUSH2 0x1CE4 JUMP JUMPDEST PUSH1 0x20 PUSH1 0x40 MLOAD DUP1 DUP4 SUB DUP2 DUP6 DUP9 GAS CALL ISZERO DUP1 ISZERO PUSH2 0x10A8 JUMPI RETURNDATASIZE PUSH0 DUP1 RETURNDATACOPY RETURNDATASIZE PUSH0 REVERT JUMPDEST POP POP POP POP POP PUSH1 0x40 MLOAD RETURNDATASIZE PUSH1 0x1F NOT PUSH1 0x1F DUP3 ADD AND DUP3 ADD DUP1 PUSH1 0x40 MSTORE POP DUP2 ADD SWAP1 PUSH2 0x10CD SWAP2 SWAP1 PUSH2 0x1C26 JUMP JUMPDEST POP PUSH2 0x114F JUMP JUMPDEST PUSH1 0x40 MLOAD PUSH4 0xA9059CBB PUSH1 0xE0 SHL DUP2 MSTORE CALLER PUSH1 0x4 DUP3 ADD MSTORE PUSH1 0x24 DUP2 ADD DUP5 SWAP1 MSTORE PUSH1 0x1 PUSH1 0x1 PUSH1 0xA0 SHL SUB DUP3 AND SWAP1 PUSH4 0xA9059CBB SWAP1 PUSH1 0x44 ADD PUSH1 0x20 PUSH1 0x40 MLOAD DUP1 DUP4 SUB DUP2 PUSH0 DUP8 GAS CALL ISZERO DUP1 ISZERO PUSH2 0x111D JUMPI RETURNDATASIZE PUSH0 DUP1 RETURNDATACOPY RETURNDATASIZE PUSH0 REVERT JUMPDEST POP POP POP POP PUSH1 0x40 MLOAD RETURNDATASIZE PUSH1 0x1F NOT PUSH1 0x1F DUP3 ADD AND DUP3 ADD DUP1 PUSH1 0x40 MSTORE POP DUP2 ADD SWAP1 PUSH2 0x1141 SWAP2 SWAP1 PUSH2 0x1BC9 JUMP JUMPDEST POP PUSH2 0x114C CALLVALUE DUP8 PUSH2 0x1BE8 JUMP JUMPDEST SWAP6 POP JUMPDEST PUSH1 0x40 MLOAD PUSH0 SWAP1 CALLER SWAP1 DUP9 SWAP1 DUP4 DUP2 DUP2 DUP2 DUP6 DUP8 GAS CALL SWAP3 POP POP POP RETURNDATASIZE DUP1 PUSH0 DUP2 EQ PUSH2 0x118E JUMPI PUSH1 0x40 MLOAD SWAP2 POP PUSH1 0x1F NOT PUSH1 0x3F RETURNDATASIZE ADD AND DUP3 ADD PUSH1 0x40 MSTORE RETURNDATASIZE DUP3 MSTORE RETURNDATASIZE PUSH0 PUSH1 0x20 DUP5 ADD RETURNDATACOPY PUSH2 0x1193 JUMP JUMPDEST PUSH1 0x60 SWAP2 POP JUMPDEST POP POP SWAP1 POP DUP1 PUSH2 0x11B4 JUMPI PUSH1 0x40 MLOAD PUSH3 0x461BCD PUSH1 0xE5 SHL DUP2 MSTORE PUSH1 0x4 ADD PUSH2 0x55E SWAP1 PUSH2 0x19DE JUMP JUMPDEST POP POP POP POP POP POP POP POP PUSH2 0x1228 JUMP JUMPDEST PUSH1 0x40 MLOAD PUSH0 SWAP1 CALLER SWAP1 DUP4 SWAP1 DUP4 DUP2 DUP2 DUP2 DUP6 DUP8 GAS CALL SWAP3 POP POP POP RETURNDATASIZE DUP1 PUSH0 DUP2 EQ PUSH2 0x1200 JUMPI PUSH1 0x40 MLOAD SWAP2 POP PUSH1 0x1F NOT PUSH1 0x3F RETURNDATASIZE ADD AND DUP3 ADD PUSH1 0x40 MSTORE RETURNDATASIZE DUP3 MSTORE RETURNDATASIZE PUSH0 PUSH1 0x20 DUP5 ADD RETURNDATACOPY PUSH2 0x1205 JUMP JUMPDEST PUSH1 0x60 SWAP2 POP JUMPDEST POP POP SWAP1 POP DUP1 PUSH2 0x1226 JUMPI PUSH1 0x40 MLOAD PUSH3 0x461BCD PUSH1 0xE5 SHL DUP2 MSTORE PUSH1 0x4 ADD PUSH2 0x55E SWAP1 PUSH2 0x19DE JUMP JUMPDEST POP JUMPDEST POP PUSH1 0x16 DUP1 SLOAD PUSH1 0xFF NOT AND PUSH1 0x1 OR SWAP1 SSTORE JUMP JUMPDEST PUSH2 0x1240 PUSH2 0x12E6 JUMP JUMPDEST PUSH1 0x1 PUSH1 0x1 PUSH1 0xA0 SHL SUB DUP2 AND PUSH2 0x12A5 JUMPI PUSH1 0x40 MLOAD PUSH3 0x461BCD PUSH1 0xE5 SHL DUP2 MSTORE PUSH1 0x20 PUSH1 0x4 DUP3 ADD MSTORE PUSH1 0x26 PUSH1 0x24 DUP3 ADD MSTORE PUSH32 0x4F776E61626C653A206E6577206F776E657220697320746865207A65726F2061 PUSH1 0x44 DUP3 ADD MSTORE PUSH6 0x646472657373 PUSH1 0xD0 SHL PUSH1 0x64 DUP3 ADD MSTORE PUSH1 0x84 ADD PUSH2 0x55E JUMP JUMPDEST PUSH2 0xB99 DUP2 PUSH2 0x14C7 JUMP JUMPDEST PUSH0 PUSH2 0x12B9 DUP3 DUP5 PUSH2 0x1BE8 JUMP JUMPDEST SWAP1 POP JUMPDEST SWAP3 SWAP2 POP POP JUMP JUMPDEST PUSH0 PUSH1 0x3 SLOAD PUSH1 0xA PUSH2 0x12D2 SWAP2 SWAP1 PUSH2 0x1E01 JUMP JUMPDEST PUSH2 0x12DC DUP4 DUP6 PUSH2 0x1BAA JUMP JUMPDEST PUSH2 0x12B9 SWAP2 SWAP1 PUSH2 0x1B93 JUMP JUMPDEST PUSH0 SLOAD PUSH1 0x1 PUSH1 0x1 PUSH1 0xA0 SHL SUB AND CALLER EQ PUSH2 0x858 JUMPI PUSH1 0x40 MLOAD PUSH3 0x461BCD PUSH1 0xE5 SHL DUP2 MSTORE PUSH1 0x20 PUSH1 0x4 DUP3 ADD DUP2 SWAP1 MSTORE PUSH1 0x24 DUP3 ADD MSTORE PUSH32 0x4F776E61626C653A2063616C6C6572206973206E6F7420746865206F776E6572 PUSH1 0x44 DUP3 ADD MSTORE PUSH1 0x64 ADD PUSH2 0x55E JUMP JUMPDEST PUSH1 0x40 DUP1 MLOAD PUSH1 0x1 PUSH1 0x1 PUSH1 0xA0 SHL SUB DUP5 AND PUSH1 0x24 DUP3 ADD MSTORE PUSH1 0x44 DUP1 DUP3 ADD DUP5 SWAP1 MSTORE DUP3 MLOAD DUP1 DUP4 SUB SWAP1 SWAP2 ADD DUP2 MSTORE PUSH1 0x64 SWAP1 SWAP2 ADD SWAP1 SWAP2 MSTORE PUSH1 0x20 DUP2 ADD DUP1 MLOAD PUSH1 0x1 PUSH1 0x1 PUSH1 0xE0 SHL SUB AND PUSH4 0xA9059CBB PUSH1 0xE0 SHL OR SWAP1 MSTORE PUSH2 0x9A3 SWAP1 DUP5 SWAP1 PUSH2 0x1516 JUMP JUMPDEST PUSH2 0x1399 PUSH2 0x15E7 JUMP JUMPDEST PUSH1 0xD SLOAD TIMESTAMP GT PUSH2 0x13BA JUMPI PUSH1 0x40 MLOAD PUSH3 0x461BCD PUSH1 0xE5 SHL DUP2 MSTORE PUSH1 0x4 ADD PUSH2 0x55E SWAP1 PUSH2 0x19A7 JUMP JUMPDEST PUSH1 0x6 SLOAD PUSH1 0x13 SLOAD LT ISZERO PUSH2 0x13DE JUMPI PUSH1 0x40 MLOAD PUSH3 0x461BCD PUSH1 0xE5 SHL DUP2 MSTORE PUSH1 0x4 ADD PUSH2 0x55E SWAP1 PUSH2 0x1B28 JUMP JUMPDEST PUSH1 0x1 PUSH1 0x1 PUSH1 0xA0 SHL SUB DUP2 AND PUSH0 SWAP1 DUP2 MSTORE PUSH1 0x17 PUSH1 0x20 MSTORE PUSH1 0x40 SWAP1 KECCAK256 DUP1 SLOAD DUP1 PUSH2 0x1444 JUMPI PUSH1 0x40 MLOAD PUSH3 0x461BCD PUSH1 0xE5 SHL DUP2 MSTORE PUSH1 0x20 PUSH1 0x4 DUP3 ADD MSTORE PUSH1 0x1C PUSH1 0x24 DUP3 ADD MSTORE PUSH32 0x596F7520646F206E6F742068617665206465627420746F6B656E732E00000000 PUSH1 0x44 DUP3 ADD MSTORE PUSH1 0x64 ADD PUSH2 0x55E JUMP JUMPDEST PUSH0 DUP3 SSTORE PUSH1 0x15 SLOAD PUSH2 0x1454 SWAP1 DUP3 PUSH2 0x12AE JUMP JUMPDEST PUSH1 0x15 SSTORE PUSH1 0x2 SLOAD PUSH2 0x146E SWAP1 PUSH1 0x1 PUSH1 0x1 PUSH1 0xA0 SHL SUB AND DUP5 DUP4 PUSH2 0x133F JUMP JUMPDEST DUP3 PUSH1 0x1 PUSH1 0x1 PUSH1 0xA0 SHL SUB AND PUSH32 0x6352C5382C4A4578E712449CA65E83CDB392D045DFCF1CAD9615189DB2DA244B DUP3 PUSH1 0x40 MLOAD PUSH2 0x14A9 SWAP2 DUP2 MSTORE PUSH1 0x20 ADD SWAP1 JUMP JUMPDEST PUSH1 0x40 MLOAD DUP1 SWAP2 SUB SWAP1 LOG2 POP POP PUSH2 0xB99 PUSH1 0x1 DUP1 SSTORE JUMP JUMPDEST PUSH0 PUSH2 0x12B9 DUP3 DUP5 PUSH2 0x1B80 JUMP JUMPDEST PUSH0 DUP1 SLOAD PUSH1 0x1 PUSH1 0x1 PUSH1 0xA0 SHL SUB DUP4 DUP2 AND PUSH1 0x1 PUSH1 0x1 PUSH1 0xA0 SHL SUB NOT DUP4 AND DUP2 OR DUP5 SSTORE PUSH1 0x40 MLOAD SWAP2 SWAP1 SWAP3 AND SWAP3 DUP4 SWAP2 PUSH32 0x8BE0079C531659141344CD1FD0A4F28419497F9722A3DAAFE3B4186F6B6457E0 SWAP2 SWAP1 LOG3 POP POP JUMP JUMPDEST PUSH0 PUSH2 0x156A DUP3 PUSH1 0x40 MLOAD DUP1 PUSH1 0x40 ADD PUSH1 0x40 MSTORE DUP1 PUSH1 0x20 DUP2 MSTORE PUSH1 0x20 ADD PUSH32 0x5361666545524332303A206C6F772D6C6576656C2063616C6C206661696C6564 DUP2 MSTORE POP DUP6 PUSH1 0x1 PUSH1 0x1 PUSH1 0xA0 SHL SUB AND PUSH2 0x1640 SWAP1 SWAP3 SWAP2 SWAP1 PUSH4 0xFFFFFFFF AND JUMP JUMPDEST DUP1 MLOAD SWAP1 SWAP2 POP ISZERO PUSH2 0x9A3 JUMPI DUP1 DUP1 PUSH1 0x20 ADD SWAP1 MLOAD DUP2 ADD SWAP1 PUSH2 0x1588 SWAP2 SWAP1 PUSH2 0x1BC9 JUMP JUMPDEST PUSH2 0x9A3 JUMPI PUSH1 0x40 MLOAD PUSH3 0x461BCD PUSH1 0xE5 SHL DUP2 MSTORE PUSH1 0x20 PUSH1 0x4 DUP3 ADD MSTORE PUSH1 0x2A PUSH1 0x24 DUP3 ADD MSTORE PUSH32 0x5361666545524332303A204552433230206F7065726174696F6E20646964206E PUSH1 0x44 DUP3 ADD MSTORE PUSH10 0x1BDD081CDD58D8D95959 PUSH1 0xB2 SHL PUSH1 0x64 DUP3 ADD MSTORE PUSH1 0x84 ADD PUSH2 0x55E JUMP JUMPDEST PUSH1 0x2 PUSH1 0x1 SLOAD SUB PUSH2 0x1639 JUMPI PUSH1 0x40 MLOAD PUSH3 0x461BCD PUSH1 0xE5 SHL DUP2 MSTORE PUSH1 0x20 PUSH1 0x4 DUP3 ADD MSTORE PUSH1 0x1F PUSH1 0x24 DUP3 ADD MSTORE PUSH32 0x5265656E7472616E637947756172643A207265656E7472616E742063616C6C00 PUSH1 0x44 DUP3 ADD MSTORE PUSH1 0x64 ADD PUSH2 0x55E JUMP JUMPDEST PUSH1 0x2 PUSH1 0x1 SSTORE JUMP JUMPDEST PUSH1 0x60 PUSH2 0x164E DUP5 DUP5 PUSH0 DUP6 PUSH2 0x1656 JUMP JUMPDEST SWAP5 SWAP4 POP POP POP POP JUMP JUMPDEST PUSH1 0x60 DUP3 SELFBALANCE LT ISZERO PUSH2 0x16B7 JUMPI PUSH1 0x40 MLOAD PUSH3 0x461BCD PUSH1 0xE5 SHL DUP2 MSTORE PUSH1 0x20 PUSH1 0x4 DUP3 ADD MSTORE PUSH1 0x26 PUSH1 0x24 DUP3 ADD MSTORE PUSH32 0x416464726573733A20696E73756666696369656E742062616C616E636520666F PUSH1 0x44 DUP3 ADD MSTORE PUSH6 0x1C8818D85B1B PUSH1 0xD2 SHL PUSH1 0x64 DUP3 ADD MSTORE PUSH1 0x84 ADD PUSH2 0x55E JUMP JUMPDEST PUSH0 DUP1 DUP7 PUSH1 0x1 PUSH1 0x1 PUSH1 0xA0 SHL SUB AND DUP6 DUP8 PUSH1 0x40 MLOAD PUSH2 0x16D2 SWAP2 SWAP1 PUSH2 0x1E0C JUMP JUMPDEST PUSH0 PUSH1 0x40 MLOAD DUP1 DUP4 SUB DUP2 DUP6 DUP8 GAS CALL SWAP3 POP POP POP RETURNDATASIZE DUP1 PUSH0 DUP2 EQ PUSH2 0x170C JUMPI PUSH1 0x40 MLOAD SWAP2 POP PUSH1 0x1F NOT PUSH1 0x3F RETURNDATASIZE ADD AND DUP3 ADD PUSH1 0x40 MSTORE RETURNDATASIZE DUP3 MSTORE RETURNDATASIZE PUSH0 PUSH1 0x20 DUP5 ADD RETURNDATACOPY PUSH2 0x1711 JUMP JUMPDEST PUSH1 0x60 SWAP2 POP JUMPDEST POP SWAP2 POP SWAP2 POP PUSH2 0x1722 DUP8 DUP4 DUP4 DUP8 PUSH2 0x172D JUMP JUMPDEST SWAP8 SWAP7 POP POP POP POP POP POP POP JUMP JUMPDEST PUSH1 0x60 DUP4 ISZERO PUSH2 0x179B JUMPI DUP3 MLOAD PUSH0 SUB PUSH2 0x1794 JUMPI PUSH1 0x1 PUSH1 0x1 PUSH1 0xA0 SHL SUB DUP6 AND EXTCODESIZE PUSH2 0x1794 JUMPI PUSH1 0x40 MLOAD PUSH3 0x461BCD PUSH1 0xE5 SHL DUP2 MSTORE PUSH1 0x20 PUSH1 0x4 DUP3 ADD MSTORE PUSH1 0x1D PUSH1 0x24 DUP3 ADD MSTORE PUSH32 0x416464726573733A2063616C6C20746F206E6F6E2D636F6E7472616374000000 PUSH1 0x44 DUP3 ADD MSTORE PUSH1 0x64 ADD PUSH2 0x55E JUMP JUMPDEST POP DUP2 PUSH2 0x164E JUMP JUMPDEST PUSH2 0x164E DUP4 DUP4 DUP2 MLOAD ISZERO PUSH2 0x17B0 JUMPI DUP2 MLOAD DUP1 DUP4 PUSH1 0x20 ADD REVERT JUMPDEST DUP1 PUSH1 0x40 MLOAD PUSH3 0x461BCD PUSH1 0xE5 SHL DUP2 MSTORE PUSH1 0x4 ADD PUSH2 0x55E SWAP2 SWAP1 PUSH2 0x184D JUMP JUMPDEST PUSH1 0x1 PUSH1 0x1 PUSH1 0xA0 SHL SUB DUP2 AND DUP2 EQ PUSH2 0xB99 JUMPI PUSH0 DUP1 REVERT JUMPDEST PUSH0 PUSH1 0x20 DUP3 DUP5 SUB SLT ISZERO PUSH2 0x17EE JUMPI PUSH0 DUP1 REVERT JUMPDEST DUP2 CALLDATALOAD PUSH2 0x17F9 DUP2 PUSH2 0x17CA JUMP JUMPDEST SWAP4 SWAP3 POP POP POP JUMP JUMPDEST PUSH0 JUMPDEST DUP4 DUP2 LT ISZERO PUSH2 0x181A JUMPI DUP2 DUP2 ADD MLOAD DUP4 DUP3 ADD MSTORE PUSH1 0x20 ADD PUSH2 0x1802 JUMP JUMPDEST POP POP PUSH0 SWAP2 ADD MSTORE JUMP JUMPDEST PUSH0 DUP2 MLOAD DUP1 DUP5 MSTORE PUSH2 0x1839 DUP2 PUSH1 0x20 DUP7 ADD PUSH1 0x20 DUP7 ADD PUSH2 0x1800 JUMP JUMPDEST PUSH1 0x1F ADD PUSH1 0x1F NOT AND SWAP3 SWAP1 SWAP3 ADD PUSH1 0x20 ADD SWAP3 SWAP2 POP POP JUMP JUMPDEST PUSH1 0x20 DUP2 MSTORE PUSH0 PUSH2 0x12B9 PUSH1 0x20 DUP4 ADD DUP5 PUSH2 0x1822 JUMP JUMPDEST PUSH0 DUP1 PUSH1 0x40 DUP4 DUP6 SUB SLT ISZERO PUSH2 0x1870 JUMPI PUSH0 DUP1 REVERT JUMPDEST DUP3 CALLDATALOAD PUSH2 0x187B DUP2 PUSH2 0x17CA JUMP JUMPDEST SWAP5 PUSH1 0x20 SWAP4 SWAP1 SWAP4 ADD CALLDATALOAD SWAP4 POP POP POP JUMP JUMPDEST PUSH4 0x4E487B71 PUSH1 0xE0 SHL PUSH0 MSTORE PUSH1 0x41 PUSH1 0x4 MSTORE PUSH1 0x24 PUSH0 REVERT JUMPDEST PUSH1 0x40 MLOAD PUSH1 0x1F DUP3 ADD PUSH1 0x1F NOT AND DUP2 ADD PUSH8 0xFFFFFFFFFFFFFFFF DUP2 GT DUP3 DUP3 LT OR ISZERO PUSH2 0x18C6 JUMPI PUSH2 0x18C6 PUSH2 0x1889 JUMP JUMPDEST PUSH1 0x40 MSTORE SWAP2 SWAP1 POP JUMP JUMPDEST PUSH0 PUSH8 0xFFFFFFFFFFFFFFFF DUP3 GT ISZERO PUSH2 0x18E7 JUMPI PUSH2 0x18E7 PUSH2 0x1889 JUMP JUMPDEST POP PUSH1 0x1F ADD PUSH1 0x1F NOT AND PUSH1 0x20 ADD SWAP1 JUMP JUMPDEST PUSH0 PUSH1 0x20 DUP3 DUP5 SUB SLT ISZERO PUSH2 0x1905 JUMPI PUSH0 DUP1 REVERT JUMPDEST DUP2 CALLDATALOAD PUSH8 0xFFFFFFFFFFFFFFFF DUP2 GT ISZERO PUSH2 0x191B JUMPI PUSH0 DUP1 REVERT JUMPDEST DUP3 ADD PUSH1 0x1F DUP2 ADD DUP5 SGT PUSH2 0x192B JUMPI PUSH0 DUP1 REVERT JUMPDEST DUP1 CALLDATALOAD PUSH2 0x193E PUSH2 0x1939 DUP3 PUSH2 0x18CE JUMP JUMPDEST PUSH2 0x189D JUMP JUMPDEST DUP2 DUP2 MSTORE DUP6 PUSH1 0x20 DUP4 DUP6 ADD ADD GT ISZERO PUSH2 0x1952 JUMPI PUSH0 DUP1 REVERT JUMPDEST DUP2 PUSH1 0x20 DUP5 ADD PUSH1 0x20 DUP4 ADD CALLDATACOPY PUSH0 SWAP2 DUP2 ADD PUSH1 0x20 ADD SWAP2 SWAP1 SWAP2 MSTORE SWAP5 SWAP4 POP POP POP POP JUMP JUMPDEST PUSH1 0x1 DUP2 DUP2 SHR SWAP1 DUP3 AND DUP1 PUSH2 0x1983 JUMPI PUSH1 0x7F DUP3 AND SWAP2 POP JUMPDEST PUSH1 0x20 DUP3 LT DUP2 SUB PUSH2 0x19A1 JUMPI PUSH4 0x4E487B71 PUSH1 0xE0 SHL PUSH0 MSTORE PUSH1 0x22 PUSH1 0x4 MSTORE PUSH1 0x24 PUSH0 REVERT JUMPDEST POP SWAP2 SWAP1 POP JUMP JUMPDEST PUSH1 0x20 DUP1 DUP3 MSTORE PUSH1 0x1B SWAP1 DUP3 ADD MSTORE PUSH32 0x5468652049444F20706F6F6C20686173206E6F7420656E6465642E0000000000 PUSH1 0x40 DUP3 ADD MSTORE PUSH1 0x60 ADD SWAP1 JUMP JUMPDEST PUSH1 0x20 DUP1 DUP3 MSTORE PUSH1 0x10 SWAP1 DUP3 ADD MSTORE PUSH16 0x2A3930B739B332B9103330B4B632B217 PUSH1 0x81 SHL PUSH1 0x40 DUP3 ADD MSTORE PUSH1 0x60 ADD SWAP1 JUMP JUMPDEST PUSH0 PUSH1 0x20 DUP3 DUP5 SUB SLT ISZERO PUSH2 0x1A18 JUMPI PUSH0 DUP1 REVERT JUMPDEST POP MLOAD SWAP2 SWAP1 POP JUMP JUMPDEST PUSH1 0x1F DUP3 GT ISZERO PUSH2 0x9A3 JUMPI PUSH0 DUP2 DUP2 MSTORE PUSH1 0x20 DUP2 KECCAK256 PUSH1 0x1F DUP6 ADD PUSH1 0x5 SHR DUP2 ADD PUSH1 0x20 DUP7 LT ISZERO PUSH2 0x1A45 JUMPI POP DUP1 JUMPDEST PUSH1 0x1F DUP6 ADD PUSH1 0x5 SHR DUP3 ADD SWAP2 POP JUMPDEST DUP2 DUP2 LT ISZERO PUSH2 0x1A64 JUMPI DUP3 DUP2 SSTORE PUSH1 0x1 ADD PUSH2 0x1A51 JUMP JUMPDEST POP POP POP POP POP POP JUMP JUMPDEST DUP2 MLOAD PUSH8 0xFFFFFFFFFFFFFFFF DUP2 GT ISZERO PUSH2 0x1A86 JUMPI PUSH2 0x1A86 PUSH2 0x1889 JUMP JUMPDEST PUSH2 0x1A9A DUP2 PUSH2 0x1A94 DUP5 SLOAD PUSH2 0x196F JUMP JUMPDEST DUP5 PUSH2 0x1A1F JUMP JUMPDEST PUSH1 0x20 DUP1 PUSH1 0x1F DUP4 GT PUSH1 0x1 DUP2 EQ PUSH2 0x1ACD JUMPI PUSH0 DUP5 ISZERO PUSH2 0x1AB6 JUMPI POP DUP6 DUP4 ADD MLOAD JUMPDEST PUSH0 NOT PUSH1 0x3 DUP7 SWAP1 SHL SHR NOT AND PUSH1 0x1 DUP6 SWAP1 SHL OR DUP6 SSTORE PUSH2 0x1A64 JUMP JUMPDEST PUSH0 DUP6 DUP2 MSTORE PUSH1 0x20 DUP2 KECCAK256 PUSH1 0x1F NOT DUP7 AND SWAP2 JUMPDEST DUP3 DUP2 LT ISZERO PUSH2 0x1AFB JUMPI DUP9 DUP7 ADD MLOAD DUP3 SSTORE SWAP5 DUP5 ADD SWAP5 PUSH1 0x1 SWAP1 SWAP2 ADD SWAP1 DUP5 ADD PUSH2 0x1ADC JUMP JUMPDEST POP DUP6 DUP3 LT ISZERO PUSH2 0x1B18 JUMPI DUP8 DUP6 ADD MLOAD PUSH0 NOT PUSH1 0x3 DUP9 SWAP1 SHL PUSH1 0xF8 AND SHR NOT AND DUP2 SSTORE JUMPDEST POP POP POP POP POP PUSH1 0x1 SWAP1 DUP2 SHL ADD SWAP1 SSTORE POP JUMP JUMPDEST PUSH1 0x20 DUP1 DUP3 MSTORE PUSH1 0x24 SWAP1 DUP3 ADD MSTORE PUSH32 0x5468652049444F20706F6F6C20646964206E6F7420726561636820736F667420 PUSH1 0x40 DUP3 ADD MSTORE PUSH4 0x31B0B817 PUSH1 0xE1 SHL PUSH1 0x60 DUP3 ADD MSTORE PUSH1 0x80 ADD SWAP1 JUMP JUMPDEST PUSH4 0x4E487B71 PUSH1 0xE0 SHL PUSH0 MSTORE PUSH1 0x11 PUSH1 0x4 MSTORE PUSH1 0x24 PUSH0 REVERT JUMPDEST DUP2 DUP2 SUB DUP2 DUP2 GT ISZERO PUSH2 0x12BC JUMPI PUSH2 0x12BC PUSH2 0x1B6C JUMP JUMPDEST DUP1 DUP3 MUL DUP2 ISZERO DUP3 DUP3 DIV DUP5 EQ OR PUSH2 0x12BC JUMPI PUSH2 0x12BC PUSH2 0x1B6C JUMP JUMPDEST PUSH0 DUP3 PUSH2 0x1BC4 JUMPI PUSH4 0x4E487B71 PUSH1 0xE0 SHL PUSH0 MSTORE PUSH1 0x12 PUSH1 0x4 MSTORE PUSH1 0x24 PUSH0 REVERT JUMPDEST POP DIV SWAP1 JUMP JUMPDEST PUSH0 PUSH1 0x20 DUP3 DUP5 SUB SLT ISZERO PUSH2 0x1BD9 JUMPI PUSH0 DUP1 REVERT JUMPDEST DUP2 MLOAD DUP1 ISZERO ISZERO DUP2 EQ PUSH2 0x17F9 JUMPI PUSH0 DUP1 REVERT JUMPDEST DUP1 DUP3 ADD DUP1 DUP3 GT ISZERO PUSH2 0x12BC JUMPI PUSH2 0x12BC PUSH2 0x1B6C JUMP JUMPDEST PUSH0 DUP1 PUSH0 PUSH1 0x60 DUP5 DUP7 SUB SLT ISZERO PUSH2 0x1C0D JUMPI PUSH0 DUP1 REVERT JUMPDEST DUP4 MLOAD SWAP3 POP PUSH1 0x20 DUP5 ADD MLOAD SWAP2 POP PUSH1 0x40 DUP5 ADD MLOAD SWAP1 POP SWAP3 POP SWAP3 POP SWAP3 JUMP JUMPDEST PUSH0 PUSH1 0x20 DUP3 DUP5 SUB SLT ISZERO PUSH2 0x1C36 JUMPI PUSH0 DUP1 REVERT JUMPDEST DUP2 MLOAD PUSH2 0x17F9 DUP2 PUSH2 0x17CA JUMP JUMPDEST PUSH0 PUSH1 0x20 DUP3 DUP5 SUB SLT ISZERO PUSH2 0x1C51 JUMPI PUSH0 DUP1 REVERT JUMPDEST DUP2 MLOAD PUSH8 0xFFFFFFFFFFFFFFFF DUP2 GT ISZERO PUSH2 0x1C67 JUMPI PUSH0 DUP1 REVERT JUMPDEST DUP3 ADD PUSH1 0x1F DUP2 ADD DUP5 SGT PUSH2 0x1C77 JUMPI PUSH0 DUP1 REVERT JUMPDEST DUP1 MLOAD PUSH2 0x1C85 PUSH2 0x1939 DUP3 PUSH2 0x18CE JUMP JUMPDEST DUP2 DUP2 MSTORE DUP6 PUSH1 0x20 DUP4 DUP6 ADD ADD GT ISZERO PUSH2 0x1C99 JUMPI PUSH0 DUP1 REVERT JUMPDEST PUSH2 0x1CAA DUP3 PUSH1 0x20 DUP4 ADD PUSH1 0x20 DUP7 ADD PUSH2 0x1800 JUMP JUMPDEST SWAP6 SWAP5 POP POP POP POP POP JUMP JUMPDEST PUSH0 DUP3 MLOAD PUSH2 0x1CC4 DUP2 DUP5 PUSH1 0x20 DUP8 ADD PUSH2 0x1800 JUMP JUMPDEST PUSH14 0x103A37B5B2B739903637B1B5B2B9 PUSH1 0x91 SHL SWAP3 ADD SWAP2 DUP3 MSTORE POP PUSH1 0xE ADD SWAP2 SWAP1 POP JUMP JUMPDEST PUSH0 PUSH1 0x1 DUP1 PUSH1 0xA0 SHL SUB DUP1 DUP9 AND DUP4 MSTORE PUSH1 0xA0 PUSH1 0x20 DUP5 ADD MSTORE PUSH2 0x1D05 PUSH1 0xA0 DUP5 ADD DUP9 PUSH2 0x1822 JUMP JUMPDEST PUSH1 0x40 DUP5 ADD SWAP7 SWAP1 SWAP7 MSTORE SWAP4 SWAP1 SWAP4 AND PUSH1 0x60 DUP3 ADD MSTORE PUSH1 0x80 ADD MSTORE POP SWAP3 SWAP2 POP POP JUMP JUMPDEST PUSH1 0x1 DUP2 DUP2 JUMPDEST DUP1 DUP6 GT ISZERO PUSH2 0x1D5B JUMPI DUP2 PUSH0 NOT DIV DUP3 GT ISZERO PUSH2 0x1D41 JUMPI PUSH2 0x1D41 PUSH2 0x1B6C JUMP JUMPDEST DUP1 DUP6 AND ISZERO PUSH2 0x1D4E JUMPI SWAP2 DUP2 MUL SWAP2 JUMPDEST SWAP4 DUP5 SHR SWAP4 SWAP1 DUP1 MUL SWAP1 PUSH2 0x1D26 JUMP JUMPDEST POP SWAP3 POP SWAP3 SWAP1 POP JUMP JUMPDEST PUSH0 DUP3 PUSH2 0x1D71 JUMPI POP PUSH1 0x1 PUSH2 0x12BC JUMP JUMPDEST DUP2 PUSH2 0x1D7D JUMPI POP PUSH0 PUSH2 0x12BC JUMP JUMPDEST DUP2 PUSH1 0x1 DUP2 EQ PUSH2 0x1D93 JUMPI PUSH1 0x2 DUP2 EQ PUSH2 0x1D9D JUMPI PUSH2 0x1DB9 JUMP JUMPDEST PUSH1 0x1 SWAP2 POP POP PUSH2 0x12BC JUMP JUMPDEST PUSH1 0xFF DUP5 GT ISZERO PUSH2 0x1DAE JUMPI PUSH2 0x1DAE PUSH2 0x1B6C JUMP JUMPDEST POP POP PUSH1 0x1 DUP3 SHL PUSH2 0x12BC JUMP JUMPDEST POP PUSH1 0x20 DUP4 LT PUSH2 0x133 DUP4 LT AND PUSH1 0x4E DUP5 LT PUSH1 0xB DUP5 LT AND OR ISZERO PUSH2 0x1DDC JUMPI POP DUP2 DUP2 EXP PUSH2 0x12BC JUMP JUMPDEST PUSH2 0x1DE6 DUP4 DUP4 PUSH2 0x1D21 JUMP JUMPDEST DUP1 PUSH0 NOT DIV DUP3 GT ISZERO PUSH2 0x1DF9 JUMPI PUSH2 0x1DF9 PUSH2 0x1B6C JUMP JUMPDEST MUL SWAP4 SWAP3 POP POP POP JUMP JUMPDEST PUSH0 PUSH2 0x12B9 DUP4 DUP4 PUSH2 0x1D63 JUMP JUMPDEST PUSH0 DUP3 MLOAD PUSH2 0x1E1D DUP2 DUP5 PUSH1 0x20 DUP8 ADD PUSH2 0x1800 JUMP JUMPDEST SWAP2 SWAP1 SWAP2 ADD SWAP3 SWAP2 POP POP JUMP INVALID LOG2 PUSH5 0x6970667358 0x22 SLT KECCAK256 CALLER 0x23 SWAP14 0xF6 DUP13 0x5C 0xC6 MULMOD BALANCE DUP16 0xD2 PUSH30 0x1974742F40C227BEB2F13A31ACCE71E6A64EDFCE64736F6C634300081400 CALLER PUSH1 0x80 PUSH1 0x40 MSTORE PUSH1 0x14 DUP1 SLOAD PUSH3 0xFFFFFF NOT AND PUSH2 0x100 OR SWAP1 SSTORE PUSH1 0x2 PUSH1 0x16 SSTORE CALLVALUE DUP1 ISZERO PUSH3 0x25 JUMPI PUSH0 DUP1 REVERT JUMPDEST POP PUSH1 0x40 MLOAD PUSH3 0x2008 CODESIZE SUB DUP1 PUSH3 0x2008 DUP4 CODECOPY DUP2 ADD PUSH1 0x40 DUP2 SWAP1 MSTORE PUSH3 0x48 SWAP2 PUSH3 0x48A JUMP JUMPDEST PUSH3 0x53 CALLER PUSH3 0x1BD JUMP JUMPDEST PUSH1 0x1 DUP1 SSTORE PUSH1 0x17 DUP1 SLOAD PUSH1 0x1 PUSH1 0x1 PUSH1 0xA0 SHL SUB NOT SWAP1 DUP2 AND CALLER OR SWAP1 SWAP2 SSTORE PUSH1 0x2 DUP1 SLOAD PUSH1 0x1 PUSH1 0x1 PUSH1 0xA0 SHL SUB DUP9 AND SWAP3 AND DUP3 OR SWAP1 SSTORE PUSH1 0x40 DUP1 MLOAD PUSH4 0x313CE567 PUSH1 0xE0 SHL DUP2 MSTORE SWAP1 MLOAD PUSH4 0x313CE567 SWAP2 PUSH1 0x4 DUP1 DUP3 ADD SWAP3 PUSH1 0x20 SWAP3 SWAP1 SWAP2 SWAP1 DUP3 SWAP1 SUB ADD DUP2 DUP7 GAS STATICCALL ISZERO DUP1 ISZERO PUSH3 0xBA JUMPI RETURNDATASIZE PUSH0 DUP1 RETURNDATACOPY RETURNDATASIZE PUSH0 REVERT JUMPDEST POP POP POP POP PUSH1 0x40 MLOAD RETURNDATASIZE PUSH1 0x1F NOT PUSH1 0x1F DUP3 ADD AND DUP3 ADD DUP1 PUSH1 0x40 MSTORE POP DUP2 ADD SWAP1 PUSH3 0xE0 SWAP2 SWAP1 PUSH3 0x56B JUMP JUMPDEST PUSH1 0xFF AND PUSH1 0x3 SSTORE PUSH1 0x4 DUP1 SLOAD PUSH1 0x1 PUSH1 0x1 PUSH1 0xA0 SHL SUB NOT AND PUSH1 0x1 PUSH1 0x1 PUSH1 0xA0 SHL SUB DUP7 AND SWAP1 DUP2 OR DUP3 SSTORE PUSH1 0x40 DUP1 MLOAD PUSH4 0x313CE567 PUSH1 0xE0 SHL DUP2 MSTORE SWAP1 MLOAD SWAP2 SWAP3 PUSH4 0x313CE567 SWAP3 DUP3 DUP3 ADD SWAP3 PUSH1 0x20 SWAP3 SWAP1 DUP3 SWAP1 SUB ADD DUP2 DUP7 GAS STATICCALL ISZERO DUP1 ISZERO PUSH3 0x13B JUMPI RETURNDATASIZE PUSH0 DUP1 RETURNDATACOPY RETURNDATASIZE PUSH0 REVERT JUMPDEST POP POP POP POP PUSH1 0x40 MLOAD RETURNDATASIZE PUSH1 0x1F NOT PUSH1 0x1F DUP3 ADD AND DUP3 ADD DUP1 PUSH1 0x40 MSTORE POP DUP2 ADD SWAP1 PUSH3 0x161 SWAP2 SWAP1 PUSH3 0x56B JUMP JUMPDEST PUSH1 0xFF AND PUSH1 0x5 SSTORE DUP3 MLOAD PUSH1 0x7 SSTORE PUSH1 0x20 DUP4 ADD MLOAD PUSH1 0x8 SSTORE PUSH1 0x40 DUP4 ADD MLOAD PUSH1 0x9 SSTORE PUSH1 0x60 DUP4 ADD MLOAD PUSH1 0xA SSTORE PUSH1 0x80 DUP4 ADD MLOAD PUSH1 0xB SSTORE PUSH1 0xA0 DUP4 ADD MLOAD PUSH1 0xC SSTORE PUSH1 0xC0 DUP4 ADD MLOAD PUSH1 0xD SSTORE PUSH3 0x1A7 DUP3 PUSH3 0x20C JUMP JUMPDEST PUSH3 0x1B2 DUP2 PUSH3 0x305 JUMP JUMPDEST POP POP POP POP POP PUSH3 0x6E8 JUMP JUMPDEST PUSH0 DUP1 SLOAD PUSH1 0x1 PUSH1 0x1 PUSH1 0xA0 SHL SUB DUP4 DUP2 AND PUSH1 0x1 PUSH1 0x1 PUSH1 0xA0 SHL SUB NOT DUP4 AND DUP2 OR DUP5 SSTORE PUSH1 0x40 MLOAD SWAP2 SWAP1 SWAP3 AND SWAP3 DUP4 SWAP2 PUSH32 0x8BE0079C531659141344CD1FD0A4F28419497F9722A3DAAFE3B4186F6B6457E0 SWAP2 SWAP1 LOG3 POP POP JUMP JUMPDEST PUSH1 0x20 DUP2 ADD MLOAD DUP2 MLOAD LT PUSH3 0x281 JUMPI PUSH1 0x40 MLOAD PUSH3 0x461BCD PUSH1 0xE5 SHL DUP2 MSTORE PUSH1 0x20 PUSH1 0x4 DUP3 ADD MSTORE PUSH1 0x32 PUSH1 0x24 DUP3 ADD MSTORE PUSH32 0x53746172742074696D657374616D70206D757374206265206C65737320746861 PUSH1 0x44 DUP3 ADD MSTORE PUSH18 0x6E2066696E6973682074696D657374616D7 PUSH1 0x74 SHL PUSH1 0x64 DUP3 ADD MSTORE PUSH1 0x84 ADD JUMPDEST PUSH1 0x40 MLOAD DUP1 SWAP2 SUB SWAP1 REVERT JUMPDEST TIMESTAMP DUP2 PUSH1 0x20 ADD MLOAD GT PUSH3 0x2EF JUMPI PUSH1 0x40 MLOAD PUSH3 0x461BCD PUSH1 0xE5 SHL DUP2 MSTORE PUSH1 0x20 PUSH1 0x4 DUP3 ADD MSTORE PUSH1 0x30 PUSH1 0x24 DUP3 ADD MSTORE PUSH32 0x46696E6973682074696D657374616D70206D757374206265206D6F7265207468 PUSH1 0x44 DUP3 ADD MSTORE PUSH16 0x616E2063757272656E7420626C6F636B PUSH1 0x80 SHL PUSH1 0x64 DUP3 ADD MSTORE PUSH1 0x84 ADD PUSH3 0x278 JUMP JUMPDEST DUP1 MLOAD PUSH1 0xE SSTORE PUSH1 0x20 DUP2 ADD MLOAD PUSH1 0xF SSTORE PUSH1 0x40 ADD MLOAD PUSH1 0x10 SSTORE JUMP JUMPDEST PUSH1 0x6 PUSH3 0x313 DUP3 DUP3 PUSH3 0x620 JUMP JUMPDEST POP POP JUMP JUMPDEST DUP1 MLOAD PUSH1 0x1 PUSH1 0x1 PUSH1 0xA0 SHL SUB DUP2 AND DUP2 EQ PUSH3 0x32E JUMPI PUSH0 DUP1 REVERT JUMPDEST SWAP2 SWAP1 POP JUMP JUMPDEST PUSH4 0x4E487B71 PUSH1 0xE0 SHL PUSH0 MSTORE PUSH1 0x41 PUSH1 0x4 MSTORE PUSH1 0x24 PUSH0 REVERT JUMPDEST PUSH1 0x40 MLOAD PUSH1 0xE0 DUP2 ADD PUSH1 0x1 PUSH1 0x1 PUSH1 0x40 SHL SUB DUP2 GT DUP3 DUP3 LT OR ISZERO PUSH3 0x36C JUMPI PUSH3 0x36C PUSH3 0x333 JUMP JUMPDEST PUSH1 0x40 MSTORE SWAP1 JUMP JUMPDEST PUSH1 0x40 MLOAD PUSH1 0x1F DUP3 ADD PUSH1 0x1F NOT AND DUP2 ADD PUSH1 0x1 PUSH1 0x1 PUSH1 0x40 SHL SUB DUP2 GT DUP3 DUP3 LT OR ISZERO PUSH3 0x39D JUMPI PUSH3 0x39D PUSH3 0x333 JUMP JUMPDEST PUSH1 0x40 MSTORE SWAP2 SWAP1 POP JUMP JUMPDEST PUSH0 PUSH1 0x60 DUP3 DUP5 SUB SLT ISZERO PUSH3 0x3B6 JUMPI PUSH0 DUP1 REVERT JUMPDEST PUSH1 0x40 MLOAD PUSH1 0x60 DUP2 ADD PUSH1 0x1 PUSH1 0x1 PUSH1 0x40 SHL SUB DUP2 GT DUP3 DUP3 LT OR ISZERO PUSH3 0x3DB JUMPI PUSH3 0x3DB PUSH3 0x333 JUMP JUMPDEST DUP1 PUSH1 0x40 MSTORE POP DUP1 SWAP2 POP DUP3 MLOAD DUP2 MSTORE PUSH1 0x20 DUP4 ADD MLOAD PUSH1 0x20 DUP3 ADD MSTORE PUSH1 0x40 DUP4 ADD MLOAD PUSH1 0x40 DUP3 ADD MSTORE POP SWAP3 SWAP2 POP POP JUMP JUMPDEST PUSH0 DUP3 PUSH1 0x1F DUP4 ADD SLT PUSH3 0x412 JUMPI PUSH0 DUP1 REVERT JUMPDEST DUP2 MLOAD PUSH1 0x1 PUSH1 0x1 PUSH1 0x40 SHL SUB DUP2 GT ISZERO PUSH3 0x42E JUMPI PUSH3 0x42E PUSH3 0x333 JUMP JUMPDEST PUSH1 0x20 PUSH3 0x444 PUSH1 0x1F DUP4 ADD PUSH1 0x1F NOT AND DUP3 ADD PUSH3 0x372 JUMP JUMPDEST DUP3 DUP2 MSTORE DUP6 DUP3 DUP5 DUP8 ADD ADD GT ISZERO PUSH3 0x458 JUMPI PUSH0 DUP1 REVERT JUMPDEST PUSH0 JUMPDEST DUP4 DUP2 LT ISZERO PUSH3 0x477 JUMPI DUP6 DUP2 ADD DUP4 ADD MLOAD DUP3 DUP3 ADD DUP5 ADD MSTORE DUP3 ADD PUSH3 0x45A JUMP JUMPDEST POP PUSH0 SWAP3 DUP2 ADD SWAP1 SWAP2 ADD SWAP2 SWAP1 SWAP2 MSTORE SWAP4 SWAP3 POP POP POP JUMP JUMPDEST PUSH0 DUP1 PUSH0 DUP1 PUSH0 DUP6 DUP8 SUB PUSH2 0x1A0 DUP2 SLT ISZERO PUSH3 0x4A1 JUMPI PUSH0 DUP1 REVERT JUMPDEST PUSH3 0x4AC DUP8 PUSH3 0x317 JUMP JUMPDEST SWAP6 POP PUSH3 0x4BC PUSH1 0x20 DUP9 ADD PUSH3 0x317 JUMP JUMPDEST SWAP5 POP PUSH1 0xE0 PUSH1 0x3F NOT DUP3 ADD SLT ISZERO PUSH3 0x4D0 JUMPI PUSH0 DUP1 REVERT JUMPDEST POP PUSH3 0x4DB PUSH3 0x347 JUMP JUMPDEST PUSH1 0x40 DUP8 ADD MLOAD DUP2 MSTORE PUSH1 0x60 DUP8 ADD MLOAD PUSH1 0x20 DUP3 ADD MSTORE PUSH1 0x80 DUP8 ADD MLOAD PUSH1 0x40 DUP3 ADD MSTORE PUSH1 0xA0 DUP8 ADD MLOAD PUSH1 0x60 DUP3 ADD MSTORE PUSH1 0xC0 DUP8 ADD MLOAD PUSH1 0x80 DUP3 ADD MSTORE PUSH1 0xE0 DUP8 ADD MLOAD PUSH1 0xA0 DUP3 ADD MSTORE PUSH2 0x100 DUP8 ADD MLOAD PUSH1 0xC0 DUP3 ADD MSTORE DUP1 SWAP4 POP POP PUSH3 0x533 DUP8 PUSH2 0x120 DUP9 ADD PUSH3 0x3A5 JUMP JUMPDEST PUSH2 0x180 DUP8 ADD MLOAD SWAP1 SWAP3 POP PUSH1 0x1 PUSH1 0x1 PUSH1 0x40 SHL SUB DUP2 GT ISZERO PUSH3 0x550 JUMPI PUSH0 DUP1 REVERT JUMPDEST PUSH3 0x55E DUP9 DUP3 DUP10 ADD PUSH3 0x402 JUMP JUMPDEST SWAP2 POP POP SWAP3 SWAP6 POP SWAP3 SWAP6 SWAP1 SWAP4 POP JUMP JUMPDEST PUSH0 PUSH1 0x20 DUP3 DUP5 SUB SLT ISZERO PUSH3 0x57C JUMPI PUSH0 DUP1 REVERT JUMPDEST DUP2 MLOAD PUSH1 0xFF DUP2 AND DUP2 EQ PUSH3 0x58D JUMPI PUSH0 DUP1 REVERT JUMPDEST SWAP4 SWAP3 POP POP POP JUMP JUMPDEST PUSH1 0x1 DUP2 DUP2 SHR SWAP1 DUP3 AND DUP1 PUSH3 0x5A9 JUMPI PUSH1 0x7F DUP3 AND SWAP2 POP JUMPDEST PUSH1 0x20 DUP3 LT DUP2 SUB PUSH3 0x5C8 JUMPI PUSH4 0x4E487B71 PUSH1 0xE0 SHL PUSH0 MSTORE PUSH1 0x22 PUSH1 0x4 MSTORE PUSH1 0x24 PUSH0 REVERT JUMPDEST POP SWAP2 SWAP1 POP JUMP JUMPDEST PUSH1 0x1F DUP3 GT ISZERO PUSH3 0x61B JUMPI PUSH0 DUP2 DUP2 MSTORE PUSH1 0x20 DUP2 KECCAK256 PUSH1 0x1F DUP6 ADD PUSH1 0x5 SHR DUP2 ADD PUSH1 0x20 DUP7 LT ISZERO PUSH3 0x5F6 JUMPI POP DUP1 JUMPDEST PUSH1 0x1F DUP6 ADD PUSH1 0x5 SHR DUP3 ADD SWAP2 POP JUMPDEST DUP2 DUP2 LT ISZERO PUSH3 0x617 JUMPI DUP3 DUP2 SSTORE PUSH1 0x1 ADD PUSH3 0x602 JUMP JUMPDEST POP POP POP JUMPDEST POP POP POP JUMP JUMPDEST DUP2 MLOAD PUSH1 0x1 PUSH1 0x1 PUSH1 0x40 SHL SUB DUP2 GT ISZERO PUSH3 0x63C JUMPI PUSH3 0x63C PUSH3 0x333 JUMP JUMPDEST PUSH3 0x654 DUP2 PUSH3 0x64D DUP5 SLOAD PUSH3 0x594 JUMP JUMPDEST DUP5 PUSH3 0x5CE JUMP JUMPDEST PUSH1 0x20 DUP1 PUSH1 0x1F DUP4 GT PUSH1 0x1 DUP2 EQ PUSH3 0x68A JUMPI PUSH0 DUP5 ISZERO PUSH3 0x672 JUMPI POP DUP6 DUP4 ADD MLOAD JUMPDEST PUSH0 NOT PUSH1 0x3 DUP7 SWAP1 SHL SHR NOT AND PUSH1 0x1 DUP6 SWAP1 SHL OR DUP6 SSTORE PUSH3 0x617 JUMP JUMPDEST PUSH0 DUP6 DUP2 MSTORE PUSH1 0x20 DUP2 KECCAK256 PUSH1 0x1F NOT DUP7 AND SWAP2 JUMPDEST DUP3 DUP2 LT ISZERO PUSH3 0x6BA JUMPI DUP9 DUP7 ADD MLOAD DUP3 SSTORE SWAP5 DUP5 ADD SWAP5 PUSH1 0x1 SWAP1 SWAP2 ADD SWAP1 DUP5 ADD PUSH3 0x699 JUMP JUMPDEST POP DUP6 DUP3 LT ISZERO PUSH3 0x6D8 JUMPI DUP8 DUP6 ADD MLOAD PUSH0 NOT PUSH1 0x3 DUP9 SWAP1 SHL PUSH1 0xF8 AND SHR NOT AND DUP2 SSTORE JUMPDEST POP POP POP POP POP PUSH1 0x1 SWAP1 DUP2 SHL ADD SWAP1 SSTORE POP JUMP JUMPDEST PUSH2 0x1912 DUP1 PUSH3 0x6F6 PUSH0 CODECOPY PUSH0 RETURN INVALID PUSH1 0x80 PUSH1 0x40 MSTORE CALLVALUE DUP1 ISZERO PUSH2 0xF JUMPI PUSH0 DUP1 REVERT JUMPDEST POP PUSH1 0x4 CALLDATASIZE LT PUSH2 0x1DC JUMPI PUSH0 CALLDATALOAD PUSH1 0xE0 SHR DUP1 PUSH4 0x6444E37B GT PUSH2 0x109 JUMPI DUP1 PUSH4 0xC6A0E27D GT PUSH2 0x9E JUMPI DUP1 PUSH4 0xF2FDE38B GT PUSH2 0x6E JUMPI DUP1 PUSH4 0xF2FDE38B EQ PUSH2 0x409 JUMPI DUP1 PUSH4 0xF7C618C1 EQ PUSH2 0x41C JUMPI DUP1 PUSH4 0xF84B903E EQ PUSH2 0x42F JUMPI DUP1 PUSH4 0xFFB2D35D EQ PUSH2 0x43C JUMPI PUSH0 DUP1 REVERT JUMPDEST DUP1 PUSH4 0xC6A0E27D EQ PUSH2 0x3C2 JUMPI DUP1 PUSH4 0xCB2EF6F7 EQ PUSH2 0x3CA JUMPI DUP1 PUSH4 0xDDEAE033 EQ PUSH2 0x3D3 JUMPI DUP1 PUSH4 0xEB9DB27E EQ PUSH2 0x3E6 JUMPI PUSH0 DUP1 REVERT JUMPDEST DUP1 PUSH4 0x8DA5CB5B GT PUSH2 0xD9 JUMPI DUP1 PUSH4 0x8DA5CB5B EQ PUSH2 0x365 JUMPI DUP1 PUSH4 0x96336B30 EQ PUSH2 0x389 JUMPI DUP1 PUSH4 0xC290D691 EQ PUSH2 0x39C JUMPI DUP1 PUSH4 0xC45A0155 EQ PUSH2 0x3AF JUMPI PUSH0 DUP1 REVERT JUMPDEST DUP1 PUSH4 0x6444E37B EQ PUSH2 0x339 JUMPI DUP1 PUSH4 0x71007509 EQ PUSH2 0x342 JUMPI DUP1 PUSH4 0x715018A6 EQ PUSH2 0x34A JUMPI DUP1 PUSH4 0x747DAEC5 EQ PUSH2 0x352 JUMPI PUSH0 DUP1 REVERT JUMPDEST DUP1 PUSH4 0x491447A8 GT PUSH2 0x17F JUMPI DUP1 PUSH4 0x5512F4D6 GT PUSH2 0x14F JUMPI DUP1 PUSH4 0x5512F4D6 EQ PUSH2 0x30D JUMPI DUP1 PUSH4 0x586360CE EQ PUSH2 0x320 JUMPI DUP1 PUSH4 0x590E1AE3 EQ PUSH2 0x329 JUMPI DUP1 PUSH4 0x62BEA93F EQ PUSH2 0x331 JUMPI PUSH0 DUP1 REVERT JUMPDEST DUP1 PUSH4 0x491447A8 EQ PUSH2 0x2E1 JUMPI DUP1 PUSH4 0x4B1A4C0C EQ PUSH2 0x2F3 JUMPI DUP1 PUSH4 0x4E71D92D EQ PUSH2 0x2FC JUMPI DUP1 PUSH4 0x5216AEEC EQ PUSH2 0x304 JUMPI PUSH0 DUP1 REVERT JUMPDEST DUP1 PUSH4 0x313CE567 GT PUSH2 0x1BA JUMPI DUP1 PUSH4 0x313CE567 EQ PUSH2 0x29A JUMPI DUP1 PUSH4 0x38471DBA EQ PUSH2 0x2B1 JUMPI DUP1 PUSH4 0x3CCFD60B EQ PUSH2 0x2C6 JUMPI DUP1 PUSH4 0x3F138D4B EQ PUSH2 0x2CE JUMPI PUSH0 DUP1 REVERT JUMPDEST DUP1 PUSH4 0x12D3675E EQ PUSH2 0x1E0 JUMPI DUP1 PUSH4 0x1959A002 EQ PUSH2 0x23C JUMPI DUP1 PUSH4 0x2DCC8C66 EQ PUSH2 0x285 JUMPI JUMPDEST PUSH0 DUP1 REVERT JUMPDEST PUSH1 0x7 SLOAD PUSH1 0x8 SLOAD PUSH1 0x9 SLOAD PUSH1 0xA SLOAD PUSH1 0xB SLOAD PUSH1 0xC SLOAD PUSH1 0xD SLOAD PUSH2 0x202 SWAP7 SWAP6 SWAP5 SWAP4 SWAP3 SWAP2 SWAP1 DUP8 JUMP JUMPDEST PUSH1 0x40 DUP1 MLOAD SWAP8 DUP9 MSTORE PUSH1 0x20 DUP9 ADD SWAP7 SWAP1 SWAP7 MSTORE SWAP5 DUP7 ADD SWAP4 SWAP1 SWAP4 MSTORE PUSH1 0x60 DUP6 ADD SWAP2 SWAP1 SWAP2 MSTORE PUSH1 0x80 DUP5 ADD MSTORE PUSH1 0xA0 DUP4 ADD MSTORE PUSH1 0xC0 DUP3 ADD MSTORE PUSH1 0xE0 ADD JUMPDEST PUSH1 0x40 MLOAD DUP1 SWAP2 SUB SWAP1 RETURN JUMPDEST PUSH2 0x26A PUSH2 0x24A CALLDATASIZE PUSH1 0x4 PUSH2 0x13DE JUMP JUMPDEST PUSH1 0x15 PUSH1 0x20 MSTORE PUSH0 SWAP1 DUP2 MSTORE PUSH1 0x40 SWAP1 KECCAK256 DUP1 SLOAD PUSH1 0x1 DUP3 ADD SLOAD PUSH1 0x2 SWAP1 SWAP3 ADD SLOAD SWAP1 SWAP2 SWAP1 DUP4 JUMP JUMPDEST PUSH1 0x40 DUP1 MLOAD SWAP4 DUP5 MSTORE PUSH1 0x20 DUP5 ADD SWAP3 SWAP1 SWAP3 MSTORE SWAP1 DUP3 ADD MSTORE PUSH1 0x60 ADD PUSH2 0x233 JUMP JUMPDEST PUSH2 0x28D PUSH2 0x44E JUMP JUMPDEST PUSH1 0x40 MLOAD PUSH2 0x233 SWAP2 SWAP1 PUSH2 0x1419 JUMP JUMPDEST PUSH2 0x2A3 PUSH1 0x3 SLOAD DUP2 JUMP JUMPDEST PUSH1 0x40 MLOAD SWAP1 DUP2 MSTORE PUSH1 0x20 ADD PUSH2 0x233 JUMP JUMPDEST PUSH2 0x2C4 PUSH2 0x2BF CALLDATASIZE PUSH1 0x4 PUSH2 0x1458 JUMP JUMPDEST PUSH2 0x4DA JUMP JUMPDEST STOP JUMPDEST PUSH2 0x2C4 PUSH2 0x4FC JUMP JUMPDEST PUSH2 0x2C4 PUSH2 0x2DC CALLDATASIZE PUSH1 0x4 PUSH2 0x147A JUMP JUMPDEST PUSH2 0x656 JUMP JUMPDEST PUSH1 0xE SLOAD PUSH1 0xF SLOAD PUSH1 0x10 SLOAD PUSH2 0x26A SWAP3 SWAP2 SWAP1 DUP4 JUMP JUMPDEST PUSH2 0x2A3 PUSH1 0x12 SLOAD DUP2 JUMP JUMPDEST PUSH2 0x2C4 PUSH2 0x690 JUMP JUMPDEST PUSH2 0x2A3 PUSH1 0x11 SLOAD DUP2 JUMP JUMPDEST PUSH2 0x2C4 PUSH2 0x31B CALLDATASIZE PUSH1 0x4 PUSH2 0x1458 JUMP JUMPDEST PUSH2 0x69B JUMP JUMPDEST PUSH2 0x2A3 PUSH1 0x13 SLOAD DUP2 JUMP JUMPDEST PUSH2 0x2C4 PUSH2 0x6BF JUMP JUMPDEST PUSH2 0x2A3 PUSH2 0x806 JUMP JUMPDEST PUSH2 0x2A3 PUSH1 0x5 SLOAD DUP2 JUMP JUMPDEST PUSH2 0x2C4 PUSH2 0x89D JUMP JUMPDEST PUSH2 0x2C4 PUSH2 0x9F7 JUMP JUMPDEST PUSH2 0x2C4 PUSH2 0x360 CALLDATASIZE PUSH1 0x4 PUSH2 0x14B6 JUMP JUMPDEST PUSH2 0xA08 JUMP JUMPDEST PUSH0 SLOAD PUSH1 0x1 PUSH1 0x1 PUSH1 0xA0 SHL SUB AND JUMPDEST PUSH1 0x40 MLOAD PUSH1 0x1 PUSH1 0x1 PUSH1 0xA0 SHL SUB SWAP1 SWAP2 AND DUP2 MSTORE PUSH1 0x20 ADD PUSH2 0x233 JUMP JUMPDEST PUSH1 0x4 SLOAD PUSH2 0x371 SWAP1 PUSH1 0x1 PUSH1 0x1 PUSH1 0xA0 SHL SUB AND DUP2 JUMP JUMPDEST PUSH2 0x2C4 PUSH2 0x3AA CALLDATASIZE PUSH1 0x4 PUSH2 0x1561 JUMP JUMPDEST PUSH2 0xA14 JUMP JUMPDEST PUSH1 0x17 SLOAD PUSH2 0x371 SWAP1 PUSH1 0x1 PUSH1 0x1 PUSH1 0xA0 SHL SUB AND DUP2 JUMP JUMPDEST PUSH2 0x2C4 PUSH2 0xC8F JUMP JUMPDEST PUSH2 0x2A3 PUSH1 0x16 SLOAD DUP2 JUMP JUMPDEST PUSH2 0x2C4 PUSH2 0x3E1 CALLDATASIZE PUSH1 0x4 PUSH2 0x13DE JUMP JUMPDEST PUSH2 0xD8C JUMP JUMPDEST PUSH1 0x14 SLOAD PUSH2 0x3F9 SWAP1 PUSH3 0x10000 SWAP1 DIV PUSH1 0xFF AND DUP2 JUMP JUMPDEST PUSH1 0x40 MLOAD SWAP1 ISZERO ISZERO DUP2 MSTORE PUSH1 0x20 ADD PUSH2 0x233 JUMP JUMPDEST PUSH2 0x2C4 PUSH2 0x417 CALLDATASIZE PUSH1 0x4 PUSH2 0x13DE JUMP JUMPDEST PUSH2 0xD95 JUMP JUMPDEST PUSH1 0x2 SLOAD PUSH2 0x371 SWAP1 PUSH1 0x1 PUSH1 0x1 PUSH1 0xA0 SHL SUB AND DUP2 JUMP JUMPDEST PUSH1 0x14 SLOAD PUSH2 0x3F9 SWAP1 PUSH1 0xFF AND DUP2 JUMP JUMPDEST PUSH1 0x14 SLOAD PUSH2 0x3F9 SWAP1 PUSH2 0x100 SWAP1 DIV PUSH1 0xFF AND DUP2 JUMP JUMPDEST PUSH1 0x6 DUP1 SLOAD PUSH2 0x45B SWAP1 PUSH2 0x1578 JUMP JUMPDEST DUP1 PUSH1 0x1F ADD PUSH1 0x20 DUP1 SWAP2 DIV MUL PUSH1 0x20 ADD PUSH1 0x40 MLOAD SWAP1 DUP2 ADD PUSH1 0x40 MSTORE DUP1 SWAP3 SWAP2 SWAP1 DUP2 DUP2 MSTORE PUSH1 0x20 ADD DUP3 DUP1 SLOAD PUSH2 0x487 SWAP1 PUSH2 0x1578 JUMP JUMPDEST DUP1 ISZERO PUSH2 0x4D2 JUMPI DUP1 PUSH1 0x1F LT PUSH2 0x4A9 JUMPI PUSH2 0x100 DUP1 DUP4 SLOAD DIV MUL DUP4 MSTORE SWAP2 PUSH1 0x20 ADD SWAP2 PUSH2 0x4D2 JUMP JUMPDEST DUP3 ADD SWAP2 SWAP1 PUSH0 MSTORE PUSH1 0x20 PUSH0 KECCAK256 SWAP1 JUMPDEST DUP2 SLOAD DUP2 MSTORE SWAP1 PUSH1 0x1 ADD SWAP1 PUSH1 0x20 ADD DUP1 DUP4 GT PUSH2 0x4B5 JUMPI DUP3 SWAP1 SUB PUSH1 0x1F AND DUP3 ADD SWAP2 JUMPDEST POP POP POP POP POP DUP2 JUMP JUMPDEST PUSH2 0x4E2 PUSH2 0xE0B JUMP JUMPDEST PUSH1 0x14 DUP1 SLOAD SWAP2 ISZERO ISZERO PUSH2 0x100 MUL PUSH2 0xFF00 NOT SWAP1 SWAP3 AND SWAP2 SWAP1 SWAP2 OR SWAP1 SSTORE JUMP JUMPDEST PUSH2 0x504 PUSH2 0xE0B JUMP JUMPDEST PUSH1 0x14 SLOAD PUSH3 0x10000 SWAP1 DIV PUSH1 0xFF AND PUSH2 0x5AC JUMPI PUSH1 0xF SLOAD TIMESTAMP GT PUSH2 0x53E JUMPI PUSH1 0x40 MLOAD PUSH3 0x461BCD PUSH1 0xE5 SHL DUP2 MSTORE PUSH1 0x4 ADD PUSH2 0x535 SWAP1 PUSH2 0x15B0 JUMP JUMPDEST PUSH1 0x40 MLOAD DUP1 SWAP2 SUB SWAP1 REVERT JUMPDEST PUSH1 0x8 SLOAD PUSH1 0x11 SLOAD LT ISZERO PUSH2 0x562 JUMPI PUSH1 0x40 MLOAD PUSH3 0x461BCD PUSH1 0xE5 SHL DUP2 MSTORE PUSH1 0x4 ADD PUSH2 0x535 SWAP1 PUSH2 0x15E7 JUMP JUMPDEST PUSH1 0x14 SLOAD PUSH1 0xFF AND ISZERO PUSH2 0x5AC JUMPI PUSH1 0x40 MLOAD PUSH3 0x461BCD PUSH1 0xE5 SHL DUP2 MSTORE PUSH1 0x20 PUSH1 0x4 DUP3 ADD MSTORE PUSH1 0x14 PUSH1 0x24 DUP3 ADD MSTORE PUSH20 0x20B63932B0B23C903234B9BA3934B13ABA32B217 PUSH1 0x61 SHL PUSH1 0x44 DUP3 ADD MSTORE PUSH1 0x64 ADD PUSH2 0x535 JUMP JUMPDEST PUSH1 0x4 DUP1 SLOAD PUSH1 0x40 MLOAD PUSH4 0x70A08231 PUSH1 0xE0 SHL DUP2 MSTORE ADDRESS SWAP3 DUP2 ADD SWAP3 SWAP1 SWAP3 MSTORE PUSH0 SWAP2 PUSH1 0x1 PUSH1 0x1 PUSH1 0xA0 SHL SUB SWAP1 SWAP2 AND SWAP1 PUSH4 0x70A08231 SWAP1 PUSH1 0x24 ADD PUSH1 0x20 PUSH1 0x40 MLOAD DUP1 DUP4 SUB DUP2 DUP7 GAS STATICCALL ISZERO DUP1 ISZERO PUSH2 0x5F7 JUMPI RETURNDATASIZE PUSH0 DUP1 RETURNDATACOPY RETURNDATASIZE PUSH0 REVERT JUMPDEST POP POP POP POP PUSH1 0x40 MLOAD RETURNDATASIZE PUSH1 0x1F NOT PUSH1 0x1F DUP3 ADD AND DUP3 ADD DUP1 PUSH1 0x40 MSTORE POP DUP2 ADD SWAP1 PUSH2 0x61B SWAP2 SWAP1 PUSH2 0x162B JUMP JUMPDEST PUSH1 0x4 SLOAD SWAP1 SWAP2 POP PUSH2 0x635 SWAP1 PUSH1 0x1 PUSH1 0x1 PUSH1 0xA0 SHL SUB AND CALLER DUP4 PUSH2 0xE64 JUMP JUMPDEST PUSH1 0x14 SLOAD PUSH3 0x10000 SWAP1 DIV PUSH1 0xFF AND PUSH2 0x653 JUMPI PUSH1 0x14 DUP1 SLOAD PUSH1 0xFF NOT AND PUSH1 0x1 OR SWAP1 SSTORE JUMPDEST POP JUMP JUMPDEST PUSH2 0x65E PUSH2 0xE0B JUMP JUMPDEST PUSH1 0x2 SLOAD PUSH1 0x1 PUSH1 0x1 PUSH1 0xA0 SHL SUB SWAP1 DUP2 AND SWAP1 DUP4 AND SUB PUSH2 0x678 JUMPI PUSH0 DUP1 REVERT JUMPDEST PUSH2 0x68C PUSH1 0x1 PUSH1 0x1 PUSH1 0xA0 SHL SUB DUP4 AND CALLER DUP4 PUSH2 0xE64 JUMP JUMPDEST POP POP JUMP JUMPDEST PUSH2 0x699 CALLER PUSH2 0xECC JUMP JUMPDEST JUMP JUMPDEST PUSH2 0x6A3 PUSH2 0xE0B JUMP JUMPDEST PUSH1 0x14 DUP1 SLOAD SWAP2 ISZERO ISZERO PUSH3 0x10000 MUL PUSH3 0xFF0000 NOT SWAP1 SWAP3 AND SWAP2 SWAP1 SWAP2 OR SWAP1 SSTORE JUMP JUMPDEST PUSH1 0x14 SLOAD PUSH2 0x100 SWAP1 DIV PUSH1 0xFF AND PUSH2 0x70B JUMPI PUSH1 0x40 MLOAD PUSH3 0x461BCD PUSH1 0xE5 SHL DUP2 MSTORE PUSH1 0x20 PUSH1 0x4 DUP3 ADD MSTORE PUSH1 0x12 PUSH1 0x24 DUP3 ADD MSTORE PUSH18 0x1499599D5B99081B9BDD08195B98589B1959 PUSH1 0x72 SHL PUSH1 0x44 DUP3 ADD MSTORE PUSH1 0x64 ADD PUSH2 0x535 JUMP JUMPDEST PUSH1 0xF SLOAD TIMESTAMP GT PUSH2 0x72C JUMPI PUSH1 0x40 MLOAD PUSH3 0x461BCD PUSH1 0xE5 SHL DUP2 MSTORE PUSH1 0x4 ADD PUSH2 0x535 SWAP1 PUSH2 0x15B0 JUMP JUMPDEST PUSH1 0x8 SLOAD PUSH1 0x11 SLOAD LT PUSH2 0x77F JUMPI PUSH1 0x40 MLOAD PUSH3 0x461BCD PUSH1 0xE5 SHL DUP2 MSTORE PUSH1 0x20 PUSH1 0x4 DUP3 ADD DUP2 SWAP1 MSTORE PUSH1 0x24 DUP3 ADD MSTORE PUSH32 0x5468652049444F20706F6F6C2068617320726561636820736F6674206361702E PUSH1 0x44 DUP3 ADD MSTORE PUSH1 0x64 ADD PUSH2 0x535 JUMP JUMPDEST CALLER PUSH0 SWAP1 DUP2 MSTORE PUSH1 0x15 PUSH1 0x20 MSTORE PUSH1 0x40 SWAP1 KECCAK256 PUSH1 0x2 DUP2 ADD SLOAD DUP1 PUSH2 0x7DF JUMPI PUSH1 0x40 MLOAD PUSH3 0x461BCD PUSH1 0xE5 SHL DUP2 MSTORE PUSH1 0x20 PUSH1 0x4 DUP3 ADD MSTORE PUSH1 0x17 PUSH1 0x24 DUP3 ADD MSTORE PUSH32 0x596F752068617665206E6F20696E766573746D656E742E000000000000000000 PUSH1 0x44 DUP3 ADD MSTORE PUSH1 0x64 ADD PUSH2 0x535 JUMP JUMPDEST PUSH0 DUP1 DUP4 SSTORE PUSH1 0x2 DUP4 ADD DUP2 SWAP1 SSTORE PUSH1 0x1 DUP4 ADD SSTORE PUSH1 0x4 SLOAD PUSH2 0x68C SWAP1 PUSH1 0x1 PUSH1 0x1 PUSH1 0xA0 SHL SUB AND CALLER DUP4 PUSH2 0xE64 JUMP JUMPDEST PUSH1 0x2 SLOAD PUSH1 0x40 MLOAD PUSH4 0x70A08231 PUSH1 0xE0 SHL DUP2 MSTORE ADDRESS PUSH1 0x4 DUP3 ADD MSTORE PUSH0 SWAP2 DUP3 SWAP2 PUSH1 0x1 PUSH1 0x1 PUSH1 0xA0 SHL SUB SWAP1 SWAP2 AND SWAP1 PUSH4 0x70A08231 SWAP1 PUSH1 0x24 ADD PUSH1 0x20 PUSH1 0x40 MLOAD DUP1 DUP4 SUB DUP2 DUP7 GAS STATICCALL ISZERO DUP1 ISZERO PUSH2 0x850 JUMPI RETURNDATASIZE PUSH0 DUP1 RETURNDATACOPY RETURNDATASIZE PUSH0 REVERT JUMPDEST POP POP POP POP PUSH1 0x40 MLOAD RETURNDATASIZE PUSH1 0x1F NOT PUSH1 0x1F DUP3 ADD AND DUP3 ADD DUP1 PUSH1 0x40 MSTORE POP DUP2 ADD SWAP1 PUSH2 0x874 SWAP2 SWAP1 PUSH2 0x162B JUMP JUMPDEST SWAP1 POP PUSH2 0x897 PUSH1 0x12 SLOAD PUSH2 0x891 PUSH1 0x13 SLOAD DUP5 PUSH2 0x1007 SWAP1 SWAP2 SWAP1 PUSH4 0xFFFFFFFF AND JUMP JUMPDEST SWAP1 PUSH2 0x101B JUMP JUMPDEST SWAP2 POP POP SWAP1 JUMP JUMPDEST PUSH2 0x8A5 PUSH2 0xE0B JUMP JUMPDEST PUSH1 0xF SLOAD TIMESTAMP GT PUSH2 0x8C6 JUMPI PUSH1 0x40 MLOAD PUSH3 0x461BCD PUSH1 0xE5 SHL DUP2 MSTORE PUSH1 0x4 ADD PUSH2 0x535 SWAP1 PUSH2 0x15B0 JUMP JUMPDEST PUSH1 0x8 SLOAD PUSH1 0x11 SLOAD LT PUSH2 0x919 JUMPI PUSH1 0x40 MLOAD PUSH3 0x461BCD PUSH1 0xE5 SHL DUP2 MSTORE PUSH1 0x20 PUSH1 0x4 DUP3 ADD DUP2 SWAP1 MSTORE PUSH1 0x24 DUP3 ADD MSTORE PUSH32 0x5468652049444F20706F6F6C2068617320726561636820736F6674206361702E PUSH1 0x44 DUP3 ADD MSTORE PUSH1 0x64 ADD PUSH2 0x535 JUMP JUMPDEST PUSH1 0x2 SLOAD PUSH1 0x40 MLOAD PUSH4 0x70A08231 PUSH1 0xE0 SHL DUP2 MSTORE ADDRESS PUSH1 0x4 DUP3 ADD MSTORE PUSH0 SWAP2 PUSH1 0x1 PUSH1 0x1 PUSH1 0xA0 SHL SUB AND SWAP1 PUSH4 0x70A08231 SWAP1 PUSH1 0x24 ADD PUSH1 0x20 PUSH1 0x40 MLOAD DUP1 DUP4 SUB DUP2 DUP7 GAS STATICCALL ISZERO DUP1 ISZERO PUSH2 0x95F JUMPI RETURNDATASIZE PUSH0 DUP1 RETURNDATACOPY RETURNDATASIZE PUSH0 REVERT JUMPDEST POP POP POP POP PUSH1 0x40 MLOAD RETURNDATASIZE PUSH1 0x1F NOT PUSH1 0x1F DUP3 ADD AND DUP3 ADD DUP1 PUSH1 0x40 MSTORE POP DUP2 ADD SWAP1 PUSH2 0x983 SWAP2 SWAP1 PUSH2 0x162B JUMP JUMPDEST SWAP1 POP PUSH0 DUP2 GT PUSH2 0x9E0 JUMPI PUSH1 0x40 MLOAD PUSH3 0x461BCD PUSH1 0xE5 SHL DUP2 MSTORE PUSH1 0x20 PUSH1 0x4 DUP3 ADD MSTORE PUSH1 0x23 PUSH1 0x24 DUP3 ADD MSTORE PUSH32 0x5468652049444F20706F6F6C20686173206E6F7420726566756E6420746F6B65 PUSH1 0x44 DUP3 ADD MSTORE PUSH3 0x373997 PUSH1 0xE9 SHL PUSH1 0x64 DUP3 ADD MSTORE PUSH1 0x84 ADD PUSH2 0x535 JUMP JUMPDEST PUSH1 0x2 SLOAD PUSH2 0x653 SWAP1 PUSH1 0x1 PUSH1 0x1 PUSH1 0xA0 SHL SUB AND CALLER DUP4 PUSH2 0xE64 JUMP JUMPDEST PUSH2 0x9FF PUSH2 0xE0B JUMP JUMPDEST PUSH2 0x699 PUSH0 PUSH2 0x1026 JUMP JUMPDEST PUSH1 0x6 PUSH2 0x68C DUP3 DUP3 PUSH2 0x168F JUMP JUMPDEST PUSH1 0xE SLOAD TIMESTAMP LT ISZERO PUSH2 0xA54 JUMPI PUSH1 0x40 MLOAD PUSH3 0x461BCD PUSH1 0xE5 SHL DUP2 MSTORE PUSH1 0x20 PUSH1 0x4 DUP3 ADD MSTORE PUSH1 0xB PUSH1 0x24 DUP3 ADD MSTORE PUSH11 0x139BDD081CDD185C9D1959 PUSH1 0xAA SHL PUSH1 0x44 DUP3 ADD MSTORE PUSH1 0x64 ADD PUSH2 0x535 JUMP JUMPDEST PUSH1 0xF SLOAD TIMESTAMP LT PUSH2 0xA8D JUMPI PUSH1 0x40 MLOAD PUSH3 0x461BCD PUSH1 0xE5 SHL DUP2 MSTORE PUSH1 0x20 PUSH1 0x4 DUP3 ADD MSTORE PUSH1 0x5 PUSH1 0x24 DUP3 ADD MSTORE PUSH5 0x115B991959 PUSH1 0xDA SHL PUSH1 0x44 DUP3 ADD MSTORE PUSH1 0x64 ADD PUSH2 0x535 JUMP JUMPDEST PUSH1 0xA SLOAD DUP2 LT ISZERO PUSH2 0xAD6 JUMPI PUSH1 0x40 MLOAD PUSH3 0x461BCD PUSH1 0xE5 SHL DUP2 MSTORE PUSH1 0x20 PUSH1 0x4 DUP3 ADD MSTORE PUSH1 0x14 PUSH1 0x24 DUP3 ADD MSTORE PUSH20 0x13195CDCC81D1A195B881B5A5B88185B5BDD5B9D PUSH1 0x62 SHL PUSH1 0x44 DUP3 ADD MSTORE PUSH1 0x64 ADD PUSH2 0x535 JUMP JUMPDEST PUSH1 0xB SLOAD DUP2 GT ISZERO PUSH2 0xB1F JUMPI PUSH1 0x40 MLOAD PUSH3 0x461BCD PUSH1 0xE5 SHL DUP2 MSTORE PUSH1 0x20 PUSH1 0x4 DUP3 ADD MSTORE PUSH1 0x14 PUSH1 0x24 DUP3 ADD MSTORE PUSH20 0x135BDC99481D1A195B881B585E08185B5BDD5B9D PUSH1 0x62 SHL PUSH1 0x44 DUP3 ADD MSTORE PUSH1 0x64 ADD PUSH2 0x535 JUMP JUMPDEST PUSH1 0x9 SLOAD PUSH1 0x11 SLOAD PUSH2 0xB2F SWAP1 DUP4 PUSH2 0x1007 JUMP JUMPDEST GT ISZERO PUSH2 0xB6A JUMPI PUSH1 0x40 MLOAD PUSH3 0x461BCD PUSH1 0xE5 SHL DUP2 MSTORE PUSH1 0x20 PUSH1 0x4 DUP3 ADD MSTORE PUSH1 0xA PUSH1 0x24 DUP3 ADD MSTORE PUSH10 0x13DD995C999A5B1B1959 PUSH1 0xB2 SHL PUSH1 0x44 DUP3 ADD MSTORE PUSH1 0x64 ADD PUSH2 0x535 JUMP JUMPDEST CALLER PUSH0 SWAP1 DUP2 MSTORE PUSH1 0x15 PUSH1 0x20 MSTORE PUSH1 0x40 SWAP1 KECCAK256 PUSH1 0xB SLOAD PUSH1 0x2 DUP3 ADD SLOAD PUSH2 0xB8A SWAP1 DUP5 PUSH2 0x1007 JUMP JUMPDEST GT ISZERO PUSH2 0xBCF JUMPI PUSH1 0x40 MLOAD PUSH3 0x461BCD PUSH1 0xE5 SHL DUP2 MSTORE PUSH1 0x20 PUSH1 0x4 DUP3 ADD MSTORE PUSH1 0x14 PUSH1 0x24 DUP3 ADD MSTORE PUSH20 0x135BDC99481D1A195B881B585E08185B5BDD5B9D PUSH1 0x62 SHL PUSH1 0x44 DUP3 ADD MSTORE PUSH1 0x64 ADD PUSH2 0x535 JUMP JUMPDEST PUSH0 PUSH2 0xBDE DUP4 PUSH1 0x7 PUSH0 ADD SLOAD PUSH2 0x1075 JUMP JUMPDEST PUSH1 0x4 SLOAD SWAP1 SWAP2 POP PUSH2 0xBF9 SWAP1 PUSH1 0x1 PUSH1 0x1 PUSH1 0xA0 SHL SUB AND CALLER ADDRESS DUP7 PUSH2 0x10D1 JUMP JUMPDEST PUSH1 0x11 SLOAD PUSH2 0xC06 SWAP1 DUP5 PUSH2 0x1007 JUMP JUMPDEST PUSH1 0x11 SSTORE PUSH1 0x12 SLOAD PUSH2 0xC16 SWAP1 DUP3 PUSH2 0x1007 JUMP JUMPDEST PUSH1 0x12 SSTORE PUSH1 0x2 DUP3 ADD SLOAD PUSH2 0xC28 SWAP1 DUP5 PUSH2 0x1007 JUMP JUMPDEST PUSH1 0x2 DUP4 ADD SSTORE PUSH1 0x1 DUP3 ADD SLOAD PUSH2 0xC3C SWAP1 DUP3 PUSH2 0x1007 JUMP JUMPDEST PUSH1 0x1 DUP4 ADD SSTORE DUP2 SLOAD PUSH2 0xC4D SWAP1 DUP3 PUSH2 0x1007 JUMP JUMPDEST DUP3 SSTORE PUSH1 0x40 DUP1 MLOAD DUP5 DUP2 MSTORE PUSH1 0x20 DUP2 ADD DUP4 SWAP1 MSTORE CALLER SWAP2 PUSH32 0xB55D4CA2FC644CA3F8CDC9C907826E24ACD68D2B2D4D73F48B8F2378DBAEDF5D SWAP2 ADD PUSH1 0x40 MLOAD DUP1 SWAP2 SUB SWAP1 LOG2 POP POP POP JUMP JUMPDEST PUSH2 0xC97 PUSH2 0xE0B JUMP JUMPDEST PUSH1 0xF SLOAD TIMESTAMP GT PUSH2 0xCB8 JUMPI PUSH1 0x40 MLOAD PUSH3 0x461BCD PUSH1 0xE5 SHL DUP2 MSTORE PUSH1 0x4 ADD PUSH2 0x535 SWAP1 PUSH2 0x15B0 JUMP JUMPDEST PUSH1 0x14 SLOAD PUSH3 0x10000 SWAP1 DIV PUSH1 0xFF AND PUSH2 0xD26 JUMPI PUSH1 0x14 SLOAD PUSH1 0xFF AND PUSH2 0xD26 JUMPI PUSH1 0x40 MLOAD PUSH3 0x461BCD PUSH1 0xE5 SHL DUP2 MSTORE PUSH1 0x20 PUSH1 0x4 DUP3 ADD MSTORE PUSH1 0x23 PUSH1 0x24 DUP3 ADD MSTORE PUSH32 0x576974686472617720616C6C6F77656420616674657220646973747269627574 PUSH1 0x44 DUP3 ADD MSTORE PUSH3 0x32B217 PUSH1 0xE9 SHL PUSH1 0x64 DUP3 ADD MSTORE PUSH1 0x84 ADD PUSH2 0x535 JUMP JUMPDEST PUSH0 PUSH2 0xD2F PUSH2 0x806 JUMP JUMPDEST SWAP1 POP PUSH0 DUP2 GT PUSH2 0x9E0 JUMPI PUSH1 0x40 MLOAD PUSH3 0x461BCD PUSH1 0xE5 SHL DUP2 MSTORE PUSH1 0x20 PUSH1 0x4 DUP3 ADD MSTORE PUSH1 0x23 PUSH1 0x24 DUP3 ADD MSTORE PUSH32 0x5468652049444F20706F6F6C20686173206E6F7420756E736F6C6420746F6B65 PUSH1 0x44 DUP3 ADD MSTORE PUSH3 0x373997 PUSH1 0xE9 SHL PUSH1 0x64 DUP3 ADD MSTORE PUSH1 0x84 ADD PUSH2 0x535 JUMP JUMPDEST PUSH2 0x653 DUP2 PUSH2 0xECC JUMP JUMPDEST PUSH2 0xD9D PUSH2 0xE0B JUMP JUMPDEST PUSH1 0x1 PUSH1 0x1 PUSH1 0xA0 SHL SUB DUP2 AND PUSH2 0xE02 JUMPI PUSH1 0x40 MLOAD PUSH3 0x461BCD PUSH1 0xE5 SHL DUP2 MSTORE PUSH1 0x20 PUSH1 0x4 DUP3 ADD MSTORE PUSH1 0x26 PUSH1 0x24 DUP3 ADD MSTORE PUSH32 0x4F776E61626C653A206E6577206F776E657220697320746865207A65726F2061 PUSH1 0x44 DUP3 ADD MSTORE PUSH6 0x646472657373 PUSH1 0xD0 SHL PUSH1 0x64 DUP3 ADD MSTORE PUSH1 0x84 ADD PUSH2 0x535 JUMP JUMPDEST PUSH2 0x653 DUP2 PUSH2 0x1026 JUMP JUMPDEST PUSH0 SLOAD PUSH1 0x1 PUSH1 0x1 PUSH1 0xA0 SHL SUB AND CALLER EQ PUSH2 0x699 JUMPI PUSH1 0x40 MLOAD PUSH3 0x461BCD PUSH1 0xE5 SHL DUP2 MSTORE PUSH1 0x20 PUSH1 0x4 DUP3 ADD DUP2 SWAP1 MSTORE PUSH1 0x24 DUP3 ADD MSTORE PUSH32 0x4F776E61626C653A2063616C6C6572206973206E6F7420746865206F776E6572 PUSH1 0x44 DUP3 ADD MSTORE PUSH1 0x64 ADD PUSH2 0x535 JUMP JUMPDEST PUSH1 0x40 MLOAD PUSH1 0x1 PUSH1 0x1 PUSH1 0xA0 SHL SUB DUP4 AND PUSH1 0x24 DUP3 ADD MSTORE PUSH1 0x44 DUP2 ADD DUP3 SWAP1 MSTORE PUSH2 0xEC7 SWAP1 DUP5 SWAP1 PUSH4 0xA9059CBB PUSH1 0xE0 SHL SWAP1 PUSH1 0x64 ADD JUMPDEST PUSH1 0x40 DUP1 MLOAD PUSH1 0x1F NOT DUP2 DUP5 SUB ADD DUP2 MSTORE SWAP2 SWAP1 MSTORE PUSH1 0x20 DUP2 ADD DUP1 MLOAD PUSH1 0x1 PUSH1 0x1 PUSH1 0xE0 SHL SUB AND PUSH1 0x1 PUSH1 0x1 PUSH1 0xE0 SHL SUB NOT SWAP1 SWAP4 AND SWAP3 SWAP1 SWAP3 OR SWAP1 SWAP2 MSTORE PUSH2 0x110F JUMP JUMPDEST POP POP POP JUMP JUMPDEST PUSH2 0xED4 PUSH2 0x11E0 JUMP JUMPDEST PUSH1 0xF SLOAD TIMESTAMP GT PUSH2 0xEF5 JUMPI PUSH1 0x40 MLOAD PUSH3 0x461BCD PUSH1 0xE5 SHL DUP2 MSTORE PUSH1 0x4 ADD PUSH2 0x535 SWAP1 PUSH2 0x15B0 JUMP JUMPDEST PUSH1 0x14 SLOAD PUSH3 0x10000 SWAP1 DIV PUSH1 0xFF AND PUSH2 0xF29 JUMPI PUSH1 0x8 SLOAD PUSH1 0x11 SLOAD LT ISZERO PUSH2 0xF29 JUMPI PUSH1 0x40 MLOAD PUSH3 0x461BCD PUSH1 0xE5 SHL DUP2 MSTORE PUSH1 0x4 ADD PUSH2 0x535 SWAP1 PUSH2 0x15E7 JUMP JUMPDEST PUSH1 0x1 PUSH1 0x1 PUSH1 0xA0 SHL SUB DUP2 AND PUSH0 SWAP1 DUP2 MSTORE PUSH1 0x15 PUSH1 0x20 MSTORE PUSH1 0x40 SWAP1 KECCAK256 DUP1 SLOAD DUP1 PUSH2 0xF8F JUMPI PUSH1 0x40 MLOAD PUSH3 0x461BCD PUSH1 0xE5 SHL DUP2 MSTORE PUSH1 0x20 PUSH1 0x4 DUP3 ADD MSTORE PUSH1 0x1C PUSH1 0x24 DUP3 ADD MSTORE PUSH32 0x596F7520646F206E6F742068617665206465627420746F6B656E732E00000000 PUSH1 0x44 DUP3 ADD MSTORE PUSH1 0x64 ADD PUSH2 0x535 JUMP JUMPDEST PUSH0 DUP3 SSTORE PUSH1 0x13 SLOAD PUSH2 0xF9F SWAP1 DUP3 PUSH2 0x1007 JUMP JUMPDEST PUSH1 0x13 SSTORE PUSH1 0x2 SLOAD PUSH2 0xFB9 SWAP1 PUSH1 0x1 PUSH1 0x1 PUSH1 0xA0 SHL SUB AND DUP5 DUP4 PUSH2 0xE64 JUMP JUMPDEST DUP3 PUSH1 0x1 PUSH1 0x1 PUSH1 0xA0 SHL SUB AND PUSH32 0x6352C5382C4A4578E712449CA65E83CDB392D045DFCF1CAD9615189DB2DA244B DUP3 PUSH1 0x40 MLOAD PUSH2 0xFF4 SWAP2 DUP2 MSTORE PUSH1 0x20 ADD SWAP1 JUMP JUMPDEST PUSH1 0x40 MLOAD DUP1 SWAP2 SUB SWAP1 LOG2 POP POP PUSH2 0x653 PUSH1 0x1 DUP1 SSTORE JUMP JUMPDEST PUSH0 PUSH2 0x1012 DUP3 DUP5 PUSH2 0x175F JUMP JUMPDEST SWAP1 POP JUMPDEST SWAP3 SWAP2 POP POP JUMP JUMPDEST PUSH0 PUSH2 0x1012 DUP3 DUP5 PUSH2 0x1772 JUMP JUMPDEST PUSH0 DUP1 SLOAD PUSH1 0x1 PUSH1 0x1 PUSH1 0xA0 SHL SUB DUP4 DUP2 AND PUSH1 0x1 PUSH1 0x1 PUSH1 0xA0 SHL SUB NOT DUP4 AND DUP2 OR DUP5 SSTORE PUSH1 0x40 MLOAD SWAP2 SWAP1 SWAP3 AND SWAP3 DUP4 SWAP2 PUSH32 0x8BE0079C531659141344CD1FD0A4F28419497F9722A3DAAFE3B4186F6B6457E0 SWAP2 SWAP1 LOG3 POP POP JUMP JUMPDEST PUSH0 DUP1 PUSH1 0x5 SLOAD GT PUSH2 0x1086 JUMPI PUSH1 0x1 PUSH2 0x1094 JUMP JUMPDEST PUSH1 0x5 SLOAD PUSH2 0x1094 SWAP1 PUSH1 0xA PUSH2 0x1865 JUMP JUMPDEST DUP4 PUSH0 PUSH1 0x3 SLOAD GT PUSH2 0x10A5 JUMPI PUSH1 0x1 PUSH2 0x10B3 JUMP JUMPDEST PUSH1 0x3 SLOAD PUSH2 0x10B3 SWAP1 PUSH1 0xA PUSH2 0x1865 JUMP JUMPDEST PUSH2 0x10BD SWAP1 DUP6 PUSH2 0x1870 JUMP JUMPDEST PUSH2 0x10C7 SWAP2 SWAP1 PUSH2 0x1870 JUMP JUMPDEST PUSH2 0x1012 SWAP2 SWAP1 PUSH2 0x1887 JUMP JUMPDEST PUSH1 0x40 MLOAD PUSH1 0x1 PUSH1 0x1 PUSH1 0xA0 SHL SUB DUP1 DUP6 AND PUSH1 0x24 DUP4 ADD MSTORE DUP4 AND PUSH1 0x44 DUP3 ADD MSTORE PUSH1 0x64 DUP2 ADD DUP3 SWAP1 MSTORE PUSH2 0x1109 SWAP1 DUP6 SWAP1 PUSH4 0x23B872DD PUSH1 0xE0 SHL SWAP1 PUSH1 0x84 ADD PUSH2 0xE90 JUMP JUMPDEST POP POP POP POP JUMP JUMPDEST PUSH0 PUSH2 0x1163 DUP3 PUSH1 0x40 MLOAD DUP1 PUSH1 0x40 ADD PUSH1 0x40 MSTORE DUP1 PUSH1 0x20 DUP2 MSTORE PUSH1 0x20 ADD PUSH32 0x5361666545524332303A206C6F772D6C6576656C2063616C6C206661696C6564 DUP2 MSTORE POP DUP6 PUSH1 0x1 PUSH1 0x1 PUSH1 0xA0 SHL SUB AND PUSH2 0x1239 SWAP1 SWAP3 SWAP2 SWAP1 PUSH4 0xFFFFFFFF AND JUMP JUMPDEST DUP1 MLOAD SWAP1 SWAP2 POP ISZERO PUSH2 0xEC7 JUMPI DUP1 DUP1 PUSH1 0x20 ADD SWAP1 MLOAD DUP2 ADD SWAP1 PUSH2 0x1181 SWAP2 SWAP1 PUSH2 0x18A6 JUMP JUMPDEST PUSH2 0xEC7 JUMPI PUSH1 0x40 MLOAD PUSH3 0x461BCD PUSH1 0xE5 SHL DUP2 MSTORE PUSH1 0x20 PUSH1 0x4 DUP3 ADD MSTORE PUSH1 0x2A PUSH1 0x24 DUP3 ADD MSTORE PUSH32 0x5361666545524332303A204552433230206F7065726174696F6E20646964206E PUSH1 0x44 DUP3 ADD MSTORE PUSH10 0x1BDD081CDD58D8D95959 PUSH1 0xB2 SHL PUSH1 0x64 DUP3 ADD MSTORE PUSH1 0x84 ADD PUSH2 0x535 JUMP JUMPDEST PUSH1 0x2 PUSH1 0x1 SLOAD SUB PUSH2 0x1232 JUMPI PUSH1 0x40 MLOAD PUSH3 0x461BCD PUSH1 0xE5 SHL DUP2 MSTORE PUSH1 0x20 PUSH1 0x4 DUP3 ADD MSTORE PUSH1 0x1F PUSH1 0x24 DUP3 ADD MSTORE PUSH32 0x5265656E7472616E637947756172643A207265656E7472616E742063616C6C00 PUSH1 0x44 DUP3 ADD MSTORE PUSH1 0x64 ADD PUSH2 0x535 JUMP JUMPDEST PUSH1 0x2 PUSH1 0x1 SSTORE JUMP JUMPDEST PUSH1 0x60 PUSH2 0x1247 DUP5 DUP5 PUSH0 DUP6 PUSH2 0x124F JUMP JUMPDEST SWAP5 SWAP4 POP POP POP POP JUMP JUMPDEST PUSH1 0x60 DUP3 SELFBALANCE LT ISZERO PUSH2 0x12B0 JUMPI PUSH1 0x40 MLOAD PUSH3 0x461BCD PUSH1 0xE5 SHL DUP2 MSTORE PUSH1 0x20 PUSH1 0x4 DUP3 ADD MSTORE PUSH1 0x26 PUSH1 0x24 DUP3 ADD MSTORE PUSH32 0x416464726573733A20696E73756666696369656E742062616C616E636520666F PUSH1 0x44 DUP3 ADD MSTORE PUSH6 0x1C8818D85B1B PUSH1 0xD2 SHL PUSH1 0x64 DUP3 ADD MSTORE PUSH1 0x84 ADD PUSH2 0x535 JUMP JUMPDEST PUSH0 DUP1 DUP7 PUSH1 0x1 PUSH1 0x1 PUSH1 0xA0 SHL SUB AND DUP6 DUP8 PUSH1 0x40 MLOAD PUSH2 0x12CB SWAP2 SWAP1 PUSH2 0x18C1 JUMP JUMPDEST PUSH0 PUSH1 0x40 MLOAD DUP1 DUP4 SUB DUP2 DUP6 DUP8 GAS CALL SWAP3 POP POP POP RETURNDATASIZE DUP1 PUSH0 DUP2 EQ PUSH2 0x1305 JUMPI PUSH1 0x40 MLOAD SWAP2 POP PUSH1 0x1F NOT PUSH1 0x3F RETURNDATASIZE ADD AND DUP3 ADD PUSH1 0x40 MSTORE RETURNDATASIZE DUP3 MSTORE RETURNDATASIZE PUSH0 PUSH1 0x20 DUP5 ADD RETURNDATACOPY PUSH2 0x130A JUMP JUMPDEST PUSH1 0x60 SWAP2 POP JUMPDEST POP SWAP2 POP SWAP2 POP PUSH2 0x131B DUP8 DUP4 DUP4 DUP8 PUSH2 0x1326 JUMP JUMPDEST SWAP8 SWAP7 POP POP POP POP POP POP POP JUMP JUMPDEST PUSH1 0x60 DUP4 ISZERO PUSH2 0x1394 JUMPI DUP3 MLOAD PUSH0 SUB PUSH2 0x138D JUMPI PUSH1 0x1 PUSH1 0x1 PUSH1 0xA0 SHL SUB DUP6 AND EXTCODESIZE PUSH2 0x138D JUMPI PUSH1 0x40 MLOAD PUSH3 0x461BCD PUSH1 0xE5 SHL DUP2 MSTORE PUSH1 0x20 PUSH1 0x4 DUP3 ADD MSTORE PUSH1 0x1D PUSH1 0x24 DUP3 ADD MSTORE PUSH32 0x416464726573733A2063616C6C20746F206E6F6E2D636F6E7472616374000000 PUSH1 0x44 DUP3 ADD MSTORE PUSH1 0x64 ADD PUSH2 0x535 JUMP JUMPDEST POP DUP2 PUSH2 0x1247 JUMP JUMPDEST PUSH2 0x1247 DUP4 DUP4 DUP2 MLOAD ISZERO PUSH2 0x13A9 JUMPI DUP2 MLOAD DUP1 DUP4 PUSH1 0x20 ADD REVERT JUMPDEST DUP1 PUSH1 0x40 MLOAD PUSH3 0x461BCD PUSH1 0xE5 SHL DUP2 MSTORE PUSH1 0x4 ADD PUSH2 0x535 SWAP2 SWAP1 PUSH2 0x1419 JUMP JUMPDEST DUP1 CALLDATALOAD PUSH1 0x1 PUSH1 0x1 PUSH1 0xA0 SHL SUB DUP2 AND DUP2 EQ PUSH2 0x13D9 JUMPI PUSH0 DUP1 REVERT JUMPDEST SWAP2 SWAP1 POP JUMP JUMPDEST PUSH0 PUSH1 0x20 DUP3 DUP5 SUB SLT ISZERO PUSH2 0x13EE JUMPI PUSH0 DUP1 REVERT JUMPDEST PUSH2 0x1012 DUP3 PUSH2 0x13C3 JUMP JUMPDEST PUSH0 JUMPDEST DUP4 DUP2 LT ISZERO PUSH2 0x1411 JUMPI DUP2 DUP2 ADD MLOAD DUP4 DUP3 ADD MSTORE PUSH1 0x20 ADD PUSH2 0x13F9 JUMP JUMPDEST POP POP PUSH0 SWAP2 ADD MSTORE JUMP JUMPDEST PUSH1 0x20 DUP2 MSTORE PUSH0 DUP3 MLOAD DUP1 PUSH1 0x20 DUP5 ADD MSTORE PUSH2 0x1437 DUP2 PUSH1 0x40 DUP6 ADD PUSH1 0x20 DUP8 ADD PUSH2 0x13F7 JUMP JUMPDEST PUSH1 0x1F ADD PUSH1 0x1F NOT AND SWAP2 SWAP1 SWAP2 ADD PUSH1 0x40 ADD SWAP3 SWAP2 POP POP JUMP JUMPDEST DUP1 ISZERO ISZERO DUP2 EQ PUSH2 0x653 JUMPI PUSH0 DUP1 REVERT JUMPDEST PUSH0 PUSH1 0x20 DUP3 DUP5 SUB SLT ISZERO PUSH2 0x1468 JUMPI PUSH0 DUP1 REVERT JUMPDEST DUP2 CALLDATALOAD PUSH2 0x1473 DUP2 PUSH2 0x144B JUMP JUMPDEST SWAP4 SWAP3 POP POP POP JUMP JUMPDEST PUSH0 DUP1 PUSH1 0x40 DUP4 DUP6 SUB SLT ISZERO PUSH2 0x148B JUMPI PUSH0 DUP1 REVERT JUMPDEST PUSH2 0x1494 DUP4 PUSH2 0x13C3 JUMP JUMPDEST SWAP5 PUSH1 0x20 SWAP4 SWAP1 SWAP4 ADD CALLDATALOAD SWAP4 POP POP POP JUMP JUMPDEST PUSH4 0x4E487B71 PUSH1 0xE0 SHL PUSH0 MSTORE PUSH1 0x41 PUSH1 0x4 MSTORE PUSH1 0x24 PUSH0 REVERT JUMPDEST PUSH0 PUSH1 0x20 DUP3 DUP5 SUB SLT ISZERO PUSH2 0x14C6 JUMPI PUSH0 DUP1 REVERT JUMPDEST DUP2 CALLDATALOAD PUSH8 0xFFFFFFFFFFFFFFFF DUP1 DUP3 GT ISZERO PUSH2 0x14DD JUMPI PUSH0 DUP1 REVERT JUMPDEST DUP2 DUP5 ADD SWAP2 POP DUP5 PUSH1 0x1F DUP4 ADD SLT PUSH2 0x14F0 JUMPI PUSH0 DUP1 REVERT JUMPDEST DUP2 CALLDATALOAD DUP2 DUP2 GT ISZERO PUSH2 0x1502 JUMPI PUSH2 0x1502 PUSH2 0x14A2 JUMP JUMPDEST PUSH1 0x40 MLOAD PUSH1 0x1F DUP3 ADD PUSH1 0x1F NOT SWAP1 DUP2 AND PUSH1 0x3F ADD AND DUP2 ADD SWAP1 DUP4 DUP3 GT DUP2 DUP4 LT OR ISZERO PUSH2 0x152A JUMPI PUSH2 0x152A PUSH2 0x14A2 JUMP JUMPDEST DUP2 PUSH1 0x40 MSTORE DUP3 DUP2 MSTORE DUP8 PUSH1 0x20 DUP5 DUP8 ADD ADD GT ISZERO PUSH2 0x1542 JUMPI PUSH0 DUP1 REVERT JUMPDEST DUP3 PUSH1 0x20 DUP7 ADD PUSH1 0x20 DUP4 ADD CALLDATACOPY PUSH0 SWAP3 DUP2 ADD PUSH1 0x20 ADD SWAP3 SWAP1 SWAP3 MSTORE POP SWAP6 SWAP5 POP POP POP POP POP JUMP JUMPDEST PUSH0 PUSH1 0x20 DUP3 DUP5 SUB SLT ISZERO PUSH2 0x1571 JUMPI PUSH0 DUP1 REVERT JUMPDEST POP CALLDATALOAD SWAP2 SWAP1 POP JUMP JUMPDEST PUSH1 0x1 DUP2 DUP2 SHR SWAP1 DUP3 AND DUP1 PUSH2 0x158C JUMPI PUSH1 0x7F DUP3 AND SWAP2 POP JUMPDEST PUSH1 0x20 DUP3 LT DUP2 SUB PUSH2 0x15AA JUMPI PUSH4 0x4E487B71 PUSH1 0xE0 SHL PUSH0 MSTORE PUSH1 0x22 PUSH1 0x4 MSTORE PUSH1 0x24 PUSH0 REVERT JUMPDEST POP SWAP2 SWAP1 POP JUMP JUMPDEST PUSH1 0x20 DUP1 DUP3 MSTORE PUSH1 0x1B SWAP1 DUP3 ADD MSTORE PUSH32 0x5468652049444F20706F6F6C20686173206E6F7420656E6465642E0000000000 PUSH1 0x40 DUP3 ADD MSTORE PUSH1 0x60 ADD SWAP1 JUMP JUMPDEST PUSH1 0x20 DUP1 DUP3 MSTORE PUSH1 0x24 SWAP1 DUP3 ADD MSTORE PUSH32 0x5468652049444F20706F6F6C20646964206E6F7420726561636820736F667420 PUSH1 0x40 DUP3 ADD MSTORE PUSH4 0x31B0B817 PUSH1 0xE1 SHL PUSH1 0x60 DUP3 ADD MSTORE PUSH1 0x80 ADD SWAP1 JUMP JUMPDEST PUSH0 PUSH1 0x20 DUP3 DUP5 SUB SLT ISZERO PUSH2 0x163B JUMPI PUSH0 DUP1 REVERT JUMPDEST POP MLOAD SWAP2 SWAP1 POP JUMP JUMPDEST PUSH1 0x1F DUP3 GT ISZERO PUSH2 0xEC7 JUMPI PUSH0 DUP2 DUP2 MSTORE PUSH1 0x20 DUP2 KECCAK256 PUSH1 0x1F DUP6 ADD PUSH1 0x5 SHR DUP2 ADD PUSH1 0x20 DUP7 LT ISZERO PUSH2 0x1668 JUMPI POP DUP1 JUMPDEST PUSH1 0x1F DUP6 ADD PUSH1 0x5 SHR DUP3 ADD SWAP2 POP JUMPDEST DUP2 DUP2 LT ISZERO PUSH2 0x1687 JUMPI DUP3 DUP2 SSTORE PUSH1 0x1 ADD PUSH2 0x1674 JUMP JUMPDEST POP POP POP POP POP POP JUMP JUMPDEST DUP2 MLOAD PUSH8 0xFFFFFFFFFFFFFFFF DUP2 GT ISZERO PUSH2 0x16A9 JUMPI PUSH2 0x16A9 PUSH2 0x14A2 JUMP JUMPDEST PUSH2 0x16BD DUP2 PUSH2 0x16B7 DUP5 SLOAD PUSH2 0x1578 JUMP JUMPDEST DUP5 PUSH2 0x1642 JUMP JUMPDEST PUSH1 0x20 DUP1 PUSH1 0x1F DUP4 GT PUSH1 0x1 DUP2 EQ PUSH2 0x16F0 JUMPI PUSH0 DUP5 ISZERO PUSH2 0x16D9 JUMPI POP DUP6 DUP4 ADD MLOAD JUMPDEST PUSH0 NOT PUSH1 0x3 DUP7 SWAP1 SHL SHR NOT AND PUSH1 0x1 DUP6 SWAP1 SHL OR DUP6 SSTORE PUSH2 0x1687 JUMP JUMPDEST PUSH0 DUP6 DUP2 MSTORE PUSH1 0x20 DUP2 KECCAK256 PUSH1 0x1F NOT DUP7 AND SWAP2 JUMPDEST DUP3 DUP2 LT ISZERO PUSH2 0x171E JUMPI DUP9 DUP7 ADD MLOAD DUP3 SSTORE SWAP5 DUP5 ADD SWAP5 PUSH1 0x1 SWAP1 SWAP2 ADD SWAP1 DUP5 ADD PUSH2 0x16FF JUMP JUMPDEST POP DUP6 DUP3 LT ISZERO PUSH2 0x173B JUMPI DUP8 DUP6 ADD MLOAD PUSH0 NOT PUSH1 0x3 DUP9 SWAP1 SHL PUSH1 0xF8 AND SHR NOT AND DUP2 SSTORE JUMPDEST POP POP POP POP POP PUSH1 0x1 SWAP1 DUP2 SHL ADD SWAP1 SSTORE POP JUMP JUMPDEST PUSH4 0x4E487B71 PUSH1 0xE0 SHL PUSH0 MSTORE PUSH1 0x11 PUSH1 0x4 MSTORE PUSH1 0x24 PUSH0 REVERT JUMPDEST DUP1 DUP3 ADD DUP1 DUP3 GT ISZERO PUSH2 0x1015 JUMPI PUSH2 0x1015 PUSH2 0x174B JUMP JUMPDEST DUP2 DUP2 SUB DUP2 DUP2 GT ISZERO PUSH2 0x1015 JUMPI PUSH2 0x1015 PUSH2 0x174B JUMP JUMPDEST PUSH1 0x1 DUP2 DUP2 JUMPDEST DUP1 DUP6 GT ISZERO PUSH2 0x17BF JUMPI DUP2 PUSH0 NOT DIV DUP3 GT ISZERO PUSH2 0x17A5 JUMPI PUSH2 0x17A5 PUSH2 0x174B JUMP JUMPDEST DUP1 DUP6 AND ISZERO PUSH2 0x17B2 JUMPI SWAP2 DUP2 MUL SWAP2 JUMPDEST SWAP4 DUP5 SHR SWAP4 SWAP1 DUP1 MUL SWAP1 PUSH2 0x178A JUMP JUMPDEST POP SWAP3 POP SWAP3 SWAP1 POP JUMP JUMPDEST PUSH0 DUP3 PUSH2 0x17D5 JUMPI POP PUSH1 0x1 PUSH2 0x1015 JUMP JUMPDEST DUP2 PUSH2 0x17E1 JUMPI POP PUSH0 PUSH2 0x1015 JUMP JUMPDEST DUP2 PUSH1 0x1 DUP2 EQ PUSH2 0x17F7 JUMPI PUSH1 0x2 DUP2 EQ PUSH2 0x1801 JUMPI PUSH2 0x181D JUMP JUMPDEST PUSH1 0x1 SWAP2 POP POP PUSH2 0x1015 JUMP JUMPDEST PUSH1 0xFF DUP5 GT ISZERO PUSH2 0x1812 JUMPI PUSH2 0x1812 PUSH2 0x174B JUMP JUMPDEST POP POP PUSH1 0x1 DUP3 SHL PUSH2 0x1015 JUMP JUMPDEST POP PUSH1 0x20 DUP4 LT PUSH2 0x133 DUP4 LT AND PUSH1 0x4E DUP5 LT PUSH1 0xB DUP5 LT AND OR ISZERO PUSH2 0x1840 JUMPI POP DUP2 DUP2 EXP PUSH2 0x1015 JUMP JUMPDEST PUSH2 0x184A DUP4 DUP4 PUSH2 0x1785 JUMP JUMPDEST DUP1 PUSH0 NOT DIV DUP3 GT ISZERO PUSH2 0x185D JUMPI PUSH2 0x185D PUSH2 0x174B JUMP JUMPDEST MUL SWAP4 SWAP3 POP POP POP JUMP JUMPDEST PUSH0 PUSH2 0x1012 DUP4 DUP4 PUSH2 0x17C7 JUMP JUMPDEST DUP1 DUP3 MUL DUP2 ISZERO DUP3 DUP3 DIV DUP5 EQ OR PUSH2 0x1015 JUMPI PUSH2 0x1015 PUSH2 0x174B JUMP JUMPDEST PUSH0 DUP3 PUSH2 0x18A1 JUMPI PUSH4 0x4E487B71 PUSH1 0xE0 SHL PUSH0 MSTORE PUSH1 0x12 PUSH1 0x4 MSTORE PUSH1 0x24 PUSH0 REVERT JUMPDEST POP DIV SWAP1 JUMP JUMPDEST PUSH0 PUSH1 0x20 DUP3 DUP5 SUB SLT ISZERO PUSH2 0x18B6 JUMPI PUSH0 DUP1 REVERT JUMPDEST DUP2 MLOAD PUSH2 0x1473 DUP2 PUSH2 0x144B JUMP JUMPDEST PUSH0 DUP3 MLOAD PUSH2 0x18D2 DUP2 DUP5 PUSH1 0x20 DUP8 ADD PUSH2 0x13F7 JUMP JUMPDEST SWAP2 SWAP1 SWAP2 ADD SWAP3 SWAP2 POP POP JUMP INVALID LOG2 PUSH5 0x6970667358 0x22 SLT KECCAK256 PUSH10 0x22F8379ED8E22A8E2740 SLT 0xC1 0xBA 0xD8 0xEA PUSH22 0x88F76D75255AA387FBB3391DA138FF64736F6C634300 ADDMOD EQ STOP CALLER LOG2 PUSH5 0x6970667358 0x22 SLT KECCAK256 PUSH19 0xA976DBF45129272939564F7D3CC6C8D8F4108B 0xCB SHL 0xEF 0xD1 PUSH15 0x2C980380CEB12A64736F6C63430008 EQ STOP CALLER "
		},
		"gasEstimates": {
			"creation": {
				"codeDepositCost": "4881000",
				"executionCost": "infinite",
				"totalCost": "infinite"
			},
			"external": {
				"burnPercent()": "2307",
				"createIDO(address,(uint256,uint256,uint256,uint256,uint256,uint256,uint256),(uint256,uint256,uint256),(address,address,address),address,string)": "infinite",
				"createIDOERC20(uint256,address,address,(uint256,uint256,uint256,uint256,uint256,uint256,uint256),(uint256,uint256,uint256),string,bool)": "infinite",
				"divider()": "2395",
				"feeAmount()": "2372",
				"feeToken()": "2403",
				"feeWallet()": "2424",
				"getIdoPools()": "infinite",
				"idoPools(uint256)": "4678",
				"onlyOwnerCreate()": "2354",
				"owner()": "2440",
				"renounceOwnership()": "infinite",
				"setBurnPercent(uint256,uint256)": "48009",
				"setFeeAmount(uint256)": "25585",
				"setFeeToken(address)": "30471",
				"setFeeWallet(address)": "27835",
				"setIdoPools(address[])": "infinite",
				"setOnlyOwnerCreate(bool)": "26730",
				"transferOwnership(address)": "infinite",
				"version()": "2328"
			},
			"internal": {
				"getTokenAmount(uint256,uint256,uint8)": "infinite",
				"isContract(address)": "infinite",
				"processIDOCreate(uint256,contract ERC20,address,string memory)": "infinite"
			}
		},
		"methodIdentifiers": {
			"burnPercent()": "03807ee5",
			"createIDO(address,(uint256,uint256,uint256,uint256,uint256,uint256,uint256),(uint256,uint256,uint256),(address,address,address),address,string)": "37491a91",
			"createIDOERC20(uint256,address,address,(uint256,uint256,uint256,uint256,uint256,uint256,uint256),(uint256,uint256,uint256),string,bool)": "92402aa2",
			"divider()": "378efa37",
			"feeAmount()": "69e15404",
			"feeToken()": "647846a5",
			"feeWallet()": "f25f4b56",
			"getIdoPools()": "6a1860e2",
			"idoPools(uint256)": "7104c9fd",
			"onlyOwnerCreate()": "6e42366b",
			"owner()": "8da5cb5b",
			"renounceOwnership()": "715018a6",
			"setBurnPercent(uint256,uint256)": "8dc12991",
			"setFeeAmount(uint256)": "6b392680",
			"setFeeToken(address)": "15cce224",
			"setFeeWallet(address)": "90d49b9d",
			"setIdoPools(address[])": "542ce0bc",
			"setOnlyOwnerCreate(bool)": "103a9981",
			"transferOwnership(address)": "f2fde38b",
			"version()": "54fd4d50"
		}
	},
	"abi": [
		{
			"inputs": [
				{
					"internalType": "contract ERC20Burnable",
					"name": "_feeToken",
					"type": "address"
				},
				{
					"internalType": "uint256",
					"name": "_feeAmount",
					"type": "uint256"
				},
				{
					"internalType": "uint256",
					"name": "_burnPercent",
					"type": "uint256"
				}
			],
			"stateMutability": "nonpayable",
			"type": "constructor"
		},
		{
			"anonymous": false,
			"inputs": [
				{
					"indexed": false,
					"internalType": "uint256",
					"name": "newBurnPercent",
					"type": "uint256"
				},
				{
					"indexed": false,
					"internalType": "uint256",
					"name": "divider",
					"type": "uint256"
				}
			],
			"name": "BurnPercentUpdated",
			"type": "event"
		},
		{
			"anonymous": false,
			"inputs": [
				{
					"indexed": false,
					"internalType": "uint256",
					"name": "newFeeAmount",
					"type": "uint256"
				}
			],
			"name": "FeeAmountUpdated",
			"type": "event"
		},
		{
			"anonymous": false,
			"inputs": [
				{
					"indexed": false,
					"internalType": "address",
					"name": "newFeeWallet",
					"type": "address"
				}
			],
			"name": "FeeWalletUpdated",
			"type": "event"
		},
		{
			"anonymous": false,
			"inputs": [
				{
					"indexed": true,
					"internalType": "address",
					"name": "owner",
					"type": "address"
				},
				{
					"indexed": false,
					"internalType": "address",
					"name": "idoPool",
					"type": "address"
				},
				{
					"indexed": true,
					"internalType": "address",
					"name": "rewardToken",
					"type": "address"
				},
				{
					"indexed": false,
					"internalType": "string",
					"name": "tokenURI",
					"type": "string"
				}
			],
			"name": "IDOCreated",
			"type": "event"
		},
		{
			"anonymous": false,
			"inputs": [
				{
					"indexed": true,
					"internalType": "address",
					"name": "previousOwner",
					"type": "address"
				},
				{
					"indexed": true,
					"internalType": "address",
					"name": "newOwner",
					"type": "address"
				}
			],
			"name": "OwnershipTransferred",
			"type": "event"
		},
		{
			"anonymous": false,
			"inputs": [
				{
					"indexed": false,
					"internalType": "address",
					"name": "newFeeToken",
					"type": "address"
				}
			],
			"name": "TokenFeeUpdated",
			"type": "event"
		},
		{
			"inputs": [],
			"name": "burnPercent",
			"outputs": [
				{
					"internalType": "uint256",
					"name": "",
					"type": "uint256"
				}
			],
			"stateMutability": "view",
			"type": "function"
		},
		{
			"inputs": [
				{
					"internalType": "contract ERC20",
					"name": "_rewardToken",
					"type": "address"
				},
				{
					"components": [
						{
							"internalType": "uint256",
							"name": "tokenPrice",
							"type": "uint256"
						},
						{
							"internalType": "uint256",
							"name": "softCap",
							"type": "uint256"
						},
						{
							"internalType": "uint256",
							"name": "hardCap",
							"type": "uint256"
						},
						{
							"internalType": "uint256",
							"name": "minEthPayment",
							"type": "uint256"
						},
						{
							"internalType": "uint256",
							"name": "maxEthPayment",
							"type": "uint256"
						},
						{
							"internalType": "uint256",
							"name": "listingPrice",
							"type": "uint256"
						},
						{
							"internalType": "uint256",
							"name": "lpInterestRate",
							"type": "uint256"
						}
					],
					"internalType": "struct IDOPool.FinInfo",
					"name": "_finInfo",
					"type": "tuple"
				},
				{
					"components": [
						{
							"internalType": "uint256",
							"name": "startTimestamp",
							"type": "uint256"
						},
						{
							"internalType": "uint256",
							"name": "endTimestamp",
							"type": "uint256"
						},
						{
							"internalType": "uint256",
							"name": "unlockTimestamp",
							"type": "uint256"
						}
					],
					"internalType": "struct IDOPool.Timestamps",
					"name": "_timestamps",
					"type": "tuple"
				},
				{
					"components": [
						{
							"internalType": "address",
							"name": "router",
							"type": "address"
						},
						{
							"internalType": "address",
							"name": "factory",
							"type": "address"
						},
						{
							"internalType": "address",
							"name": "weth",
							"type": "address"
						}
					],
					"internalType": "struct IDOPool.DEXInfo",
					"name": "_dexInfo",
					"type": "tuple"
				},
				{
					"internalType": "address",
					"name": "_lockerFactoryAddress",
					"type": "address"
				},
				{
					"internalType": "string",
					"name": "_metadataURL",
					"type": "string"
				}
			],
			"name": "createIDO",
			"outputs": [],
			"stateMutability": "nonpayable",
			"type": "function"
		},
		{
			"inputs": [
				{
					"internalType": "uint256",
					"name": "transferAmount",
					"type": "uint256"
				},
				{
					"internalType": "contract ERC20",
					"name": "_rewardToken",
					"type": "address"
				},
				{
					"internalType": "contract ERC20",
					"name": "_payToken",
					"type": "address"
				},
				{
					"components": [
						{
							"internalType": "uint256",
							"name": "tokenPrice",
							"type": "uint256"
						},
						{
							"internalType": "uint256",
							"name": "softCap",
							"type": "uint256"
						},
						{
							"internalType": "uint256",
							"name": "hardCap",
							"type": "uint256"
						},
						{
							"internalType": "uint256",
							"name": "minPayment",
							"type": "uint256"
						},
						{
							"internalType": "uint256",
							"name": "maxPayment",
							"type": "uint256"
						},
						{
							"internalType": "uint256",
							"name": "listingPrice",
							"type": "uint256"
						},
						{
							"internalType": "uint256",
							"name": "lpInterestRate",
							"type": "uint256"
						}
					],
					"internalType": "struct IDOERC20Pool.FinInfo",
					"name": "_finInfo",
					"type": "tuple"
				},
				{
					"components": [
						{
							"internalType": "uint256",
							"name": "startTimestamp",
							"type": "uint256"
						},
						{
							"internalType": "uint256",
							"name": "endTimestamp",
							"type": "uint256"
						},
						{
							"internalType": "uint256",
							"name": "unlockTimestamp",
							"type": "uint256"
						}
					],
					"internalType": "struct IDOERC20Pool.Timestamps",
					"name": "_timestamps",
					"type": "tuple"
				},
				{
					"internalType": "string",
					"name": "_metadataURL",
					"type": "string"
				},
				{
					"internalType": "bool",
					"name": "allowSoftWithdraw",
					"type": "bool"
				}
			],
			"name": "createIDOERC20",
			"outputs": [],
			"stateMutability": "nonpayable",
			"type": "function"
		},
		{
			"inputs": [],
			"name": "divider",
			"outputs": [
				{
					"internalType": "uint256",
					"name": "",
					"type": "uint256"
				}
			],
			"stateMutability": "view",
			"type": "function"
		},
		{
			"inputs": [],
			"name": "feeAmount",
			"outputs": [
				{
					"internalType": "uint256",
					"name": "",
					"type": "uint256"
				}
			],
			"stateMutability": "view",
			"type": "function"
		},
		{
			"inputs": [],
			"name": "feeToken",
			"outputs": [
				{
					"internalType": "contract ERC20Burnable",
					"name": "",
					"type": "address"
				}
			],
			"stateMutability": "view",
			"type": "function"
		},
		{
			"inputs": [],
			"name": "feeWallet",
			"outputs": [
				{
					"internalType": "address",
					"name": "",
					"type": "address"
				}
			],
			"stateMutability": "view",
			"type": "function"
		},
		{
			"inputs": [],
			"name": "getIdoPools",
			"outputs": [
				{
					"internalType": "address[]",
					"name": "",
					"type": "address[]"
				}
			],
			"stateMutability": "view",
			"type": "function"
		},
		{
			"inputs": [
				{
					"internalType": "uint256",
					"name": "",
					"type": "uint256"
				}
			],
			"name": "idoPools",
			"outputs": [
				{
					"internalType": "address",
					"name": "",
					"type": "address"
				}
			],
			"stateMutability": "view",
			"type": "function"
		},
		{
			"inputs": [],
			"name": "onlyOwnerCreate",
			"outputs": [
				{
					"internalType": "bool",
					"name": "",
					"type": "bool"
				}
			],
			"stateMutability": "view",
			"type": "function"
		},
		{
			"inputs": [],
			"name": "owner",
			"outputs": [
				{
					"internalType": "address",
					"name": "",
					"type": "address"
				}
			],
			"stateMutability": "view",
			"type": "function"
		},
		{
			"inputs": [],
			"name": "renounceOwnership",
			"outputs": [],
			"stateMutability": "nonpayable",
			"type": "function"
		},
		{
			"inputs": [
				{
					"internalType": "uint256",
					"name": "_newBurnPercent",
					"type": "uint256"
				},
				{
					"internalType": "uint256",
					"name": "_newDivider",
					"type": "uint256"
				}
			],
			"name": "setBurnPercent",
			"outputs": [],
			"stateMutability": "nonpayable",
			"type": "function"
		},
		{
			"inputs": [
				{
					"internalType": "uint256",
					"name": "_newFeeAmount",
					"type": "uint256"
				}
			],
			"name": "setFeeAmount",
			"outputs": [],
			"stateMutability": "nonpayable",
			"type": "function"
		},
		{
			"inputs": [
				{
					"internalType": "address",
					"name": "_newFeeToken",
					"type": "address"
				}
			],
			"name": "setFeeToken",
			"outputs": [],
			"stateMutability": "nonpayable",
			"type": "function"
		},
		{
			"inputs": [
				{
					"internalType": "address",
					"name": "_newFeeWallet",
					"type": "address"
				}
			],
			"name": "setFeeWallet",
			"outputs": [],
			"stateMutability": "nonpayable",
			"type": "function"
		},
		{
			"inputs": [
				{
					"internalType": "address[]",
					"name": "newIdoPools",
					"type": "address[]"
				}
			],
			"name": "setIdoPools",
			"outputs": [],
			"stateMutability": "nonpayable",
			"type": "function"
		},
		{
			"inputs": [
				{
					"internalType": "bool",
					"name": "_onlyOwnerCreate",
					"type": "bool"
				}
			],
			"name": "setOnlyOwnerCreate",
			"outputs": [],
			"stateMutability": "nonpayable",
			"type": "function"
		},
		{
			"inputs": [
				{
					"internalType": "address",
					"name": "newOwner",
					"type": "address"
				}
			],
			"name": "transferOwnership",
			"outputs": [],
			"stateMutability": "nonpayable",
			"type": "function"
		},
		{
			"inputs": [],
			"name": "version",
			"outputs": [
				{
					"internalType": "uint256",
					"name": "",
					"type": "uint256"
				}
			],
			"stateMutability": "view",
			"type": "function"
		}
	]
}