{
  "contractName": "TokenLocker",
  "abi": [
    {
      "inputs": [
        {
          "internalType": "contract ERC20",
          "name": "_token",
          "type": "address"
        },
        {
          "internalType": "string",
          "name": "_name",
          "type": "string"
        },
        {
          "internalType": "address",
          "name": "_withdrawer",
          "type": "address"
        },
        {
          "internalType": "uint256",
          "name": "_withdrawTime",
          "type": "uint256"
        }
      ],
      "stateMutability": "nonpayable",
      "type": "constructor"
    },
    {
      "anonymous": false,
      "inputs": [
        {
          "indexed": true,
          "internalType": "address",
          "name": "previousOwner",
          "type": "address"
        },
        {
          "indexed": true,
          "internalType": "address",
          "name": "newOwner",
          "type": "address"
        }
      ],
      "name": "OwnershipTransferred",
      "type": "event"
    },
    {
      "anonymous": false,
      "inputs": [
        {
          "indexed": false,
          "internalType": "uint256",
          "name": "timestamp",
          "type": "uint256"
        },
        {
          "indexed": false,
          "internalType": "uint256",
          "name": "amount",
          "type": "uint256"
        }
      ],
      "name": "withdrawTokenEvent",
      "type": "event"
    },
    {
      "inputs": [],
      "name": "name",
      "outputs": [
        {
          "internalType": "string",
          "name": "",
          "type": "string"
        }
      ],
      "stateMutability": "view",
      "type": "function"
    },
    {
      "inputs": [],
      "name": "owner",
      "outputs": [
        {
          "internalType": "address",
          "name": "",
          "type": "address"
        }
      ],
      "stateMutability": "view",
      "type": "function"
    },
    {
      "inputs": [],
      "name": "renounceOwnership",
      "outputs": [],
      "stateMutability": "nonpayable",
      "type": "function"
    },
    {
      "inputs": [],
      "name": "token",
      "outputs": [
        {
          "internalType": "contract ERC20",
          "name": "",
          "type": "address"
        }
      ],
      "stateMutability": "view",
      "type": "function"
    },
    {
      "inputs": [
        {
          "internalType": "address",
          "name": "newOwner",
          "type": "address"
        }
      ],
      "name": "transferOwnership",
      "outputs": [],
      "stateMutability": "nonpayable",
      "type": "function"
    },
    {
      "inputs": [],
      "name": "withdrawTime",
      "outputs": [
        {
          "internalType": "uint256",
          "name": "",
          "type": "uint256"
        }
      ],
      "stateMutability": "view",
      "type": "function"
    },
    {
      "inputs": [],
      "name": "withdrawer",
      "outputs": [
        {
          "internalType": "address",
          "name": "",
          "type": "address"
        }
      ],
      "stateMutability": "view",
      "type": "function"
    },
    {
      "inputs": [
        {
          "internalType": "uint256",
          "name": "amount",
          "type": "uint256"
        }
      ],
      "name": "withdrawToken",
      "outputs": [],
      "stateMutability": "nonpayable",
      "type": "function"
    },
    {
      "inputs": [],
      "name": "withdrawTokenAll",
      "outputs": [],
      "stateMutability": "nonpayable",
      "type": "function"
    },
    {
      "inputs": [],
      "name": "tokenRemaining",
      "outputs": [
        {
          "internalType": "uint256",
          "name": "",
          "type": "uint256"
        }
      ],
      "stateMutability": "view",
      "type": "function"
    }
  ],
  "bytecode": "0x60806040523480156200001157600080fd5b5060405162000ee538038062000ee5833981016040819052620000349162000189565b6200003f33620000f8565b428111620000a15760405162461bcd60e51b815260206004820152602560248201527f77697468647261772074696d652073686f756c64206265206d6f7265207468616044820152646e206e6f7760d81b606482015260840160405180910390fd5b600180546001600160a01b0319166001600160a01b0386161790556004620000ca84826200031d565b50600280546001600160a01b0319166001600160a01b03939093169290921790915560035550620003e99050565b600080546001600160a01b038381166001600160a01b0319831681178455604051919092169283917f8be0079c531659141344cd1fd0a4f28419497f9722a3daafe3b4186f6b6457e09190a35050565b6001600160a01b03811681146200015e57600080fd5b50565b634e487b7160e01b600052604160045260246000fd5b8051620001848162000148565b919050565b60008060008060808587031215620001a057600080fd5b8451620001ad8162000148565b602086810151919550906001600160401b0380821115620001cd57600080fd5b818801915088601f830112620001e257600080fd5b815181811115620001f757620001f762000161565b604051601f8201601f19908116603f0116810190838211818310171562000222576200022262000161565b816040528281528b868487010111156200023b57600080fd5b600093505b828410156200025f578484018601518185018701529285019262000240565b60008684830101528098505050505050506200027e6040860162000177565b6060959095015193969295505050565b600181811c90821680620002a357607f821691505b602082108103620002c457634e487b7160e01b600052602260045260246000fd5b50919050565b601f8211156200031857600081815260208120601f850160051c81016020861015620002f35750805b601f850160051c820191505b818110156200031457828155600101620002ff565b5050505b505050565b81516001600160401b0381111562000339576200033962000161565b62000351816200034a84546200028e565b84620002ca565b602080601f831160018114620003895760008415620003705750858301515b600019600386901b1c1916600185901b17855562000314565b600085815260208120601f198616915b82811015620003ba5788860151825594840194600190910190840162000399565b5085821015620003d95787850151600019600388901b60f8161c191681555b5050505050600190811b01905550565b610aec80620003f96000396000f3fe608060405234801561001057600080fd5b50600436106100be5760003560e01c80637fc0254d11610076578063cdc184241161005b578063cdc1842414610164578063f2fde38b14610184578063fc0c546a1461019757600080fd5b80637fc0254d1461011d5780638da5cb5b1461012557600080fd5b806350baa622116100a757806350baa622146100f857806368646cf01461010d578063715018a61461011557600080fd5b806306fdde03146100c357806345cb3dde146100e1575b600080fd5b6100cb6101b7565b6040516100d89190610966565b60405180910390f35b6100ea60035481565b6040519081526020016100d8565b61010b6101063660046109d2565b610245565b005b6100ea610530565b61010b6105c8565b61010b6105dc565b60005473ffffffffffffffffffffffffffffffffffffffff165b60405173ffffffffffffffffffffffffffffffffffffffff90911681526020016100d8565b60025461013f9073ffffffffffffffffffffffffffffffffffffffff1681565b61010b6101923660046109eb565b6107b9565b60015461013f9073ffffffffffffffffffffffffffffffffffffffff1681565b600480546101c490610a28565b80601f01602080910402602001604051908101604052809291908181526020018280546101f090610a28565b801561023d5780601f106102125761010080835404028352916020019161023d565b820191906000526020600020905b81548152906001019060200180831161022057829003601f168201915b505050505081565b6001546040517f70a0823100000000000000000000000000000000000000000000000000000000815230600482015273ffffffffffffffffffffffffffffffffffffffff909116906370a0823190602401602060405180830381865afa1580156102b3573d6000803e3d6000fd5b505050506040513d601f19601f820116820180604052508101906102d79190610a7b565b81101561036b576040517f08c379a000000000000000000000000000000000000000000000000000000000815260206004820152602160248201527f576974686472617720616d6f756e74206973206578636565642062616c616e6360448201527f650000000000000000000000000000000000000000000000000000000000000060648201526084015b60405180910390fd5b60025473ffffffffffffffffffffffffffffffffffffffff1633146103ec576040517f08c379a000000000000000000000000000000000000000000000000000000000815260206004820152601660248201527f596f7520617265206e6f742077697468647261776572000000000000000000006044820152606401610362565b6003544211610457576040517f08c379a000000000000000000000000000000000000000000000000000000000815260206004820152600c60248201527f4e6f742074696d652079657400000000000000000000000000000000000000006044820152606401610362565b6001546040517fa9059cbb0000000000000000000000000000000000000000000000000000000081523360048201526024810183905273ffffffffffffffffffffffffffffffffffffffff9091169063a9059cbb906044015b6020604051808303816000875af11580156104cf573d6000803e3d6000fd5b505050506040513d601f19601f820116820180604052508101906104f39190610a94565b5060408051428152602081018390527fa4fa6d4c08e67b66804f329195ed12feecfe9057e79e17edf30ff90f6cf37d8f910160405180910390a150565b6001546040517f70a0823100000000000000000000000000000000000000000000000000000000815230600482015260009173ffffffffffffffffffffffffffffffffffffffff16906370a0823190602401602060405180830381865afa15801561059f573d6000803e3d6000fd5b505050506040513d601f19601f820116820180604052508101906105c39190610a7b565b905090565b6105d0610870565b6105da60006108f1565b565b60025473ffffffffffffffffffffffffffffffffffffffff16331461065d576040517f08c379a000000000000000000000000000000000000000000000000000000000815260206004820152601660248201527f596f7520617265206e6f742077697468647261776572000000000000000000006044820152606401610362565b60035442116106c8576040517f08c379a000000000000000000000000000000000000000000000000000000000815260206004820152600c60248201527f4e6f742074696d652079657400000000000000000000000000000000000000006044820152606401610362565b6001546040517f70a0823100000000000000000000000000000000000000000000000000000000815230600482015260009173ffffffffffffffffffffffffffffffffffffffff16906370a0823190602401602060405180830381865afa158015610737573d6000803e3d6000fd5b505050506040513d601f19601f8201168201806040525081019061075b9190610a7b565b6001546040517fa9059cbb0000000000000000000000000000000000000000000000000000000081523360048201526024810183905291925073ffffffffffffffffffffffffffffffffffffffff169063a9059cbb906044016104b0565b6107c1610870565b73ffffffffffffffffffffffffffffffffffffffff8116610864576040517f08c379a000000000000000000000000000000000000000000000000000000000815260206004820152602660248201527f4f776e61626c653a206e6577206f776e657220697320746865207a65726f206160448201527f64647265737300000000000000000000000000000000000000000000000000006064820152608401610362565b61086d816108f1565b50565b60005473ffffffffffffffffffffffffffffffffffffffff1633146105da576040517f08c379a000000000000000000000000000000000000000000000000000000000815260206004820181905260248201527f4f776e61626c653a2063616c6c6572206973206e6f7420746865206f776e65726044820152606401610362565b6000805473ffffffffffffffffffffffffffffffffffffffff8381167fffffffffffffffffffffffff0000000000000000000000000000000000000000831681178455604051919092169283917f8be0079c531659141344cd1fd0a4f28419497f9722a3daafe3b4186f6b6457e09190a35050565b600060208083528351808285015260005b8181101561099357858101830151858201604001528201610977565b5060006040828601015260407fffffffffffffffffffffffffffffffffffffffffffffffffffffffffffffffe0601f8301168501019250505092915050565b6000602082840312156109e457600080fd5b5035919050565b6000602082840312156109fd57600080fd5b813573ffffffffffffffffffffffffffffffffffffffff81168114610a2157600080fd5b9392505050565b600181811c90821680610a3c57607f821691505b602082108103610a75577f4e487b7100000000000000000000000000000000000000000000000000000000600052602260045260246000fd5b50919050565b600060208284031215610a8d57600080fd5b5051919050565b600060208284031215610aa657600080fd5b81518015158114610a2157600080fdfea2646970667358221220c482f8661cce6959b7ac09ad1711dec6a98a331b362b01ad625c749fbd95185764736f6c63430008120033",
  "immutableReferences": {},
  "source": "pragma solidity ^0.8.0;\r\n\r\nimport \"@openzeppelin/contracts/access/Ownable.sol\";\r\nimport \"@openzeppelin/contracts/security/ReentrancyGuard.sol\";\r\nimport \"@openzeppelin/contracts/utils/math/SafeMath.sol\";\r\nimport \"@openzeppelin/contracts/token/ERC20/utils/SafeERC20.sol\";\r\nimport \"@openzeppelin/contracts/token/ERC20/ERC20.sol\";\r\n\r\ncontract TokenLocker is Ownable {\r\n    using SafeMath for uint256;\r\n    using SafeERC20 for ERC20;\r\n\r\n    ERC20 public token;\r\n    address public withdrawer;\r\n    uint256 public withdrawTime;\r\n    string public name;\r\n\r\n    event withdrawTokenEvent(uint256 timestamp, uint256 amount);\r\n\r\n    constructor(\r\n        ERC20 _token,\r\n        string memory _name,\r\n        address _withdrawer,\r\n        uint256 _withdrawTime\r\n    ){\r\n        require(_withdrawTime > block.timestamp, \"withdraw time should be more than now\");\r\n\r\n        token = _token;\r\n        name = _name;\r\n        withdrawer = _withdrawer;\r\n        withdrawTime = _withdrawTime;\r\n    }\r\n\r\n    function withdrawToken(uint256 amount) public{\r\n        require(amount >= token.balanceOf(address(this)), \"Withdraw amount is exceed balance\");\r\n        require(msg.sender == withdrawer, \"You are not withdrawer\");\r\n        require(block.timestamp > withdrawTime, \"Not time yet\");\r\n        token.transfer(msg.sender, amount);\r\n            emit withdrawTokenEvent(block.timestamp, amount);\r\n    }\r\n\r\n    function withdrawTokenAll() public{\r\n        require(msg.sender == withdrawer, \"You are not withdrawer\");\r\n        require(block.timestamp > withdrawTime, \"Not time yet\");\r\n        uint256 amount = token.balanceOf(address(this));\r\n        token.transfer(msg.sender, amount);\r\n        emit withdrawTokenEvent(block.timestamp, amount);\r\n    }\r\n\r\n    function tokenRemaining() public view returns(uint256){\r\n        return token.balanceOf(address(this));\r\n    }\r\n\r\n}",
  "sourcePath": "D:\\WORK\\WebServers\\home\\localhost\\www\\main\\launchpad\\contracts\\TokenLocker.sol",
  "compiler": {
    "name": "solc",
    "version": "0.8.18+commit.87f61d96.Emscripten.clang"
  },
  "schemaVersion": "3.4.13",
  "updatedAt": "2023-05-12T12:47:49.613Z",
  "devdoc": {
    "kind": "dev",
    "methods": {
      "owner()": {
        "details": "Returns the address of the current owner."
      },
      "renounceOwnership()": {
        "details": "Leaves the contract without owner. It will not be possible to call `onlyOwner` functions anymore. Can only be called by the current owner. NOTE: Renouncing ownership will leave the contract without an owner, thereby removing any functionality that is only available to the owner."
      },
      "transferOwnership(address)": {
        "details": "Transfers ownership of the contract to a new account (`newOwner`). Can only be called by the current owner."
      }
    },
    "version": 1
  },
  "userdoc": {
    "kind": "user",
    "methods": {},
    "version": 1
  }
}